{
  "contractName": "Contacts",
  "abi": [
    {
      "inputs": [],
      "stateMutability": "nonpayable",
      "type": "constructor"
    },
    {
      "inputs": [
        {
          "internalType": "uint256",
          "name": "",
          "type": "uint256"
        }
      ],
      "name": "contacts",
      "outputs": [
        {
          "internalType": "uint256",
          "name": "id",
          "type": "uint256"
        },
        {
          "internalType": "string",
          "name": "name",
          "type": "string"
        },
        {
          "internalType": "string",
          "name": "phone",
          "type": "string"
        }
      ],
      "stateMutability": "view",
      "type": "function",
      "constant": true
    },
    {
      "inputs": [],
      "name": "count",
      "outputs": [
        {
          "internalType": "uint256",
          "name": "",
          "type": "uint256"
        }
      ],
      "stateMutability": "view",
      "type": "function",
      "constant": true
    },
    {
      "inputs": [
        {
          "internalType": "string",
          "name": "_name",
          "type": "string"
        },
        {
          "internalType": "string",
          "name": "_phone",
          "type": "string"
        }
      ],
      "name": "createContact",
      "outputs": [],
      "stateMutability": "nonpayable",
      "type": "function"
    }
  ],
  "bytecode": "0x6080604052600080553480156200001557600080fd5b506200009b6040518060400160405280600781526020017f446f6e67686565000000000000000000000000000000000000000000000000008152506040518060400160405280600881526020017f636f6e7461637434000000000000000000000000000000000000000000000000815250620000a1640100000000026401000000009004565b6200050f565b600080815480929190620000b59062000165565b9190505550604051806060016040528060005481526020018381526020018281525060016000805481526020019081526020016000206000820151816000015560208201518160010190816200010c919062000428565b50604082015181600201908162000124919062000428565b509050505050565b7f4e487b7100000000000000000000000000000000000000000000000000000000600052601160045260246000fd5b6000819050919050565b600062000172826200015b565b91507fffffffffffffffffffffffffffffffffffffffffffffffffffffffffffffffff8203620001a757620001a66200012c565b5b600182019050919050565b600081519050919050565b7f4e487b7100000000000000000000000000000000000000000000000000000000600052604160045260246000fd5b7f4e487b7100000000000000000000000000000000000000000000000000000000600052602260045260246000fd5b600060028204905060018216806200023457607f821691505b6020821081036200024a5762000249620001ec565b5b50919050565b60008190508160005260206000209050919050565b60006020601f8301049050919050565b60008160020a8302905092915050565b600060088302620002b77fffffffffffffffffffffffffffffffffffffffffffffffffffffffffffffffff8262000275565b620002c3868362000275565b95508019841693508086168417925050509392505050565b6000819050919050565b60006200030662000300620002fa846200015b565b620002db565b6200015b565b9050919050565b6000819050919050565b6200032283620002e5565b6200033a62000331826200030d565b84845462000285565b825550505050565b600090565b6200035162000342565b6200035e81848462000317565b505050565b5b8181101562000386576200037a60008262000347565b60018101905062000364565b5050565b601f821115620003d5576200039f8162000250565b620003aa8462000265565b81016020851015620003ba578190505b620003d2620003c98562000265565b83018262000363565b50505b505050565b60008160020a8304905092915050565b6000620003fd60001984600802620003da565b1980831691505092915050565b6000620004188383620003ea565b9150826002028217905092915050565b6200043382620001b2565b67ffffffffffffffff8111156200044f576200044e620001bd565b5b6200045b82546200021b565b620004688282856200038a565b600060209050601f831160018114620004a057600084156200048b578287015190505b6200049785826200040a565b86555062000507565b601f198416620004b08662000250565b60005b82811015620004da57848901518255600182019150602085019450602081019050620004b3565b86831015620004fa5784890151620004f6601f891682620003ea565b8355505b6001600288020188555050505b505050505050565b610948806200051f6000396000f3fe608060405234801561001057600080fd5b506004361061005e576000357c01000000000000000000000000000000000000000000000000000000009004806306661abd146100635780633dce492014610081578063e0f478cb1461009d575b600080fd5b61006b6100cf565b60405161007891906102ad565b60405180910390f35b61009b60048036038101906100969190610422565b6100d5565b005b6100b760048036038101906100b291906104c6565b61015a565b6040516100c693929190610572565b60405180910390f35b60005481565b6000808154809291906100e7906105e6565b91905055506040518060600160405280600054815260200183815260200182815250600160008054815260200190815260200160002060008201518160000155602082015181600101908161013c9190610840565b5060408201518160020190816101529190610840565b509050505050565b60016020528060005260406000206000915090508060000154908060010180546101839061065d565b80601f01602080910402602001604051908101604052809291908181526020018280546101af9061065d565b80156101fc5780601f106101d1576101008083540402835291602001916101fc565b820191906000526020600020905b8154815290600101906020018083116101df57829003601f168201915b5050505050908060020180546102119061065d565b80601f016020809104026020016040519081016040528092919081815260200182805461023d9061065d565b801561028a5780601f1061025f5761010080835404028352916020019161028a565b820191906000526020600020905b81548152906001019060200180831161026d57829003601f168201915b5050505050905083565b6000819050919050565b6102a781610294565b82525050565b60006020820190506102c2600083018461029e565b92915050565b6000604051905090565b600080fd5b600080fd5b600080fd5b600080fd5b6000601f19601f8301169050919050565b7f4e487b7100000000000000000000000000000000000000000000000000000000600052604160045260246000fd5b61032f826102e6565b810181811067ffffffffffffffff8211171561034e5761034d6102f7565b5b80604052505050565b60006103616102c8565b905061036d8282610326565b919050565b600067ffffffffffffffff82111561038d5761038c6102f7565b5b610396826102e6565b9050602081019050919050565b82818337600083830152505050565b60006103c56103c084610372565b610357565b9050828152602081018484840111156103e1576103e06102e1565b5b6103ec8482856103a3565b509392505050565b600082601f830112610409576104086102dc565b5b81356104198482602086016103b2565b91505092915050565b60008060408385031215610439576104386102d2565b5b600083013567ffffffffffffffff811115610457576104566102d7565b5b610463858286016103f4565b925050602083013567ffffffffffffffff811115610484576104836102d7565b5b610490858286016103f4565b9150509250929050565b6104a381610294565b81146104ae57600080fd5b50565b6000813590506104c08161049a565b92915050565b6000602082840312156104dc576104db6102d2565b5b60006104ea848285016104b1565b91505092915050565b600081519050919050565b600082825260208201905092915050565b60005b8381101561052d578082015181840152602081019050610512565b60008484015250505050565b6000610544826104f3565b61054e81856104fe565b935061055e81856020860161050f565b610567816102e6565b840191505092915050565b6000606082019050610587600083018661029e565b81810360208301526105998185610539565b905081810360408301526105ad8184610539565b9050949350505050565b7f4e487b7100000000000000000000000000000000000000000000000000000000600052601160045260246000fd5b60006105f182610294565b91507fffffffffffffffffffffffffffffffffffffffffffffffffffffffffffffffff8203610623576106226105b7565b5b600182019050919050565b7f4e487b7100000000000000000000000000000000000000000000000000000000600052602260045260246000fd5b6000600282049050600182168061067557607f821691505b6020821081036106885761068761062e565b5b50919050565b60008190508160005260206000209050919050565b60006020601f8301049050919050565b60008160020a8302905092915050565b6000600883026106f37fffffffffffffffffffffffffffffffffffffffffffffffffffffffffffffffff826106b3565b6106fd86836106b3565b95508019841693508086168417925050509392505050565b6000819050919050565b600061073a61073561073084610294565b610715565b610294565b9050919050565b6000819050919050565b6107548361071f565b61076861076082610741565b8484546106c3565b825550505050565b600090565b61077d610770565b61078881848461074b565b505050565b5b818110156107ac576107a1600082610775565b60018101905061078e565b5050565b601f8211156107f1576107c28161068e565b6107cb846106a3565b810160208510156107da578190505b6107ee6107e6856106a3565b83018261078d565b50505b505050565b60008160020a8304905092915050565b6000610817600019846008026107f6565b1980831691505092915050565b60006108308383610806565b9150826002028217905092915050565b610849826104f3565b67ffffffffffffffff811115610862576108616102f7565b5b61086c825461065d565b6108778282856107b0565b600060209050601f8311600181146108aa5760008415610898578287015190505b6108a28582610824565b86555061090a565b601f1984166108b88661068e565b60005b828110156108e0578489015182556001820191506020850194506020810190506108bb565b868310156108fd57848901516108f9601f891682610806565b8355505b6001600288020188555050505b50505050505056fea264697066735822122006df552d1747152e17dbed17b74374740edb1a9a23b5b353ea6f62fb3223cf2264736f6c63430008110033",
  "immutableReferences": {},
  "source": "// SPDX-License-Identifier: MIT\r\npragma solidity >=0.4.22 <0.9.0;\r\n\r\ncontract Contacts {\r\n  uint public count = 0; // state variable\r\n  \r\n  struct Contact {\r\n    uint id;\r\n    string name;\r\n    string phone;\r\n  }\r\n  \r\n  constructor() public {\r\n    createContact('Donghee', 'contact4');\r\n  }\r\n  \r\n  mapping(uint => Contact) public contacts;\r\n  \r\n  function createContact(string memory _name, string memory _phone) public {\r\n    count++;\r\n    contacts[count] = Contact(count, _name, _phone);\r\n  }\r\n}",
  "sourcePath": "C:\\Users\\multicampus\\Desktop\\SSAFY_2\\SSAFY_\\TEST_React_sol_ganache\\contracts\\contracts\\Contacts.sol",
  "compiler": {
    "name": "solc",
    "version": "0.8.17+commit.8df45f5f.Emscripten.clang"
  },
  "schemaVersion": "3.4.10",
  "updatedAt": "2022-09-22T12:53:43.859Z",
  "networkType": "ethereum",
  "devdoc": {
    "kind": "dev",
    "methods": {},
    "version": 1
  },
  "userdoc": {
    "kind": "user",
    "methods": {},
    "version": 1
  }
}