{
  "contractName": "Cash",
  "abi": [
    {
      "inputs": [],
      "stateMutability": "nonpayable",
      "type": "constructor"
    },
    {
      "anonymous": false,
      "inputs": [
        {
          "indexed": true,
          "internalType": "address",
          "name": "owner",
          "type": "address"
        },
        {
          "indexed": true,
          "internalType": "address",
          "name": "spender",
          "type": "address"
        },
        {
          "indexed": false,
          "internalType": "uint256",
          "name": "value",
          "type": "uint256"
        }
      ],
      "name": "Approval",
      "type": "event"
    },
    {
      "anonymous": false,
      "inputs": [
        {
          "indexed": true,
          "internalType": "address",
          "name": "from",
          "type": "address"
        },
        {
          "indexed": true,
          "internalType": "address",
          "name": "to",
          "type": "address"
        },
        {
          "indexed": false,
          "internalType": "uint256",
          "name": "value",
          "type": "uint256"
        }
      ],
      "name": "Transfer",
      "type": "event"
    },
    {
      "inputs": [],
      "name": "decimals",
      "outputs": [
        {
          "internalType": "uint8",
          "name": "",
          "type": "uint8"
        }
      ],
      "stateMutability": "view",
      "type": "function"
    },
    {
      "inputs": [],
      "name": "minter",
      "outputs": [
        {
          "internalType": "address payable",
          "name": "",
          "type": "address"
        }
      ],
      "stateMutability": "view",
      "type": "function"
    },
    {
      "inputs": [],
      "name": "name",
      "outputs": [
        {
          "internalType": "string",
          "name": "",
          "type": "string"
        }
      ],
      "stateMutability": "view",
      "type": "function"
    },
    {
      "inputs": [],
      "name": "symbol",
      "outputs": [
        {
          "internalType": "string",
          "name": "",
          "type": "string"
        }
      ],
      "stateMutability": "view",
      "type": "function"
    },
    {
      "inputs": [],
      "name": "totalSupply",
      "outputs": [
        {
          "internalType": "uint256",
          "name": "",
          "type": "uint256"
        }
      ],
      "stateMutability": "view",
      "type": "function"
    },
    {
      "inputs": [
        {
          "internalType": "address",
          "name": "_receiver",
          "type": "address"
        },
        {
          "internalType": "uint256",
          "name": "_amount",
          "type": "uint256"
        }
      ],
      "name": "mint",
      "outputs": [],
      "stateMutability": "nonpayable",
      "type": "function"
    },
    {
      "inputs": [
        {
          "internalType": "address",
          "name": "_account",
          "type": "address"
        }
      ],
      "name": "balanceOf",
      "outputs": [
        {
          "internalType": "uint256",
          "name": "",
          "type": "uint256"
        }
      ],
      "stateMutability": "view",
      "type": "function"
    },
    {
      "inputs": [
        {
          "internalType": "address",
          "name": "_recipient",
          "type": "address"
        },
        {
          "internalType": "uint256",
          "name": "_amount",
          "type": "uint256"
        }
      ],
      "name": "transfer",
      "outputs": [
        {
          "internalType": "bool",
          "name": "",
          "type": "bool"
        }
      ],
      "stateMutability": "nonpayable",
      "type": "function"
    },
    {
      "inputs": [
        {
          "internalType": "address",
          "name": "_owner",
          "type": "address"
        },
        {
          "internalType": "address",
          "name": "_spender",
          "type": "address"
        }
      ],
      "name": "allowance",
      "outputs": [
        {
          "internalType": "uint256",
          "name": "",
          "type": "uint256"
        }
      ],
      "stateMutability": "view",
      "type": "function"
    },
    {
      "inputs": [
        {
          "internalType": "address",
          "name": "_spender",
          "type": "address"
        },
        {
          "internalType": "uint256",
          "name": "_amount",
          "type": "uint256"
        }
      ],
      "name": "approve",
      "outputs": [
        {
          "internalType": "bool",
          "name": "",
          "type": "bool"
        }
      ],
      "stateMutability": "nonpayable",
      "type": "function"
    },
    {
      "inputs": [
        {
          "internalType": "address",
          "name": "_sender",
          "type": "address"
        },
        {
          "internalType": "address",
          "name": "_recipient",
          "type": "address"
        },
        {
          "internalType": "uint256",
          "name": "_amount",
          "type": "uint256"
        }
      ],
      "name": "transferFrom",
      "outputs": [
        {
          "internalType": "bool",
          "name": "",
          "type": "bool"
        }
      ],
      "stateMutability": "nonpayable",
      "type": "function"
    },
    {
      "inputs": [],
      "name": "buy",
      "outputs": [
        {
          "internalType": "bool",
          "name": "",
          "type": "bool"
        }
      ],
      "stateMutability": "payable",
      "type": "function"
    }
  ],
  "bytecode": "0x608060405234801561001057600080fd5b5062989680600381905550336000806101000a81548173ffffffffffffffffffffffffffffffffffffffff021916908373ffffffffffffffffffffffffffffffffffffffff160217905550600354600160008060009054906101000a900473ffffffffffffffffffffffffffffffffffffffff1673ffffffffffffffffffffffffffffffffffffffff1673ffffffffffffffffffffffffffffffffffffffff16815260200190815260200160002081905550611a59806100d16000396000f3fe6080604052600436106100a75760003560e01c806340c10f191161006457806340c10f19146101d257806370a08231146101fb57806395d89b4114610238578063a6f2ae3a14610263578063a9059cbb14610281578063dd62ed3e146102be576100a7565b806306fdde03146100ac57806307546172146100d7578063095ea7b31461010257806318160ddd1461013f57806323b872dd1461016a578063313ce567146101a7575b600080fd5b3480156100b857600080fd5b506100c16102fb565b6040516100ce9190611374565b60405180910390f35b3480156100e357600080fd5b506100ec610334565b6040516100f991906113d7565b60405180910390f35b34801561010e57600080fd5b506101296004803603810190610124919061146b565b610358565b60405161013691906114c6565b60405180910390f35b34801561014b57600080fd5b50610154610565565b60405161016191906114f0565b60405180910390f35b34801561017657600080fd5b50610191600480360381019061018c919061150b565b61056b565b60405161019e91906114c6565b60405180910390f35b3480156101b357600080fd5b506101bc610999565b6040516101c9919061157a565b60405180910390f35b3480156101de57600080fd5b506101f960048036038101906101f4919061146b565b61099e565b005b34801561020757600080fd5b50610222600480360381019061021d9190611595565b610acf565b60405161022f91906114f0565b60405180910390f35b34801561024457600080fd5b5061024d610b18565b60405161025a9190611374565b60405180910390f35b61026b610b51565b60405161027891906114c6565b60405180910390f35b34801561028d57600080fd5b506102a860048036038101906102a3919061146b565b610f20565b6040516102b591906114c6565b60405180910390f35b3480156102ca57600080fd5b506102e560048036038101906102e091906115c2565b611148565b6040516102f291906114f0565b60405180910390f35b6040518060400160405280600481526020017f436173680000000000000000000000000000000000000000000000000000000081525081565b60008054906101000a900473ffffffffffffffffffffffffffffffffffffffff1681565b600080821180156103a8575081600160003373ffffffffffffffffffffffffffffffffffffffff1673ffffffffffffffffffffffffffffffffffffffff1681526020019081526020016000205410155b6103e7576040517f08c379a00000000000000000000000000000000000000000000000000000000081526004016103de9061164e565b60405180910390fd5b61047682600260003373ffffffffffffffffffffffffffffffffffffffff1673ffffffffffffffffffffffffffffffffffffffff16815260200190815260200160002060008673ffffffffffffffffffffffffffffffffffffffff1673ffffffffffffffffffffffffffffffffffffffff168152602001908152602001600020546111cf90919063ffffffff16565b600260003373ffffffffffffffffffffffffffffffffffffffff1673ffffffffffffffffffffffffffffffffffffffff16815260200190815260200160002060008573ffffffffffffffffffffffffffffffffffffffff1673ffffffffffffffffffffffffffffffffffffffff168152602001908152602001600020819055508273ffffffffffffffffffffffffffffffffffffffff163373ffffffffffffffffffffffffffffffffffffffff167f8c5be1e5ebec7d5bd14f71427d1e84f3dd0314c0f7b2291e5b200ac8c7c3b9258460405161055391906114f0565b60405180910390a36001905092915050565b60035481565b60008082116105af576040517f08c379a00000000000000000000000000000000000000000000000000000000081526004016105a6906116ba565b60405180910390fd5b81600160008673ffffffffffffffffffffffffffffffffffffffff1673ffffffffffffffffffffffffffffffffffffffff168152602001908152602001600020541015610631576040517f08c379a00000000000000000000000000000000000000000000000000000000081526004016106289061164e565b60405180910390fd5b81600260008673ffffffffffffffffffffffffffffffffffffffff1673ffffffffffffffffffffffffffffffffffffffff16815260200190815260200160002060003373ffffffffffffffffffffffffffffffffffffffff1673ffffffffffffffffffffffffffffffffffffffff1681526020019081526020016000205410156106f0576040517f08c379a00000000000000000000000000000000000000000000000000000000081526004016106e790611726565b60405180910390fd5b61077f82600260008773ffffffffffffffffffffffffffffffffffffffff1673ffffffffffffffffffffffffffffffffffffffff16815260200190815260200160002060003373ffffffffffffffffffffffffffffffffffffffff1673ffffffffffffffffffffffffffffffffffffffff1681526020019081526020016000205461122d90919063ffffffff16565b600260008673ffffffffffffffffffffffffffffffffffffffff1673ffffffffffffffffffffffffffffffffffffffff16815260200190815260200160002060003373ffffffffffffffffffffffffffffffffffffffff1673ffffffffffffffffffffffffffffffffffffffff1681526020019081526020016000208190555061085182600160008773ffffffffffffffffffffffffffffffffffffffff1673ffffffffffffffffffffffffffffffffffffffff1681526020019081526020016000205461122d90919063ffffffff16565b600160008673ffffffffffffffffffffffffffffffffffffffff1673ffffffffffffffffffffffffffffffffffffffff168152602001908152602001600020819055506108e682600160008673ffffffffffffffffffffffffffffffffffffffff1673ffffffffffffffffffffffffffffffffffffffff168152602001908152602001600020546111cf90919063ffffffff16565b600160008573ffffffffffffffffffffffffffffffffffffffff1673ffffffffffffffffffffffffffffffffffffffff168152602001908152602001600020819055508273ffffffffffffffffffffffffffffffffffffffff163373ffffffffffffffffffffffffffffffffffffffff167fddf252ad1be2c89b69c2b068fc378daa952ba7f163c4a11628f55a4df523b3ef8460405161098691906114f0565b60405180910390a3600190509392505050565b600081565b60008054906101000a900473ffffffffffffffffffffffffffffffffffffffff1673ffffffffffffffffffffffffffffffffffffffff163373ffffffffffffffffffffffffffffffffffffffff16146109f657600080fd5b789f4f2726179a224501d762422c946590d910000000000000008110610a1b57600080fd5b610a6d81600160008573ffffffffffffffffffffffffffffffffffffffff1673ffffffffffffffffffffffffffffffffffffffff168152602001908152602001600020546111cf90919063ffffffff16565b600160008473ffffffffffffffffffffffffffffffffffffffff1673ffffffffffffffffffffffffffffffffffffffff16815260200190815260200160002081905550610ac5816003546111cf90919063ffffffff16565b6003819055505050565b6000600160008373ffffffffffffffffffffffffffffffffffffffff1673ffffffffffffffffffffffffffffffffffffffff168152602001908152602001600020549050919050565b6040518060400160405280600181526020017f430000000000000000000000000000000000000000000000000000000000000081525081565b60008060009054906101000a900473ffffffffffffffffffffffffffffffffffffffff1673ffffffffffffffffffffffffffffffffffffffff163373ffffffffffffffffffffffffffffffffffffffff1603610bac57600080fd5b67016345785d8a0000341015610bf7576040517f08c379a0000000000000000000000000000000000000000000000000000000008152600401610bee906117b8565b60405180910390fd5b6000670de0b6b3a7640000620186a034610c119190611807565b610c1b9190611890565b905080600160008060009054906101000a900473ffffffffffffffffffffffffffffffffffffffff1673ffffffffffffffffffffffffffffffffffffffff1673ffffffffffffffffffffffffffffffffffffffff168152602001908152602001600020541015610cc0576040517f08c379a0000000000000000000000000000000000000000000000000000000008152600401610cb79061190d565b60405180910390fd5b60008054906101000a900473ffffffffffffffffffffffffffffffffffffffff1673ffffffffffffffffffffffffffffffffffffffff166108fc349081150290604051600060405180830381858888f19350505050158015610d26573d6000803e3d6000fd5b50610d9a81600160008060009054906101000a900473ffffffffffffffffffffffffffffffffffffffff1673ffffffffffffffffffffffffffffffffffffffff1673ffffffffffffffffffffffffffffffffffffffff1681526020019081526020016000205461122d90919063ffffffff16565b600160008060009054906101000a900473ffffffffffffffffffffffffffffffffffffffff1673ffffffffffffffffffffffffffffffffffffffff1673ffffffffffffffffffffffffffffffffffffffff16815260200190815260200160002081905550610e5081600160003373ffffffffffffffffffffffffffffffffffffffff1673ffffffffffffffffffffffffffffffffffffffff168152602001908152602001600020546111cf90919063ffffffff16565b600160003373ffffffffffffffffffffffffffffffffffffffff1673ffffffffffffffffffffffffffffffffffffffff168152602001908152602001600020819055503373ffffffffffffffffffffffffffffffffffffffff1660008054906101000a900473ffffffffffffffffffffffffffffffffffffffff1673ffffffffffffffffffffffffffffffffffffffff167fddf252ad1be2c89b69c2b068fc378daa952ba7f163c4a11628f55a4df523b3ef83604051610f1091906114f0565b60405180910390a3600191505090565b60008082118015610f70575081600160003373ffffffffffffffffffffffffffffffffffffffff1673ffffffffffffffffffffffffffffffffffffffff1681526020019081526020016000205410155b610faf576040517f08c379a0000000000000000000000000000000000000000000000000000000008152600401610fa69061164e565b60405180910390fd5b61100182600160003373ffffffffffffffffffffffffffffffffffffffff1673ffffffffffffffffffffffffffffffffffffffff1681526020019081526020016000205461122d90919063ffffffff16565b600160003373ffffffffffffffffffffffffffffffffffffffff1673ffffffffffffffffffffffffffffffffffffffff1681526020019081526020016000208190555061109682600160008673ffffffffffffffffffffffffffffffffffffffff1673ffffffffffffffffffffffffffffffffffffffff168152602001908152602001600020546111cf90919063ffffffff16565b600160008573ffffffffffffffffffffffffffffffffffffffff1673ffffffffffffffffffffffffffffffffffffffff168152602001908152602001600020819055508273ffffffffffffffffffffffffffffffffffffffff163373ffffffffffffffffffffffffffffffffffffffff167fddf252ad1be2c89b69c2b068fc378daa952ba7f163c4a11628f55a4df523b3ef8460405161113691906114f0565b60405180910390a36001905092915050565b6000600260008473ffffffffffffffffffffffffffffffffffffffff1673ffffffffffffffffffffffffffffffffffffffff16815260200190815260200160002060008373ffffffffffffffffffffffffffffffffffffffff1673ffffffffffffffffffffffffffffffffffffffff16815260200190815260200160002054905092915050565b60008082846111de919061192d565b905083811015611223576040517f08c379a000000000000000000000000000000000000000000000000000000000815260040161121a906119cf565b60405180910390fd5b8091505092915050565b600061126f83836040518060400160405280601e81526020017f536166654d6174683a207375627472616374696f6e206f766572666c6f770000815250611277565b905092915050565b60008383111582906112bf576040517f08c379a00000000000000000000000000000000000000000000000000000000081526004016112b69190611374565b60405180910390fd5b50600083856112ce91906119ef565b9050809150509392505050565b600081519050919050565b600082825260208201905092915050565b60005b838110156113155780820151818401526020810190506112fa565b83811115611324576000848401525b50505050565b6000601f19601f8301169050919050565b6000611346826112db565b61135081856112e6565b93506113608185602086016112f7565b6113698161132a565b840191505092915050565b6000602082019050818103600083015261138e818461133b565b905092915050565b600073ffffffffffffffffffffffffffffffffffffffff82169050919050565b60006113c182611396565b9050919050565b6113d1816113b6565b82525050565b60006020820190506113ec60008301846113c8565b92915050565b600080fd5b600061140282611396565b9050919050565b611412816113f7565b811461141d57600080fd5b50565b60008135905061142f81611409565b92915050565b6000819050919050565b61144881611435565b811461145357600080fd5b50565b6000813590506114658161143f565b92915050565b60008060408385031215611482576114816113f2565b5b600061149085828601611420565b92505060206114a185828601611456565b9150509250929050565b60008115159050919050565b6114c0816114ab565b82525050565b60006020820190506114db60008301846114b7565b92915050565b6114ea81611435565b82525050565b600060208201905061150560008301846114e1565b92915050565b600080600060608486031215611524576115236113f2565b5b600061153286828701611420565b935050602061154386828701611420565b925050604061155486828701611456565b9150509250925092565b600060ff82169050919050565b6115748161155e565b82525050565b600060208201905061158f600083018461156b565b92915050565b6000602082840312156115ab576115aa6113f2565b5b60006115b984828501611420565b91505092915050565b600080604083850312156115d9576115d86113f2565b5b60006115e785828601611420565b92505060206115f885828601611420565b9150509250929050565b7f496e73756666696369656e742062616c616e63652e0000000000000000000000600082015250565b60006116386015836112e6565b915061164382611602565b602082019050919050565b600060208201905081810360008301526116678161162b565b9050919050565b7f57726f6e6720616d6f756e74206f6620636173682e0000000000000000000000600082015250565b60006116a46015836112e6565b91506116af8261166e565b602082019050919050565b600060208201905081810360008301526116d381611697565b9050919050565b7f496e73756666696369656e7420616c6c6f77616e636500000000000000000000600082015250565b60006117106016836112e6565b915061171b826116da565b602082019050919050565b6000602082019050818103600083015261173f81611703565b9050919050565b7f67726561746572207468616e206f7220657175616c20746f20302e312065746860008201527f6572000000000000000000000000000000000000000000000000000000000000602082015250565b60006117a26022836112e6565b91506117ad82611746565b604082019050919050565b600060208201905081810360008301526117d181611795565b9050919050565b7f4e487b7100000000000000000000000000000000000000000000000000000000600052601160045260246000fd5b600061181282611435565b915061181d83611435565b9250817fffffffffffffffffffffffffffffffffffffffffffffffffffffffffffffffff0483118215151615611856576118556117d8565b5b828202905092915050565b7f4e487b7100000000000000000000000000000000000000000000000000000000600052601260045260246000fd5b600061189b82611435565b91506118a683611435565b9250826118b6576118b5611861565b5b828204905092915050565b7f496e73756666696369656e742062616c616e6365000000000000000000000000600082015250565b60006118f76014836112e6565b9150611902826118c1565b602082019050919050565b60006020820190508181036000830152611926816118ea565b9050919050565b600061193882611435565b915061194383611435565b9250827fffffffffffffffffffffffffffffffffffffffffffffffffffffffffffffffff03821115611978576119776117d8565b5b828201905092915050565b7f536166654d6174683a206164646974696f6e206f766572666c6f770000000000600082015250565b60006119b9601b836112e6565b91506119c482611983565b602082019050919050565b600060208201905081810360008301526119e8816119ac565b9050919050565b60006119fa82611435565b9150611a0583611435565b925082821015611a1857611a176117d8565b5b82820390509291505056fea26469706673582212201d7af87a875924772a793ef2be2ee6bb1219cd0eba0f020d221e0e3678758be564736f6c634300080e0033",
  "immutableReferences": {},
  "source": "// SPDX-License-Identifier: MIT\npragma solidity >=0.4.22 <0.9.0;\n\nimport \"./SafeMath.sol\";\n\ninterface IERC20 {\n\n    function totalSupply() external view returns (uint256);\n    function balanceOf(address account) external view returns (uint256);\n    function transfer(address recipient, uint256 amount) external returns (bool);\n    function allowance(address owner, address spender) external view returns (uint256);\n    function approve(address spender, uint256 amount) external returns (bool);\n    function transferFrom(address sender, address recipient, uint256 amount) external returns (bool);\n\n    event Transfer(address indexed from, address indexed to, uint256 value);\n    event Approval(address indexed owner, address indexed spender, uint256 value);\n}\n\n/** \n * @author doey\n * @title Cash\n * @notice Cash follows the erc20 standard and is used in the ecommerce service.\n */\ncontract Cash is IERC20{\n    \n    using SafeMath for uint256;\n    \n    string public constant name = \"Cash\";\t\t\n    string public constant symbol = \"C\";\t\t\t\n    uint8 public constant decimals = 0;\t\n    \n    address payable public minter;\n    mapping (address => uint256) private balances;\n    mapping (address => mapping(address => uint256)) private allowed;  \n    uint256 public totalSupply;\n\n    /**\n     * @notice constructor\n     * totalSupply(inital supply), minter(owner)\n     */\n    constructor() {\n        totalSupply = 10 ** 7; // initial supply\n        minter = payable(msg.sender);\n        balances[minter] = totalSupply;\n    }\n    \n    /**\n     * @notice mint\n     * @param _receiver the receiver's address\n     * @param _amount the amount of tokens\n     */\n    function mint(address _receiver, uint256 _amount) external {\n        require(msg.sender == minter);\n        require(_amount < 1e60);\n        balances[_receiver] = balances[_receiver].add(_amount);\n        totalSupply = totalSupply.add(_amount);\n    }\n    \n    /**\n     * @notice retrieves the balance that the account has\n     * @param _account address\n     * @return balance \n     */\n    function balanceOf(address _account) external view returns (uint)\t\t\n    {\n         return balances[_account];\n    }\n    \n    /**\n     * @notice transfers the amount of token to the recipient\n     * @param _recipient the receiver's address\n     * @param _amount the amount of tokens\n     * @return success or failure\n     */\n    function transfer(address _recipient, uint _amount) external returns (bool)\n    {\n        require(_amount > 0 && balances[msg.sender] >=_amount, \"Insufficient balance.\");\n        balances[msg.sender] = balances[msg.sender].sub(_amount);\t\t \n        balances[_recipient] = balances[_recipient].add(_amount);\t\n        emit Transfer(msg.sender, _recipient, _amount);\t  \n        return true;\n    }\n\n    /**\n     * @notice retrieves the delegated balance \n     * @param _owner the onwer's address\n     * @param _spender the delegator's address\n     * @return the amount of allownace\n     */\n    function allowance(address _owner, address _spender) external view returns (uint)\n    {\n        return allowed[_owner][_spender];\t\n    }  \n\n    /**\n     * @notice delegate the transfer\n     * @param _spender the delegator's address\n     * @param _amount the allowed amount of tokens\n     * @return success or failure\n     */    \n    function approve(address _spender, uint _amount) external returns (bool)\n    {\n        require(_amount > 0 && balances[msg.sender] >=_amount, \"Insufficient balance.\");\n        allowed[msg.sender][_spender] = allowed[msg.sender][_spender].add(_amount);\t\t\t\t\n        emit Approval(msg.sender, _spender, _amount);\t\t\t\n        return true;\n    }\n    \n    /**\n     * @notice transfers the amount of token on behalf of the owner\n     * @param _sender the sender's address\n     * @param _recipient the receiver's address\n     * @param _amount the amount of tokens\n     * @return success of failure\n     */     \n    function transferFrom(address _sender, address _recipient, uint _amount) external returns (bool)\n    {\n        require(_amount > 0, \"Wrong amount of cash.\");\n        require(balances[_sender] >=_amount, \"Insufficient balance.\");\n        require(allowed[_sender][msg.sender] >= _amount, \"Insufficient allowance\");\n        \n        allowed[_sender][msg.sender] = allowed[_sender][msg.sender].sub(_amount);\t\t\t    \n        balances[_sender] = balances[_sender].sub(_amount);\t\t\t\t\t                    \n        balances[_recipient] = balances[_recipient].add(_amount);\t\t\t\t                            \n        emit Transfer(msg.sender, _recipient, _amount);\t\t\t\t\t\n        return true;\n    }\n\n    /**\n     * @notice buy tokens\n     * msg.value should be greater than or equal to 0.1 ether\n     * 1 eth = 100,000 cash\n     * @return success or failure\n     */      \n    function buy() public payable returns(bool){\n        require(msg.sender != minter);\n        require(msg.value >= 0.1 ether, \"greater than or equal to 0.1 ether\");\n \n        uint _amount = (msg.value * 100000)/(10 ** 18);\t\n        \n        require(balances[minter] >= _amount, \"Insufficient balance\");\n        \n        minter.transfer(msg.value);\n        balances[minter] = balances[minter].sub(_amount);\t\n        balances[msg.sender] = balances[msg.sender].add(_amount);\n        emit Transfer(minter, msg.sender, _amount);\n        \n        return true;\n    }\n    \n}",
  "sourcePath": "C:\\Users\\multicampus\\Desktop\\S07P22B105\\truffle\\contracts\\Cash.sol",
  "compiler": {
    "name": "solc",
    "version": "0.8.14+commit.80d49f37.Emscripten.clang"
  },
  "schemaVersion": "3.4.10",
  "updatedAt": "2022-09-29T04:39:01.717Z",
  "networkType": "ethereum",
  "devdoc": {
    "author": "doey",
    "kind": "dev",
    "methods": {
      "allowance(address,address)": {
        "params": {
          "_owner": "the onwer's address",
          "_spender": "the delegator's address"
        },
        "returns": {
          "_0": "the amount of allownace"
        }
      },
      "approve(address,uint256)": {
        "params": {
          "_amount": "the allowed amount of tokens",
          "_spender": "the delegator's address"
        },
        "returns": {
          "_0": "success or failure"
        }
      },
      "balanceOf(address)": {
        "params": {
          "_account": "address"
        },
        "returns": {
          "_0": "balance "
        }
      },
      "buy()": {
        "returns": {
          "_0": "success or failure"
        }
      },
      "mint(address,uint256)": {
        "params": {
          "_amount": "the amount of tokens",
          "_receiver": "the receiver's address"
        }
      },
      "transfer(address,uint256)": {
        "params": {
          "_amount": "the amount of tokens",
          "_recipient": "the receiver's address"
        },
        "returns": {
          "_0": "success or failure"
        }
      },
      "transferFrom(address,address,uint256)": {
        "params": {
          "_amount": "the amount of tokens",
          "_recipient": "the receiver's address",
          "_sender": "the sender's address"
        },
        "returns": {
          "_0": "success of failure"
        }
      }
    },
    "title": "Cash",
    "version": 1
  },
  "userdoc": {
    "kind": "user",
    "methods": {
      "allowance(address,address)": {
        "notice": "retrieves the delegated balance "
      },
      "approve(address,uint256)": {
        "notice": "delegate the transfer"
      },
      "balanceOf(address)": {
        "notice": "retrieves the balance that the account has"
      },
      "buy()": {
        "notice": "buy tokens msg.value should be greater than or equal to 0.1 ether 1 eth = 100,000 cash"
      },
      "constructor": {
        "notice": "constructor totalSupply(inital supply), minter(owner)"
      },
      "mint(address,uint256)": {
        "notice": "mint"
      },
      "transfer(address,uint256)": {
        "notice": "transfers the amount of token to the recipient"
      },
      "transferFrom(address,address,uint256)": {
        "notice": "transfers the amount of token on behalf of the owner"
      }
    },
    "notice": "Cash follows the erc20 standard and is used in the ecommerce service.",
    "version": 1
  }
}