{
  "contractName": "Escrow",
  "abi": [
    {
      "inputs": [
        {
          "internalType": "address",
          "name": "_contractAddress",
          "type": "address"
        },
        {
          "internalType": "address",
          "name": "_purchaseRecordAddress",
          "type": "address"
        },
        {
          "internalType": "uint32",
          "name": "_itemId",
          "type": "uint32"
        },
        {
          "internalType": "address",
          "name": "_seller",
          "type": "address"
        },
        {
          "internalType": "address",
          "name": "_buyer",
          "type": "address"
        },
        {
          "internalType": "uint32",
          "name": "_price",
          "type": "uint32"
        }
      ],
      "stateMutability": "nonpayable",
      "type": "constructor"
    },
    {
      "inputs": [],
      "name": "buyer",
      "outputs": [
        {
          "internalType": "address",
          "name": "",
          "type": "address"
        }
      ],
      "stateMutability": "view",
      "type": "function"
    },
    {
      "inputs": [],
      "name": "cashContract",
      "outputs": [
        {
          "internalType": "contract CashInterface",
          "name": "",
          "type": "address"
        }
      ],
      "stateMutability": "view",
      "type": "function"
    },
    {
      "inputs": [],
      "name": "completeAt",
      "outputs": [
        {
          "internalType": "uint256",
          "name": "",
          "type": "uint256"
        }
      ],
      "stateMutability": "view",
      "type": "function"
    },
    {
      "inputs": [],
      "name": "itemId",
      "outputs": [
        {
          "internalType": "uint32",
          "name": "",
          "type": "uint32"
        }
      ],
      "stateMutability": "view",
      "type": "function"
    },
    {
      "inputs": [],
      "name": "price",
      "outputs": [
        {
          "internalType": "uint32",
          "name": "",
          "type": "uint32"
        }
      ],
      "stateMutability": "view",
      "type": "function"
    },
    {
      "inputs": [],
      "name": "purchaseRecordContract",
      "outputs": [
        {
          "internalType": "contract PurchaseRecordInterface",
          "name": "",
          "type": "address"
        }
      ],
      "stateMutability": "view",
      "type": "function"
    },
    {
      "inputs": [],
      "name": "purchaseRecordContractAddress",
      "outputs": [
        {
          "internalType": "address",
          "name": "",
          "type": "address"
        }
      ],
      "stateMutability": "view",
      "type": "function"
    },
    {
      "inputs": [],
      "name": "purchasedAt",
      "outputs": [
        {
          "internalType": "uint256",
          "name": "",
          "type": "uint256"
        }
      ],
      "stateMutability": "view",
      "type": "function"
    },
    {
      "inputs": [],
      "name": "seller",
      "outputs": [
        {
          "internalType": "address",
          "name": "",
          "type": "address"
        }
      ],
      "stateMutability": "view",
      "type": "function"
    },
    {
      "inputs": [],
      "name": "state",
      "outputs": [
        {
          "internalType": "enum Escrow.State",
          "name": "",
          "type": "uint8"
        }
      ],
      "stateMutability": "view",
      "type": "function"
    },
    {
      "inputs": [],
      "name": "checkDeposit",
      "outputs": [
        {
          "internalType": "bool",
          "name": "",
          "type": "bool"
        }
      ],
      "stateMutability": "nonpayable",
      "type": "function"
    },
    {
      "inputs": [],
      "name": "send",
      "outputs": [],
      "stateMutability": "nonpayable",
      "type": "function"
    },
    {
      "inputs": [],
      "name": "cancel",
      "outputs": [],
      "stateMutability": "nonpayable",
      "type": "function"
    },
    {
      "inputs": [],
      "name": "confirm",
      "outputs": [
        {
          "internalType": "bool",
          "name": "",
          "type": "bool"
        }
      ],
      "stateMutability": "nonpayable",
      "type": "function"
    }
  ],
  "bytecode": "0x60806040523480156200001157600080fd5b5060405162001879380380620018798339818101604052810190620000379190620003b1565b856000806101000a81548173ffffffffffffffffffffffffffffffffffffffff021916908373ffffffffffffffffffffffffffffffffffffffff16021790555084600160006101000a81548173ffffffffffffffffffffffffffffffffffffffff021916908373ffffffffffffffffffffffffffffffffffffffff16021790555084600260006101000a81548173ffffffffffffffffffffffffffffffffffffffff021916908373ffffffffffffffffffffffffffffffffffffffff16021790555083600260146101000a81548163ffffffff021916908363ffffffff16021790555082600360006101000a81548173ffffffffffffffffffffffffffffffffffffffff021916908373ffffffffffffffffffffffffffffffffffffffff16021790555081600460006101000a81548173ffffffffffffffffffffffffffffffffffffffff021916908373ffffffffffffffffffffffffffffffffffffffff16021790555080600460146101000a81548163ffffffff021916908363ffffffff1602179055504260058190555060008054906101000a900473ffffffffffffffffffffffffffffffffffffffff1673ffffffffffffffffffffffffffffffffffffffff166370a08231306040518263ffffffff1660e01b81526004016200021f91906200045e565b602060405180830381865afa1580156200023d573d6000803e3d6000fd5b505050506040513d601f19601f82011682018060405250810190620002639190620004b6565b600681905550600260009054906101000a900473ffffffffffffffffffffffffffffffffffffffff1673ffffffffffffffffffffffffffffffffffffffff1663517807e4306040518263ffffffff1660e01b8152600401620002c691906200045e565b600060405180830381600087803b158015620002e157600080fd5b505af1158015620002f6573d6000803e3d6000fd5b50505050505050505050620004e8565b600080fd5b600073ffffffffffffffffffffffffffffffffffffffff82169050919050565b600062000338826200030b565b9050919050565b6200034a816200032b565b81146200035657600080fd5b50565b6000815190506200036a816200033f565b92915050565b600063ffffffff82169050919050565b6200038b8162000370565b81146200039757600080fd5b50565b600081519050620003ab8162000380565b92915050565b60008060008060008060c08789031215620003d157620003d062000306565b5b6000620003e189828a0162000359565b9650506020620003f489828a0162000359565b95505060406200040789828a016200039a565b94505060606200041a89828a0162000359565b93505060806200042d89828a0162000359565b92505060a06200044089828a016200039a565b9150509295509295509295565b62000458816200032b565b82525050565b60006020820190506200047560008301846200044d565b92915050565b6000819050919050565b62000490816200047b565b81146200049c57600080fd5b50565b600081519050620004b08162000485565b92915050565b600060208284031215620004cf57620004ce62000306565b5b6000620004df848285016200049f565b91505092915050565b61138180620004f86000396000f3fe608060405234801561001057600080fd5b50600436106100ea5760003560e01c806380e41ac11161008c578063b8f0994211610066578063b8f0994214610207578063c19d93fb14610225578063ca6158cb14610243578063ea8a1af014610261576100ea565b806380e41ac1146101c1578063a035b1fe146101df578063b46300ec146101fd576100ea565b806357c4b262116100c857806357c4b262146101495780636177a9f8146101675780637022b58e146101855780637150d8ae146101a3576100ea565b806308551a53146100ef5780634c4cea5a1461010d57806355be04ad1461012b575b600080fd5b6100f761026b565b6040516101049190610eca565b60405180910390f35b610115610291565b6040516101229190610efe565b60405180910390f35b610133610297565b6040516101409190610f34565b60405180910390f35b61015161049e565b60405161015e9190610efe565b60405180910390f35b61016f6104a4565b60405161017c9190610fae565b60405180910390f35b61018d6104ca565b60405161019a9190610f34565b60405180910390f35b6101ab610883565b6040516101b89190610eca565b60405180910390f35b6101c96108a9565b6040516101d69190610fea565b60405180910390f35b6101e76108cd565b6040516101f49190611024565b60405180910390f35b6102056108e3565b005b61020f610a37565b60405161021c9190610eca565b60405180910390f35b61022d610a5d565b60405161023a91906110b6565b60405180910390f35b61024b610a70565b6040516102589190611024565b60405180910390f35b610269610a86565b005b600360009054906101000a900473ffffffffffffffffffffffffffffffffffffffff1681565b60075481565b60008060048111156102ac576102ab61103f565b5b600460189054906101000a900460ff1660048111156102ce576102cd61103f565b5b146102d857600080fd5b60008060009054906101000a900473ffffffffffffffffffffffffffffffffffffffff1673ffffffffffffffffffffffffffffffffffffffff166370a08231306040518263ffffffff1660e01b81526004016103349190610eca565b602060405180830381865afa158015610351573d6000803e3d6000fd5b505050506040513d601f19601f820116820180604052508101906103759190611102565b90506014600460149054906101000a900463ffffffff16610396919061115e565b63ffffffff168110156103de576040517f08c379a00000000000000000000000000000000000000000000000000000000081526004016103d59061121b565b60405180910390fd5b6001600460186101000a81548160ff021916908360048111156104045761040361103f565b5b0217905550600260009054906101000a900473ffffffffffffffffffffffffffffffffffffffff1673ffffffffffffffffffffffffffffffffffffffff16636452fca1306040518263ffffffff1660e01b81526004016104649190610eca565b600060405180830381600087803b15801561047e57600080fd5b505af1158015610492573d6000803e3d6000fd5b50505050600191505090565b60055481565b600260009054906101000a900473ffffffffffffffffffffffffffffffffffffffff1681565b6000600460009054906101000a900473ffffffffffffffffffffffffffffffffffffffff1673ffffffffffffffffffffffffffffffffffffffff163373ffffffffffffffffffffffffffffffffffffffff161461052657600080fd5b6002600481111561053a5761053961103f565b5b600460189054906101000a900460ff16600481111561055c5761055b61103f565b5b1461056657600080fd5b60008060009054906101000a900473ffffffffffffffffffffffffffffffffffffffff1673ffffffffffffffffffffffffffffffffffffffff166370a08231306040518263ffffffff1660e01b81526004016105c29190610eca565b602060405180830381865afa1580156105df573d6000803e3d6000fd5b505050506040513d601f19601f820116820180604052508101906106039190611102565b905060008054906101000a900473ffffffffffffffffffffffffffffffffffffffff1673ffffffffffffffffffffffffffffffffffffffff1663a9059cbb600360009054906101000a900473ffffffffffffffffffffffffffffffffffffffff16600460149054906101000a900463ffffffff166040518363ffffffff1660e01b815260040161069492919061126c565b6020604051808303816000875af11580156106b3573d6000803e3d6000fd5b505050506040513d601f19601f820116820180604052508101906106d791906112c1565b5060008054906101000a900473ffffffffffffffffffffffffffffffffffffffff1673ffffffffffffffffffffffffffffffffffffffff1663a9059cbb600460009054906101000a900473ffffffffffffffffffffffffffffffffffffffff16600460149054906101000a900463ffffffff1663ffffffff168461075b91906112ee565b6040518363ffffffff1660e01b8152600401610778929190611322565b6020604051808303816000875af1158015610797573d6000803e3d6000fd5b505050506040513d601f19601f820116820180604052508101906107bb91906112c1565b506003600460186101000a81548160ff021916908360048111156107e2576107e161103f565b5b021790555042600781905550600260009054906101000a900473ffffffffffffffffffffffffffffffffffffffff1673ffffffffffffffffffffffffffffffffffffffff166312ad9f6e306040518263ffffffff1660e01b81526004016108499190610eca565b600060405180830381600087803b15801561086357600080fd5b505af1158015610877573d6000803e3d6000fd5b50505050600191505090565b600460009054906101000a900473ffffffffffffffffffffffffffffffffffffffff1681565b60008054906101000a900473ffffffffffffffffffffffffffffffffffffffff1681565b600460149054906101000a900463ffffffff1681565b600360009054906101000a900473ffffffffffffffffffffffffffffffffffffffff1673ffffffffffffffffffffffffffffffffffffffff163373ffffffffffffffffffffffffffffffffffffffff161461093d57600080fd5b600160048111156109515761095061103f565b5b600460189054906101000a900460ff1660048111156109735761097261103f565b5b1461097d57600080fd5b6002600460186101000a81548160ff021916908360048111156109a3576109a261103f565b5b0217905550600260009054906101000a900473ffffffffffffffffffffffffffffffffffffffff1673ffffffffffffffffffffffffffffffffffffffff16638ff06ab7306040518263ffffffff1660e01b8152600401610a039190610eca565b600060405180830381600087803b158015610a1d57600080fd5b505af1158015610a31573d6000803e3d6000fd5b50505050565b600160009054906101000a900473ffffffffffffffffffffffffffffffffffffffff1681565b600460189054906101000a900460ff1681565b600260149054906101000a900463ffffffff1681565b600360009054906101000a900473ffffffffffffffffffffffffffffffffffffffff1673ffffffffffffffffffffffffffffffffffffffff163373ffffffffffffffffffffffffffffffffffffffff161480610b2f5750600460009054906101000a900473ffffffffffffffffffffffffffffffffffffffff1673ffffffffffffffffffffffffffffffffffffffff163373ffffffffffffffffffffffffffffffffffffffff16145b610b3857600080fd5b60006004811115610b4c57610b4b61103f565b5b600460189054906101000a900460ff166004811115610b6e57610b6d61103f565b5b1480610bad575060016004811115610b8957610b8861103f565b5b600460189054906101000a900460ff166004811115610bab57610baa61103f565b5b145b610bb657600080fd5b60008060009054906101000a900473ffffffffffffffffffffffffffffffffffffffff1673ffffffffffffffffffffffffffffffffffffffff166370a08231306040518263ffffffff1660e01b8152600401610c129190610eca565b602060405180830381865afa158015610c2f573d6000803e3d6000fd5b505050506040513d601f19601f82011682018060405250810190610c539190611102565b90506014600460149054906101000a900463ffffffff16610c74919061115e565b63ffffffff168110610dcf5760008054906101000a900473ffffffffffffffffffffffffffffffffffffffff1673ffffffffffffffffffffffffffffffffffffffff1663a9059cbb600460009054906101000a900473ffffffffffffffffffffffffffffffffffffffff16836040518363ffffffff1660e01b8152600401610cfd929190611322565b6020604051808303816000875af1158015610d1c573d6000803e3d6000fd5b505050506040513d601f19601f82011682018060405250810190610d4091906112c1565b50600260009054906101000a900473ffffffffffffffffffffffffffffffffffffffff1673ffffffffffffffffffffffffffffffffffffffff1663fa89401a306040518263ffffffff1660e01b8152600401610d9c9190610eca565b600060405180830381600087803b158015610db657600080fd5b505af1158015610dca573d6000803e3d6000fd5b505050505b60048060186101000a81548160ff02191690836004811115610df457610df361103f565b5b0217905550600260009054906101000a900473ffffffffffffffffffffffffffffffffffffffff1673ffffffffffffffffffffffffffffffffffffffff166382b46df4306040518263ffffffff1660e01b8152600401610e549190610eca565b600060405180830381600087803b158015610e6e57600080fd5b505af1158015610e82573d6000803e3d6000fd5b5050505050565b600073ffffffffffffffffffffffffffffffffffffffff82169050919050565b6000610eb482610e89565b9050919050565b610ec481610ea9565b82525050565b6000602082019050610edf6000830184610ebb565b92915050565b6000819050919050565b610ef881610ee5565b82525050565b6000602082019050610f136000830184610eef565b92915050565b60008115159050919050565b610f2e81610f19565b82525050565b6000602082019050610f496000830184610f25565b92915050565b6000819050919050565b6000610f74610f6f610f6a84610e89565b610f4f565b610e89565b9050919050565b6000610f8682610f59565b9050919050565b6000610f9882610f7b565b9050919050565b610fa881610f8d565b82525050565b6000602082019050610fc36000830184610f9f565b92915050565b6000610fd482610f7b565b9050919050565b610fe481610fc9565b82525050565b6000602082019050610fff6000830184610fdb565b92915050565b600063ffffffff82169050919050565b61101e81611005565b82525050565b60006020820190506110396000830184611015565b92915050565b7f4e487b7100000000000000000000000000000000000000000000000000000000600052602160045260246000fd5b6005811061107f5761107e61103f565b5b50565b60008190506110908261106e565b919050565b60006110a082611082565b9050919050565b6110b081611095565b82525050565b60006020820190506110cb60008301846110a7565b92915050565b600080fd5b6110df81610ee5565b81146110ea57600080fd5b50565b6000815190506110fc816110d6565b92915050565b600060208284031215611118576111176110d1565b5b6000611126848285016110ed565b91505092915050565b7f4e487b7100000000000000000000000000000000000000000000000000000000600052601160045260246000fd5b600061116982611005565b915061117483611005565b92508263ffffffff0382111561118d5761118c61112f565b5b828201905092915050565b600082825260208201905092915050565b7f47726561746572207468616e206f7220657161756c7320746f2032302043617360008201527f68206e6563657373617279210000000000000000000000000000000000000000602082015250565b6000611205602c83611198565b9150611210826111a9565b604082019050919050565b60006020820190508181036000830152611234816111f8565b9050919050565b600061125661125161124c84611005565b610f4f565b610ee5565b9050919050565b6112668161123b565b82525050565b60006040820190506112816000830185610ebb565b61128e602083018461125d565b9392505050565b61129e81610f19565b81146112a957600080fd5b50565b6000815190506112bb81611295565b92915050565b6000602082840312156112d7576112d66110d1565b5b60006112e5848285016112ac565b91505092915050565b60006112f982610ee5565b915061130483610ee5565b9250828210156113175761131661112f565b5b828203905092915050565b60006040820190506113376000830185610ebb565b6113446020830184610eef565b939250505056fea2646970667358221220ccaf86dc65cf92ff33ffd40645b04e11dca2da042a01a6d1a8b79f0f3b8e9e4464736f6c634300080e0033",
  "immutableReferences": {},
  "source": "// SPDX-License-Identifier: MIT\npragma solidity >=0.4.22 <0.9.0;\n\nimport \"./Ownable.sol\";\nimport \"./PurchaseRecord.sol\";\n\n//        \ncontract EscrowFactory is Ownable{\n    \n    struct Item {\n        uint32 itemId;\n        uint32 price;\n        address seller;\n        uint256 registeredAt;\n        uint256 deletedAt;\n        bool available;\n    }\n    \n    event NewEscrow(address indexed seller, address indexed buyer, uint itemId, uint purchaseId, address _address);\n   \n    address public admin;\n    address public cashContractAddress; \n    address public purchaseRecordContractAddress;\n   \n    mapping (uint32 => Item) public items;\n    Escrow[] public escrows;\n    mapping (uint256 => Escrow) public purchaseIdToEscrow;\n    \n    //      \n    constructor() {\n        admin = msg.sender;\n    }\n    // \n    function setPaymentMethod(address _address) public onlyOwner {\n        cashContractAddress = _address;    \n    }\n    \n    function setPurchaseRecordContract(address _address) public onlyOwner {\n        purchaseRecordContractAddress = _address;\n    }\n    //  \n    function registerItem(uint32 itemId, uint32 price) public returns(uint32, uint32, address, uint256){\n        Item memory item = Item(itemId, price, msg.sender, block.timestamp, 0, true);\n        items[itemId] = item;\n        return (item.itemId,  item.price, item.seller, item.registeredAt);\n    }\n    //  \n    function purchaseItem(uint32 itemId) public returns(uint256){\n        Item memory item = items[itemId];\n        require(item.seller != msg.sender, \"Check buyer address\");\n        require(item.available == true, \"Item not available\");\n        \n        Escrow escrow = new Escrow(cashContractAddress, purchaseRecordContractAddress, itemId, item.seller, msg.sender, item.price);\n        escrows.push(escrow);\n        uint256 purchaseId = escrows.length;\n        purchaseIdToEscrow[purchaseId] = escrow;\n        \n        emit NewEscrow(item.seller, msg.sender, itemId, purchaseId, address(escrow));\n       \n        return purchaseId;  \n    }\n    \n    function deregisterItem(uint16 itemId) public returns(bool) {\n        Item storage item = items[itemId];\n        require(item.seller == msg.sender, \"Only seller can delete item.\");\n        \n        item.deletedAt = block.timestamp;\n        item.available = false;\n    \n        return true;\n    }\n}\n\nabstract contract CashInterface {\n  function balanceOf(address _addr) virtual external view returns (uint256 balance);\n  function transfer(address _to, uint256 _value) virtual external returns(bool success);\n  function transferFrom(address _from, address _to, uint256 _value) virtual external returns(bool success);\n  function approve(address _spender, uint256 _amount) virtual external returns (bool);\n}\n\n\n\ncontract Escrow {\n    \n    enum State {Purchased, Paid, Sent, Complete, Cancelled}\n\n    CashInterface public cashContract;\n    address public purchaseRecordContractAddress;\n    PurchaseRecordInterface public purchaseRecordContract;\n    \n    uint32 public itemId;\n    address public seller;\n    address public buyer;\n    uint32 public price;\n    State public state;\n    uint public purchasedAt;\n    uint private initialCash;\n    uint public completeAt;\n    \n    modifier onlySeller {\n        require(msg.sender == seller);\n        _;\n    }\n    \n     modifier onlyBuyer {\n        require(msg.sender == buyer);\n        _;\n    }\n    \n    constructor(\n        address _contractAddress, \n        address _purchaseRecordAddress,\n        uint32 _itemId, \n        address _seller, \n        address _buyer, \n        uint32 _price) {\n            \n        cashContract = CashInterface(_contractAddress);\n        purchaseRecordContractAddress = _purchaseRecordAddress;\n        purchaseRecordContract = PurchaseRecordInterface(_purchaseRecordAddress);\n        \n        // require(cashContract.balanceOf(_buyer) >= _price + 20, \"Insufficient Cash\");\n        \n        itemId = _itemId;\n        seller = _seller;\n        buyer = _buyer;\n        price = _price;\n        purchasedAt = block.timestamp;\n        initialCash = cashContract.balanceOf(address(this));\n        \n        purchaseRecordContract.addPurchase(address(this));\n    }\n    \n    function checkDeposit() public returns(bool) {\n        require(state == State.Purchased);\n        uint paid = cashContract.balanceOf(address(this));\n        require(paid >= price + 20, \"Greater than or eqauls to 20 Cash necessary!\");\n        state = State.Paid;  \n        purchaseRecordContract.confirmDeposit(address(this));\n        return true;\n    }\n    \n    function send() public onlySeller {\n        require(state == State.Paid);\n        state = State.Sent;\n        purchaseRecordContract.sendItem(address(this));\n    }\n    \n    function cancel() public {\n        require(msg.sender == seller || msg.sender == buyer);\n        require(state == State.Purchased || state == State.Paid);\n        uint paid = cashContract.balanceOf(address(this));\n        if( paid >= price + 20 ) {\n            cashContract.transfer(buyer, paid);\n            purchaseRecordContract.refund(address(this));\n        } \n        state = State.Cancelled;\n        purchaseRecordContract.cancelPurchase(address(this));\n    }\n    \n    function confirm() public onlyBuyer returns (bool){\n        require(state == State.Sent);\n        uint paid = cashContract.balanceOf(address(this));\n        cashContract.transfer(seller, price);\n        cashContract.transfer(buyer, paid - price);\n        state = State.Complete;\n        completeAt = block.timestamp;\n        purchaseRecordContract.confirmPurchase(address(this));\n        return true;\n    }\n    \n}",
  "sourcePath": "C:\\Users\\multicampus\\Desktop\\S07P22B105\\truffle\\contracts\\EscrowFactory.sol",
  "compiler": {
    "name": "solc",
    "version": "0.8.14+commit.80d49f37.Emscripten.clang"
  },
  "schemaVersion": "3.4.10",
  "updatedAt": "2022-09-29T04:38:04.820Z",
  "devdoc": {
    "kind": "dev",
    "methods": {},
    "version": 1
  },
  "userdoc": {
    "kind": "user",
    "methods": {},
    "version": 1
  }
}