{
  "contractName": "EscrowFactory",
  "abi": [
    {
      "inputs": [],
      "stateMutability": "nonpayable",
      "type": "constructor"
    },
    {
      "anonymous": false,
      "inputs": [
        {
          "indexed": true,
          "internalType": "address",
          "name": "seller",
          "type": "address"
        },
        {
          "indexed": true,
          "internalType": "address",
          "name": "buyer",
          "type": "address"
        },
        {
          "indexed": false,
          "internalType": "uint256",
          "name": "itemId",
          "type": "uint256"
        },
        {
          "indexed": false,
          "internalType": "uint256",
          "name": "purchaseId",
          "type": "uint256"
        },
        {
          "indexed": false,
          "internalType": "address",
          "name": "_address",
          "type": "address"
        }
      ],
      "name": "NewEscrow",
      "type": "event"
    },
    {
      "anonymous": false,
      "inputs": [
        {
          "indexed": true,
          "internalType": "address",
          "name": "previousOwner",
          "type": "address"
        },
        {
          "indexed": true,
          "internalType": "address",
          "name": "newOwner",
          "type": "address"
        }
      ],
      "name": "OwnershipTransferred",
      "type": "event"
    },
    {
      "inputs": [],
      "name": "admin",
      "outputs": [
        {
          "internalType": "address",
          "name": "",
          "type": "address"
        }
      ],
      "stateMutability": "view",
      "type": "function",
      "constant": true
    },
    {
      "inputs": [],
      "name": "cashContractAddress",
      "outputs": [
        {
          "internalType": "address",
          "name": "",
          "type": "address"
        }
      ],
      "stateMutability": "view",
      "type": "function",
      "constant": true
    },
    {
      "inputs": [
        {
          "internalType": "uint256",
          "name": "",
          "type": "uint256"
        }
      ],
      "name": "escrows",
      "outputs": [
        {
          "internalType": "contract Escrow",
          "name": "",
          "type": "address"
        }
      ],
      "stateMutability": "view",
      "type": "function",
      "constant": true
    },
    {
      "inputs": [
        {
          "internalType": "uint32",
          "name": "",
          "type": "uint32"
        }
      ],
      "name": "items",
      "outputs": [
        {
          "internalType": "uint32",
          "name": "itemId",
          "type": "uint32"
        },
        {
          "internalType": "uint32",
          "name": "price",
          "type": "uint32"
        },
        {
          "internalType": "address",
          "name": "seller",
          "type": "address"
        },
        {
          "internalType": "uint256",
          "name": "registeredAt",
          "type": "uint256"
        },
        {
          "internalType": "uint256",
          "name": "deletedAt",
          "type": "uint256"
        },
        {
          "internalType": "bool",
          "name": "available",
          "type": "bool"
        }
      ],
      "stateMutability": "view",
      "type": "function",
      "constant": true
    },
    {
      "inputs": [],
      "name": "owner",
      "outputs": [
        {
          "internalType": "address",
          "name": "",
          "type": "address"
        }
      ],
      "stateMutability": "view",
      "type": "function",
      "constant": true
    },
    {
      "inputs": [
        {
          "internalType": "uint256",
          "name": "",
          "type": "uint256"
        }
      ],
      "name": "purchaseIdToEscrow",
      "outputs": [
        {
          "internalType": "contract Escrow",
          "name": "",
          "type": "address"
        }
      ],
      "stateMutability": "view",
      "type": "function",
      "constant": true
    },
    {
      "inputs": [],
      "name": "purchaseRecordContractAddress",
      "outputs": [
        {
          "internalType": "address",
          "name": "",
          "type": "address"
        }
      ],
      "stateMutability": "view",
      "type": "function",
      "constant": true
    },
    {
      "inputs": [
        {
          "internalType": "address",
          "name": "newOwner",
          "type": "address"
        }
      ],
      "name": "transferOwnership",
      "outputs": [],
      "stateMutability": "nonpayable",
      "type": "function"
    },
    {
      "inputs": [
        {
          "internalType": "address",
          "name": "_address",
          "type": "address"
        }
      ],
      "name": "setPaymentMethod",
      "outputs": [],
      "stateMutability": "nonpayable",
      "type": "function"
    },
    {
      "inputs": [
        {
          "internalType": "address",
          "name": "_address",
          "type": "address"
        }
      ],
      "name": "setPurchaseRecordContract",
      "outputs": [],
      "stateMutability": "nonpayable",
      "type": "function"
    },
    {
      "inputs": [
        {
          "internalType": "uint32",
          "name": "itemId",
          "type": "uint32"
        },
        {
          "internalType": "uint32",
          "name": "price",
          "type": "uint32"
        }
      ],
      "name": "registerItem",
      "outputs": [
        {
          "internalType": "uint32",
          "name": "",
          "type": "uint32"
        },
        {
          "internalType": "uint32",
          "name": "",
          "type": "uint32"
        },
        {
          "internalType": "address",
          "name": "",
          "type": "address"
        },
        {
          "internalType": "uint256",
          "name": "",
          "type": "uint256"
        }
      ],
      "stateMutability": "nonpayable",
      "type": "function"
    },
    {
      "inputs": [
        {
          "internalType": "uint32",
          "name": "itemId",
          "type": "uint32"
        }
      ],
      "name": "purchaseItem",
      "outputs": [
        {
          "internalType": "uint256",
          "name": "",
          "type": "uint256"
        }
      ],
      "stateMutability": "nonpayable",
      "type": "function"
    },
    {
      "inputs": [
        {
          "internalType": "uint16",
          "name": "itemId",
          "type": "uint16"
        }
      ],
      "name": "deregisterItem",
      "outputs": [
        {
          "internalType": "bool",
          "name": "",
          "type": "bool"
        }
      ],
      "stateMutability": "nonpayable",
      "type": "function"
    }
  ],
  "bytecode": "0x608060405234801561001057600080fd5b50336000806101000a81548173ffffffffffffffffffffffffffffffffffffffff021916908373ffffffffffffffffffffffffffffffffffffffff16021790555033600160006101000a81548173ffffffffffffffffffffffffffffffffffffffff021916908373ffffffffffffffffffffffffffffffffffffffff160217905550612cb8806100a16000396000f3fe60806040523480156200001157600080fd5b5060043610620000e25760003560e01c80638da5cb5b1162000099578063c8f84cd6116200006f578063c8f84cd61462000268578063f2fde38b146200029e578063f851a44014620002be578063ffb5d23914620002e057620000e2565b80638da5cb5b1462000202578063b8f099421462000224578063c6438d02146200024657620000e2565b8063012f52ee14620000e75780633a25a924146200011d57806343701265146200015657806366676547146200018c5780636c466c4114620001c257806374910a8714620001e2575b600080fd5b620001056004803603810190620000ff919062000d78565b6200031b565b60405162000114919062000e35565b60405180910390f35b6200013b600480360381019062000135919062000e93565b6200035b565b6040516200014d949392919062000f21565b60405180910390f35b6200017460048036038101906200016e919062000fad565b620004ca565b60405162000183919062000ffc565b60405180910390f35b620001aa6004803603810190620001a4919062001019565b620005b1565b604051620001b991906200104b565b60405180910390f35b620001e06004803603810190620001da919062001099565b6200094e565b005b620002006004803603810190620001fa919062001099565b620009eb565b005b6200020c62000a88565b6040516200021b9190620010cb565b60405180910390f35b6200022e62000aac565b6040516200023d9190620010cb565b60405180910390f35b6200025062000ad2565b6040516200025f9190620010cb565b60405180910390f35b62000286600480360381019062000280919062000d78565b62000af8565b60405162000295919062000e35565b60405180910390f35b620002bc6004803603810190620002b6919062001099565b62000b2b565b005b620002c862000c7b565b604051620002d79190620010cb565b60405180910390f35b620002fe6004803603810190620002f8919062001019565b62000ca1565b6040516200031296959493929190620010e8565b60405180910390f35b600581815481106200032c57600080fd5b906000526020600020016000915054906101000a900473ffffffffffffffffffffffffffffffffffffffff1681565b60008060008060006040518060c001604052808863ffffffff1681526020018763ffffffff1681526020013373ffffffffffffffffffffffffffffffffffffffff1681526020014281526020016000815260200160011515815250905080600460008963ffffffff1663ffffffff16815260200190815260200160002060008201518160000160006101000a81548163ffffffff021916908363ffffffff16021790555060208201518160000160046101000a81548163ffffffff021916908363ffffffff16021790555060408201518160000160086101000a81548173ffffffffffffffffffffffffffffffffffffffff021916908373ffffffffffffffffffffffffffffffffffffffff160217905550606082015181600101556080820151816002015560a08201518160030160006101000a81548160ff021916908315150217905550905050806000015181602001518260400151836060015194509450945094505092959194509250565b600080600460008461ffff1663ffffffff16815260200190815260200160002090503373ffffffffffffffffffffffffffffffffffffffff168160000160089054906101000a900473ffffffffffffffffffffffffffffffffffffffff1673ffffffffffffffffffffffffffffffffffffffff161462000581576040517f08c379a00000000000000000000000000000000000000000000000000000000081526004016200057890620011b6565b60405180910390fd5b42816002018190555060008160030160006101000a81548160ff0219169083151502179055506001915050919050565b600080600460008463ffffffff1663ffffffff1681526020019081526020016000206040518060c00160405290816000820160009054906101000a900463ffffffff1663ffffffff1663ffffffff1681526020016000820160049054906101000a900463ffffffff1663ffffffff1663ffffffff1681526020016000820160089054906101000a900473ffffffffffffffffffffffffffffffffffffffff1673ffffffffffffffffffffffffffffffffffffffff1673ffffffffffffffffffffffffffffffffffffffff16815260200160018201548152602001600282015481526020016003820160009054906101000a900460ff16151515158152505090503373ffffffffffffffffffffffffffffffffffffffff16816040015173ffffffffffffffffffffffffffffffffffffffff160362000726576040517f08c379a00000000000000000000000000000000000000000000000000000000081526004016200071d9062001228565b60405180910390fd5b600115158160a0015115151462000774576040517f08c379a00000000000000000000000000000000000000000000000000000000081526004016200076b906200129a565b60405180910390fd5b6000600260009054906101000a900473ffffffffffffffffffffffffffffffffffffffff16600360009054906101000a900473ffffffffffffffffffffffffffffffffffffffff16858460400151338660200151604051620007d69062000d2a565b620007e796959493929190620012bc565b604051809103906000f08015801562000804573d6000803e3d6000fd5b5090506005819080600181540180825580915050600190039060005260206000200160009091909190916101000a81548173ffffffffffffffffffffffffffffffffffffffff021916908373ffffffffffffffffffffffffffffffffffffffff1602179055506000600160058054905062000880919062001358565b9050816006600083815260200190815260200160002060006101000a81548173ffffffffffffffffffffffffffffffffffffffff021916908373ffffffffffffffffffffffffffffffffffffffff1602179055503373ffffffffffffffffffffffffffffffffffffffff16836040015173ffffffffffffffffffffffffffffffffffffffff167faa2d605f5f6537bca132ac73803dc6247ef9bb84e742fe25e5e83d3dc5de28fa8784866040516200093b93929190620013cc565b60405180910390a3809350505050919050565b60008054906101000a900473ffffffffffffffffffffffffffffffffffffffff1673ffffffffffffffffffffffffffffffffffffffff163373ffffffffffffffffffffffffffffffffffffffff1614620009a757600080fd5b80600360006101000a81548173ffffffffffffffffffffffffffffffffffffffff021916908373ffffffffffffffffffffffffffffffffffffffff16021790555050565b60008054906101000a900473ffffffffffffffffffffffffffffffffffffffff1673ffffffffffffffffffffffffffffffffffffffff163373ffffffffffffffffffffffffffffffffffffffff161462000a4457600080fd5b80600260006101000a81548173ffffffffffffffffffffffffffffffffffffffff021916908373ffffffffffffffffffffffffffffffffffffffff16021790555050565b60008054906101000a900473ffffffffffffffffffffffffffffffffffffffff1681565b600360009054906101000a900473ffffffffffffffffffffffffffffffffffffffff1681565b600260009054906101000a900473ffffffffffffffffffffffffffffffffffffffff1681565b60066020528060005260406000206000915054906101000a900473ffffffffffffffffffffffffffffffffffffffff1681565b60008054906101000a900473ffffffffffffffffffffffffffffffffffffffff1673ffffffffffffffffffffffffffffffffffffffff163373ffffffffffffffffffffffffffffffffffffffff161462000b8457600080fd5b600073ffffffffffffffffffffffffffffffffffffffff168173ffffffffffffffffffffffffffffffffffffffff160362000bbe57600080fd5b8073ffffffffffffffffffffffffffffffffffffffff1660008054906101000a900473ffffffffffffffffffffffffffffffffffffffff1673ffffffffffffffffffffffffffffffffffffffff167f8be0079c531659141344cd1fd0a4f28419497f9722a3daafe3b4186f6b6457e060405160405180910390a3806000806101000a81548173ffffffffffffffffffffffffffffffffffffffff021916908373ffffffffffffffffffffffffffffffffffffffff16021790555050565b600160009054906101000a900473ffffffffffffffffffffffffffffffffffffffff1681565b60046020528060005260406000206000915090508060000160009054906101000a900463ffffffff16908060000160049054906101000a900463ffffffff16908060000160089054906101000a900473ffffffffffffffffffffffffffffffffffffffff16908060010154908060020154908060030160009054906101000a900460ff16905086565b611879806200140a83390190565b600080fd5b6000819050919050565b62000d528162000d3d565b811462000d5e57600080fd5b50565b60008135905062000d728162000d47565b92915050565b60006020828403121562000d915762000d9062000d38565b5b600062000da18482850162000d61565b91505092915050565b600073ffffffffffffffffffffffffffffffffffffffff82169050919050565b6000819050919050565b600062000df562000def62000de98462000daa565b62000dca565b62000daa565b9050919050565b600062000e098262000dd4565b9050919050565b600062000e1d8262000dfc565b9050919050565b62000e2f8162000e10565b82525050565b600060208201905062000e4c600083018462000e24565b92915050565b600063ffffffff82169050919050565b62000e6d8162000e52565b811462000e7957600080fd5b50565b60008135905062000e8d8162000e62565b92915050565b6000806040838503121562000ead5762000eac62000d38565b5b600062000ebd8582860162000e7c565b925050602062000ed08582860162000e7c565b9150509250929050565b62000ee58162000e52565b82525050565b600062000ef88262000daa565b9050919050565b62000f0a8162000eeb565b82525050565b62000f1b8162000d3d565b82525050565b600060808201905062000f38600083018762000eda565b62000f47602083018662000eda565b62000f56604083018562000eff565b62000f65606083018462000f10565b95945050505050565b600061ffff82169050919050565b62000f878162000f6e565b811462000f9357600080fd5b50565b60008135905062000fa78162000f7c565b92915050565b60006020828403121562000fc65762000fc562000d38565b5b600062000fd68482850162000f96565b91505092915050565b60008115159050919050565b62000ff68162000fdf565b82525050565b600060208201905062001013600083018462000feb565b92915050565b60006020828403121562001032576200103162000d38565b5b6000620010428482850162000e7c565b91505092915050565b600060208201905062001062600083018462000f10565b92915050565b620010738162000eeb565b81146200107f57600080fd5b50565b600081359050620010938162001068565b92915050565b600060208284031215620010b257620010b162000d38565b5b6000620010c28482850162001082565b91505092915050565b6000602082019050620010e2600083018462000eff565b92915050565b600060c082019050620010ff600083018962000eda565b6200110e602083018862000eda565b6200111d604083018762000eff565b6200112c606083018662000f10565b6200113b608083018562000f10565b6200114a60a083018462000feb565b979650505050505050565b600082825260208201905092915050565b7f4f6e6c792073656c6c65722063616e2064656c657465206974656d2e00000000600082015250565b60006200119e601c8362001155565b9150620011ab8262001166565b602082019050919050565b60006020820190508181036000830152620011d1816200118f565b9050919050565b7f436865636b206275796572206164647265737300000000000000000000000000600082015250565b60006200121060138362001155565b91506200121d82620011d8565b602082019050919050565b60006020820190508181036000830152620012438162001201565b9050919050565b7f4974656d206e6f7420617661696c61626c650000000000000000000000000000600082015250565b60006200128260128362001155565b91506200128f826200124a565b602082019050919050565b60006020820190508181036000830152620012b58162001273565b9050919050565b600060c082019050620012d3600083018962000eff565b620012e2602083018862000eff565b620012f1604083018762000eda565b62001300606083018662000eff565b6200130f608083018562000eff565b6200131e60a083018462000eda565b979650505050505050565b7f4e487b7100000000000000000000000000000000000000000000000000000000600052601160045260246000fd5b6000620013658262000d3d565b9150620013728362000d3d565b92508282101562001388576200138762001329565b5b828203905092915050565b6000620013b4620013ae620013a88462000e52565b62000dca565b62000d3d565b9050919050565b620013c68162001393565b82525050565b6000606082019050620013e36000830186620013bb565b620013f2602083018562000f10565b62001401604083018462000eff565b94935050505056fe60806040523480156200001157600080fd5b5060405162001879380380620018798339818101604052810190620000379190620003b1565b856000806101000a81548173ffffffffffffffffffffffffffffffffffffffff021916908373ffffffffffffffffffffffffffffffffffffffff16021790555084600160006101000a81548173ffffffffffffffffffffffffffffffffffffffff021916908373ffffffffffffffffffffffffffffffffffffffff16021790555084600260006101000a81548173ffffffffffffffffffffffffffffffffffffffff021916908373ffffffffffffffffffffffffffffffffffffffff16021790555083600260146101000a81548163ffffffff021916908363ffffffff16021790555082600360006101000a81548173ffffffffffffffffffffffffffffffffffffffff021916908373ffffffffffffffffffffffffffffffffffffffff16021790555081600460006101000a81548173ffffffffffffffffffffffffffffffffffffffff021916908373ffffffffffffffffffffffffffffffffffffffff16021790555080600460146101000a81548163ffffffff021916908363ffffffff1602179055504260058190555060008054906101000a900473ffffffffffffffffffffffffffffffffffffffff1673ffffffffffffffffffffffffffffffffffffffff166370a08231306040518263ffffffff1660e01b81526004016200021f91906200045e565b602060405180830381865afa1580156200023d573d6000803e3d6000fd5b505050506040513d601f19601f82011682018060405250810190620002639190620004b6565b600681905550600260009054906101000a900473ffffffffffffffffffffffffffffffffffffffff1673ffffffffffffffffffffffffffffffffffffffff1663517807e4306040518263ffffffff1660e01b8152600401620002c691906200045e565b600060405180830381600087803b158015620002e157600080fd5b505af1158015620002f6573d6000803e3d6000fd5b50505050505050505050620004e8565b600080fd5b600073ffffffffffffffffffffffffffffffffffffffff82169050919050565b600062000338826200030b565b9050919050565b6200034a816200032b565b81146200035657600080fd5b50565b6000815190506200036a816200033f565b92915050565b600063ffffffff82169050919050565b6200038b8162000370565b81146200039757600080fd5b50565b600081519050620003ab8162000380565b92915050565b60008060008060008060c08789031215620003d157620003d062000306565b5b6000620003e189828a0162000359565b9650506020620003f489828a0162000359565b95505060406200040789828a016200039a565b94505060606200041a89828a0162000359565b93505060806200042d89828a0162000359565b92505060a06200044089828a016200039a565b9150509295509295509295565b62000458816200032b565b82525050565b60006020820190506200047560008301846200044d565b92915050565b6000819050919050565b62000490816200047b565b81146200049c57600080fd5b50565b600081519050620004b08162000485565b92915050565b600060208284031215620004cf57620004ce62000306565b5b6000620004df848285016200049f565b91505092915050565b61138180620004f86000396000f3fe608060405234801561001057600080fd5b50600436106100ea5760003560e01c806380e41ac11161008c578063b8f0994211610066578063b8f0994214610207578063c19d93fb14610225578063ca6158cb14610243578063ea8a1af014610261576100ea565b806380e41ac1146101c1578063a035b1fe146101df578063b46300ec146101fd576100ea565b806357c4b262116100c857806357c4b262146101495780636177a9f8146101675780637022b58e146101855780637150d8ae146101a3576100ea565b806308551a53146100ef5780634c4cea5a1461010d57806355be04ad1461012b575b600080fd5b6100f761026b565b6040516101049190610eca565b60405180910390f35b610115610291565b6040516101229190610efe565b60405180910390f35b610133610297565b6040516101409190610f34565b60405180910390f35b61015161049e565b60405161015e9190610efe565b60405180910390f35b61016f6104a4565b60405161017c9190610fae565b60405180910390f35b61018d6104ca565b60405161019a9190610f34565b60405180910390f35b6101ab610883565b6040516101b89190610eca565b60405180910390f35b6101c96108a9565b6040516101d69190610fea565b60405180910390f35b6101e76108cd565b6040516101f49190611024565b60405180910390f35b6102056108e3565b005b61020f610a37565b60405161021c9190610eca565b60405180910390f35b61022d610a5d565b60405161023a91906110b6565b60405180910390f35b61024b610a70565b6040516102589190611024565b60405180910390f35b610269610a86565b005b600360009054906101000a900473ffffffffffffffffffffffffffffffffffffffff1681565b60075481565b60008060048111156102ac576102ab61103f565b5b600460189054906101000a900460ff1660048111156102ce576102cd61103f565b5b146102d857600080fd5b60008060009054906101000a900473ffffffffffffffffffffffffffffffffffffffff1673ffffffffffffffffffffffffffffffffffffffff166370a08231306040518263ffffffff1660e01b81526004016103349190610eca565b602060405180830381865afa158015610351573d6000803e3d6000fd5b505050506040513d601f19601f820116820180604052508101906103759190611102565b90506014600460149054906101000a900463ffffffff16610396919061115e565b63ffffffff168110156103de576040517f08c379a00000000000000000000000000000000000000000000000000000000081526004016103d59061121b565b60405180910390fd5b6001600460186101000a81548160ff021916908360048111156104045761040361103f565b5b0217905550600260009054906101000a900473ffffffffffffffffffffffffffffffffffffffff1673ffffffffffffffffffffffffffffffffffffffff16636452fca1306040518263ffffffff1660e01b81526004016104649190610eca565b600060405180830381600087803b15801561047e57600080fd5b505af1158015610492573d6000803e3d6000fd5b50505050600191505090565b60055481565b600260009054906101000a900473ffffffffffffffffffffffffffffffffffffffff1681565b6000600460009054906101000a900473ffffffffffffffffffffffffffffffffffffffff1673ffffffffffffffffffffffffffffffffffffffff163373ffffffffffffffffffffffffffffffffffffffff161461052657600080fd5b6002600481111561053a5761053961103f565b5b600460189054906101000a900460ff16600481111561055c5761055b61103f565b5b1461056657600080fd5b60008060009054906101000a900473ffffffffffffffffffffffffffffffffffffffff1673ffffffffffffffffffffffffffffffffffffffff166370a08231306040518263ffffffff1660e01b81526004016105c29190610eca565b602060405180830381865afa1580156105df573d6000803e3d6000fd5b505050506040513d601f19601f820116820180604052508101906106039190611102565b905060008054906101000a900473ffffffffffffffffffffffffffffffffffffffff1673ffffffffffffffffffffffffffffffffffffffff1663a9059cbb600360009054906101000a900473ffffffffffffffffffffffffffffffffffffffff16600460149054906101000a900463ffffffff166040518363ffffffff1660e01b815260040161069492919061126c565b6020604051808303816000875af11580156106b3573d6000803e3d6000fd5b505050506040513d601f19601f820116820180604052508101906106d791906112c1565b5060008054906101000a900473ffffffffffffffffffffffffffffffffffffffff1673ffffffffffffffffffffffffffffffffffffffff1663a9059cbb600460009054906101000a900473ffffffffffffffffffffffffffffffffffffffff16600460149054906101000a900463ffffffff1663ffffffff168461075b91906112ee565b6040518363ffffffff1660e01b8152600401610778929190611322565b6020604051808303816000875af1158015610797573d6000803e3d6000fd5b505050506040513d601f19601f820116820180604052508101906107bb91906112c1565b506003600460186101000a81548160ff021916908360048111156107e2576107e161103f565b5b021790555042600781905550600260009054906101000a900473ffffffffffffffffffffffffffffffffffffffff1673ffffffffffffffffffffffffffffffffffffffff166312ad9f6e306040518263ffffffff1660e01b81526004016108499190610eca565b600060405180830381600087803b15801561086357600080fd5b505af1158015610877573d6000803e3d6000fd5b50505050600191505090565b600460009054906101000a900473ffffffffffffffffffffffffffffffffffffffff1681565b60008054906101000a900473ffffffffffffffffffffffffffffffffffffffff1681565b600460149054906101000a900463ffffffff1681565b600360009054906101000a900473ffffffffffffffffffffffffffffffffffffffff1673ffffffffffffffffffffffffffffffffffffffff163373ffffffffffffffffffffffffffffffffffffffff161461093d57600080fd5b600160048111156109515761095061103f565b5b600460189054906101000a900460ff1660048111156109735761097261103f565b5b1461097d57600080fd5b6002600460186101000a81548160ff021916908360048111156109a3576109a261103f565b5b0217905550600260009054906101000a900473ffffffffffffffffffffffffffffffffffffffff1673ffffffffffffffffffffffffffffffffffffffff16638ff06ab7306040518263ffffffff1660e01b8152600401610a039190610eca565b600060405180830381600087803b158015610a1d57600080fd5b505af1158015610a31573d6000803e3d6000fd5b50505050565b600160009054906101000a900473ffffffffffffffffffffffffffffffffffffffff1681565b600460189054906101000a900460ff1681565b600260149054906101000a900463ffffffff1681565b600360009054906101000a900473ffffffffffffffffffffffffffffffffffffffff1673ffffffffffffffffffffffffffffffffffffffff163373ffffffffffffffffffffffffffffffffffffffff161480610b2f5750600460009054906101000a900473ffffffffffffffffffffffffffffffffffffffff1673ffffffffffffffffffffffffffffffffffffffff163373ffffffffffffffffffffffffffffffffffffffff16145b610b3857600080fd5b60006004811115610b4c57610b4b61103f565b5b600460189054906101000a900460ff166004811115610b6e57610b6d61103f565b5b1480610bad575060016004811115610b8957610b8861103f565b5b600460189054906101000a900460ff166004811115610bab57610baa61103f565b5b145b610bb657600080fd5b60008060009054906101000a900473ffffffffffffffffffffffffffffffffffffffff1673ffffffffffffffffffffffffffffffffffffffff166370a08231306040518263ffffffff1660e01b8152600401610c129190610eca565b602060405180830381865afa158015610c2f573d6000803e3d6000fd5b505050506040513d601f19601f82011682018060405250810190610c539190611102565b90506014600460149054906101000a900463ffffffff16610c74919061115e565b63ffffffff168110610dcf5760008054906101000a900473ffffffffffffffffffffffffffffffffffffffff1673ffffffffffffffffffffffffffffffffffffffff1663a9059cbb600460009054906101000a900473ffffffffffffffffffffffffffffffffffffffff16836040518363ffffffff1660e01b8152600401610cfd929190611322565b6020604051808303816000875af1158015610d1c573d6000803e3d6000fd5b505050506040513d601f19601f82011682018060405250810190610d4091906112c1565b50600260009054906101000a900473ffffffffffffffffffffffffffffffffffffffff1673ffffffffffffffffffffffffffffffffffffffff1663fa89401a306040518263ffffffff1660e01b8152600401610d9c9190610eca565b600060405180830381600087803b158015610db657600080fd5b505af1158015610dca573d6000803e3d6000fd5b505050505b60048060186101000a81548160ff02191690836004811115610df457610df361103f565b5b0217905550600260009054906101000a900473ffffffffffffffffffffffffffffffffffffffff1673ffffffffffffffffffffffffffffffffffffffff166382b46df4306040518263ffffffff1660e01b8152600401610e549190610eca565b600060405180830381600087803b158015610e6e57600080fd5b505af1158015610e82573d6000803e3d6000fd5b5050505050565b600073ffffffffffffffffffffffffffffffffffffffff82169050919050565b6000610eb482610e89565b9050919050565b610ec481610ea9565b82525050565b6000602082019050610edf6000830184610ebb565b92915050565b6000819050919050565b610ef881610ee5565b82525050565b6000602082019050610f136000830184610eef565b92915050565b60008115159050919050565b610f2e81610f19565b82525050565b6000602082019050610f496000830184610f25565b92915050565b6000819050919050565b6000610f74610f6f610f6a84610e89565b610f4f565b610e89565b9050919050565b6000610f8682610f59565b9050919050565b6000610f9882610f7b565b9050919050565b610fa881610f8d565b82525050565b6000602082019050610fc36000830184610f9f565b92915050565b6000610fd482610f7b565b9050919050565b610fe481610fc9565b82525050565b6000602082019050610fff6000830184610fdb565b92915050565b600063ffffffff82169050919050565b61101e81611005565b82525050565b60006020820190506110396000830184611015565b92915050565b7f4e487b7100000000000000000000000000000000000000000000000000000000600052602160045260246000fd5b6005811061107f5761107e61103f565b5b50565b60008190506110908261106e565b919050565b60006110a082611082565b9050919050565b6110b081611095565b82525050565b60006020820190506110cb60008301846110a7565b92915050565b600080fd5b6110df81610ee5565b81146110ea57600080fd5b50565b6000815190506110fc816110d6565b92915050565b600060208284031215611118576111176110d1565b5b6000611126848285016110ed565b91505092915050565b7f4e487b7100000000000000000000000000000000000000000000000000000000600052601160045260246000fd5b600061116982611005565b915061117483611005565b92508263ffffffff0382111561118d5761118c61112f565b5b828201905092915050565b600082825260208201905092915050565b7f47726561746572207468616e206f7220657161756c7320746f2032302043617360008201527f68206e6563657373617279210000000000000000000000000000000000000000602082015250565b6000611205602c83611198565b9150611210826111a9565b604082019050919050565b60006020820190508181036000830152611234816111f8565b9050919050565b600061125661125161124c84611005565b610f4f565b610ee5565b9050919050565b6112668161123b565b82525050565b60006040820190506112816000830185610ebb565b61128e602083018461125d565b9392505050565b61129e81610f19565b81146112a957600080fd5b50565b6000815190506112bb81611295565b92915050565b6000602082840312156112d7576112d66110d1565b5b60006112e5848285016112ac565b91505092915050565b60006112f982610ee5565b915061130483610ee5565b9250828210156113175761131661112f565b5b828203905092915050565b60006040820190506113376000830185610ebb565b6113446020830184610eef565b939250505056fea2646970667358221220bc4dca3b107f2aa1da9d9349602c1d2fc638d1fb76f96381ed2fa00fc015eb4764736f6c634300080e0033a2646970667358221220f0c1965d4703e4c82fb9b4bc67afc7ac0d8b3dd783dacbd595fb0663f1de9f7364736f6c634300080e0033",
  "immutableReferences": {},
  "source": "// SPDX-License-Identifier: MIT\npragma solidity >=0.4.22 <0.9.0;\n\nimport \"./Ownable.sol\";\nimport \"./PurchaseRecord.sol\";\n\ncontract EscrowFactory is Ownable{\n    \n    struct Item {\n        uint32 itemId;\n        uint32 price;\n        address seller;\n        uint256 registeredAt;\n        uint256 deletedAt;\n        bool available;\n    }\n    \n    event NewEscrow(address indexed seller, address indexed buyer, uint itemId, uint purchaseId, address _address);\n   \n    address public admin;\n    address public cashContractAddress; \n    address public purchaseRecordContractAddress;\n   \n    mapping (uint32 => Item) public items;\n    Escrow[] public escrows;\n    mapping (uint256 => Escrow) public purchaseIdToEscrow;\n    \n    constructor() {\n        admin = msg.sender;\n    }\n    \n    function setPaymentMethod(address _address) public onlyOwner {\n        cashContractAddress = _address;    \n    }\n    \n    function setPurchaseRecordContract(address _address) public onlyOwner {\n        purchaseRecordContractAddress = _address;\n    }\n    \n    function registerItem(uint32 itemId, uint32 price) public returns(uint32, uint32, address, uint256){\n        Item memory item = Item(itemId, price, msg.sender, block.timestamp, 0, true);\n        items[itemId] = item;\n        return (item.itemId,  item.price, item.seller, item.registeredAt);\n    }\n\n    function purchaseItem(uint32 itemId) public returns(uint256){\n        Item memory item = items[itemId];\n        require(item.seller != msg.sender, \"Check buyer address\");\n        require(item.available == true, \"Item not available\");\n        \n        Escrow escrow = new Escrow(cashContractAddress, purchaseRecordContractAddress, itemId, item.seller, msg.sender, item.price);\n        escrows.push(escrow);\n        uint256 purchaseId = escrows.length -1;\n        purchaseIdToEscrow[purchaseId] = escrow;\n        \n        emit NewEscrow(item.seller, msg.sender, itemId, purchaseId, address(escrow));\n       \n        return purchaseId;  \n    }\n    \n    function deregisterItem(uint16 itemId) public returns(bool) {\n        Item storage item = items[itemId];\n        require(item.seller == msg.sender, \"Only seller can delete item.\");\n        \n        item.deletedAt = block.timestamp;\n        item.available = false;\n    \n        return true;\n    }\n}\n\nabstract contract CashInterface {\n  function balanceOf(address _addr) virtual external view returns (uint256 balance);\n  function transfer(address _to, uint256 _value) virtual external returns(bool success);\n  function transferFrom(address _from, address _to, uint256 _value) virtual external returns(bool success);\n  function approve(address _spender, uint256 _amount) virtual external returns (bool);\n}\n\n\n\ncontract Escrow {\n    \n    enum State {Purchased, Paid, Sent, Complete, Cancelled}\n\n    CashInterface public cashContract;\n    address public purchaseRecordContractAddress;\n    PurchaseRecordInterface public purchaseRecordContract;\n    \n    uint32 public itemId;\n    address public seller;\n    address public buyer;\n    uint32 public price;\n    State public state;\n    uint public purchasedAt;\n    uint private initialCash;\n    uint public completeAt;\n    \n    modifier onlySeller {\n        require(msg.sender == seller);\n        _;\n    }\n    \n     modifier onlyBuyer {\n        require(msg.sender == buyer);\n        _;\n    }\n    \n    constructor(\n        address _contractAddress, \n        address _purchaseRecordAddress,\n        uint32 _itemId, \n        address _seller, \n        address _buyer, \n        uint32 _price) {\n            \n        cashContract = CashInterface(_contractAddress);\n        purchaseRecordContractAddress = _purchaseRecordAddress;\n        purchaseRecordContract = PurchaseRecordInterface(_purchaseRecordAddress);\n        \n        // require(cashContract.balanceOf(_buyer) >= _price + 20, \"Insufficient Cash\");\n        \n        itemId = _itemId;\n        seller = _seller;\n        buyer = _buyer;\n        price = _price;\n        purchasedAt = block.timestamp;\n        initialCash = cashContract.balanceOf(address(this));\n        \n        purchaseRecordContract.addPurchase(address(this));\n    }\n    \n    function checkDeposit() public returns(bool) {\n        require(state == State.Purchased);\n        uint paid = cashContract.balanceOf(address(this));\n        require(paid >= price + 20, \"Greater than or eqauls to 20 Cash necessary!\");\n        state = State.Paid;  \n        purchaseRecordContract.confirmDeposit(address(this));\n        return true;\n    }\n    \n    function send() public onlySeller {\n        require(state == State.Paid);\n        state = State.Sent;\n        purchaseRecordContract.sendItem(address(this));\n    }\n    \n    function cancel() public {\n        require(msg.sender == seller || msg.sender == buyer);\n        require(state == State.Purchased || state == State.Paid);\n        uint paid = cashContract.balanceOf(address(this));\n        if( paid >= price + 20 ) {\n            cashContract.transfer(buyer, paid);\n            purchaseRecordContract.refund(address(this));\n        } \n        state = State.Cancelled;\n        purchaseRecordContract.cancelPurchase(address(this));\n    }\n    \n    function confirm() public onlyBuyer returns (bool){\n        require(state == State.Sent);\n        uint paid = cashContract.balanceOf(address(this));\n        cashContract.transfer(seller, price);\n        cashContract.transfer(buyer, paid - price);\n        state = State.Complete;\n        completeAt = block.timestamp;\n        purchaseRecordContract.confirmPurchase(address(this));\n        return true;\n    }\n    \n}",
  "sourcePath": "C:\\Users\\multicampus\\Desktop\\SSAFY_2\\SSAFY_\\TEST_React_truffle_sol\\truffle\\contracts\\EscrowFactory.sol",
  "compiler": {
    "name": "solc",
    "version": "0.8.14+commit.80d49f37.Emscripten.clang"
  },
  "schemaVersion": "3.4.10",
  "updatedAt": "2022-09-27T11:25:28.615Z",
  "networkType": "ethereum",
  "devdoc": {
    "kind": "dev",
    "methods": {},
    "version": 1
  },
  "userdoc": {
    "kind": "user",
    "methods": {},
    "version": 1
  }
}