{
  "contractName": "PurchaseRecord",
  "abi": [
    {
      "inputs": [],
      "stateMutability": "nonpayable",
      "type": "constructor"
    },
    {
      "anonymous": false,
      "inputs": [
        {
          "indexed": true,
          "internalType": "address",
          "name": "previousOwner",
          "type": "address"
        },
        {
          "indexed": true,
          "internalType": "address",
          "name": "newOwner",
          "type": "address"
        }
      ],
      "name": "OwnershipTransferred",
      "type": "event"
    },
    {
      "inputs": [],
      "name": "admin",
      "outputs": [
        {
          "internalType": "address",
          "name": "",
          "type": "address"
        }
      ],
      "stateMutability": "view",
      "type": "function",
      "constant": true
    },
    {
      "inputs": [],
      "name": "owner",
      "outputs": [
        {
          "internalType": "address",
          "name": "",
          "type": "address"
        }
      ],
      "stateMutability": "view",
      "type": "function",
      "constant": true
    },
    {
      "inputs": [
        {
          "internalType": "address",
          "name": "newOwner",
          "type": "address"
        }
      ],
      "name": "transferOwnership",
      "outputs": [],
      "stateMutability": "nonpayable",
      "type": "function"
    },
    {
      "inputs": [
        {
          "internalType": "address",
          "name": "_address",
          "type": "address"
        }
      ],
      "name": "addPurchase",
      "outputs": [],
      "stateMutability": "nonpayable",
      "type": "function"
    },
    {
      "inputs": [
        {
          "internalType": "address",
          "name": "_address",
          "type": "address"
        }
      ],
      "name": "confirmDeposit",
      "outputs": [],
      "stateMutability": "nonpayable",
      "type": "function"
    },
    {
      "inputs": [
        {
          "internalType": "address",
          "name": "_address",
          "type": "address"
        }
      ],
      "name": "sendItem",
      "outputs": [],
      "stateMutability": "nonpayable",
      "type": "function"
    },
    {
      "inputs": [
        {
          "internalType": "address",
          "name": "_address",
          "type": "address"
        }
      ],
      "name": "cancelPurchase",
      "outputs": [],
      "stateMutability": "nonpayable",
      "type": "function"
    },
    {
      "inputs": [
        {
          "internalType": "address",
          "name": "_address",
          "type": "address"
        }
      ],
      "name": "refund",
      "outputs": [],
      "stateMutability": "nonpayable",
      "type": "function"
    },
    {
      "inputs": [
        {
          "internalType": "address",
          "name": "_address",
          "type": "address"
        }
      ],
      "name": "confirmPurchase",
      "outputs": [],
      "stateMutability": "nonpayable",
      "type": "function"
    },
    {
      "inputs": [
        {
          "internalType": "address",
          "name": "_address",
          "type": "address"
        }
      ],
      "name": "getRecordNumber",
      "outputs": [
        {
          "internalType": "uint8",
          "name": "numberOfRecords",
          "type": "uint8"
        }
      ],
      "stateMutability": "view",
      "type": "function",
      "constant": true
    },
    {
      "inputs": [
        {
          "internalType": "address",
          "name": "_address",
          "type": "address"
        },
        {
          "internalType": "uint256",
          "name": "recordNo",
          "type": "uint256"
        }
      ],
      "name": "getRecord",
      "outputs": [
        {
          "internalType": "enum PurchaseRecord.State",
          "name": "_state",
          "type": "uint8"
        },
        {
          "internalType": "uint256",
          "name": "_when",
          "type": "uint256"
        },
        {
          "internalType": "address",
          "name": "_by",
          "type": "address"
        }
      ],
      "stateMutability": "view",
      "type": "function",
      "constant": true
    }
  ],
  "bytecode": "0x608060405234801561001057600080fd5b50336000806101000a81548173ffffffffffffffffffffffffffffffffffffffff021916908373ffffffffffffffffffffffffffffffffffffffff16021790555033600160006101000a81548173ffffffffffffffffffffffffffffffffffffffff021916908373ffffffffffffffffffffffffffffffffffffffff160217905550610b01806100a16000396000f3fe608060405234801561001057600080fd5b50600436106100a95760003560e01c80638ff06ab7116100715780638ff06ab71461013c578063cdb8acf014610158578063d96bfe0e1461018a578063f2fde38b146101ba578063f851a440146101d6578063fa89401a146101f4576100a9565b806312ad9f6e146100ae578063517807e4146100ca5780636452fca1146100e657806382b46df4146101025780638da5cb5b1461011e575b600080fd5b6100c860048036038101906100c391906108a4565b610210565b005b6100e460048036038101906100df91906108a4565b61023d565b005b61010060048036038101906100fb91906108a4565b61024c565b005b61011c600480360381019061011791906108a4565b61026d565b005b61012661029a565b60405161013391906108e0565b60405180910390f35b610156600480360381019061015191906108a4565b6102be565b005b610172600480360381019061016d9190610931565b6102df565b604051610181939291906109f7565b60405180910390f35b6101a4600480360381019061019f91906108a4565b61041a565b6040516101b19190610a4a565b60405180910390f35b6101d460048036038101906101cf91906108a4565b610470565b005b6101de6105be565b6040516101eb91906108e0565b60405180910390f35b61020e600480360381019061020991906108a4565b6105e4565b005b61021933610611565b61022257600080fd5b61022e8160033361066c565b61023a8160063061066c565b50565b6102498160003361066c565b50565b61025533610611565b61025e57600080fd5b61026a8160013361066c565b50565b61027633610611565b61027f57600080fd5b61028b8160043361066c565b6102978160063061066c565b50565b60008054906101000a900473ffffffffffffffffffffffffffffffffffffffff1681565b6102c733610611565b6102d057600080fd5b6102dc8160023361066c565b50565b6000806000600260008673ffffffffffffffffffffffffffffffffffffffff1673ffffffffffffffffffffffffffffffffffffffff168152602001908152602001600020600085815260200190815260200160002060000160009054906101000a900460ff169250600260008673ffffffffffffffffffffffffffffffffffffffff1673ffffffffffffffffffffffffffffffffffffffff1681526020019081526020016000206000858152602001908152602001600020600101549150600260008673ffffffffffffffffffffffffffffffffffffffff1673ffffffffffffffffffffffffffffffffffffffff168152602001908152602001600020600085815260200190815260200160002060020160009054906101000a900473ffffffffffffffffffffffffffffffffffffffff1690509250925092565b6000600360008373ffffffffffffffffffffffffffffffffffffffff1673ffffffffffffffffffffffffffffffffffffffff16815260200190815260200160002060009054906101000a900460ff169050919050565b60008054906101000a900473ffffffffffffffffffffffffffffffffffffffff1673ffffffffffffffffffffffffffffffffffffffff163373ffffffffffffffffffffffffffffffffffffffff16146104c857600080fd5b600073ffffffffffffffffffffffffffffffffffffffff168173ffffffffffffffffffffffffffffffffffffffff160361050157600080fd5b8073ffffffffffffffffffffffffffffffffffffffff1660008054906101000a900473ffffffffffffffffffffffffffffffffffffffff1673ffffffffffffffffffffffffffffffffffffffff167f8be0079c531659141344cd1fd0a4f28419497f9722a3daafe3b4186f6b6457e060405160405180910390a3806000806101000a81548173ffffffffffffffffffffffffffffffffffffffff021916908373ffffffffffffffffffffffffffffffffffffffff16021790555050565b600160009054906101000a900473ffffffffffffffffffffffffffffffffffffffff1681565b6105ed33610611565b6105f657600080fd5b6106028160053361066c565b61060e8160063061066c565b50565b600080600360008473ffffffffffffffffffffffffffffffffffffffff1673ffffffffffffffffffffffffffffffffffffffff16815260200190815260200160002060009054906101000a900460ff1660ff16119050919050565b6000600360008573ffffffffffffffffffffffffffffffffffffffff1673ffffffffffffffffffffffffffffffffffffffff16815260200190815260200160002060009054906101000a900460ff16905060405180606001604052808460068111156106db576106da610971565b5b81526020014281526020018373ffffffffffffffffffffffffffffffffffffffff16815250600260008673ffffffffffffffffffffffffffffffffffffffff1673ffffffffffffffffffffffffffffffffffffffff16815260200190815260200160002060008360ff16815260200190815260200160002060008201518160000160006101000a81548160ff0219169083600681111561077e5761077d610971565b5b02179055506020820151816001015560408201518160020160006101000a81548173ffffffffffffffffffffffffffffffffffffffff021916908373ffffffffffffffffffffffffffffffffffffffff1602179055509050506001816107e49190610a94565b600360008673ffffffffffffffffffffffffffffffffffffffff1673ffffffffffffffffffffffffffffffffffffffff16815260200190815260200160002060006101000a81548160ff021916908360ff16021790555050505050565b600080fd5b600073ffffffffffffffffffffffffffffffffffffffff82169050919050565b600061087182610846565b9050919050565b61088181610866565b811461088c57600080fd5b50565b60008135905061089e81610878565b92915050565b6000602082840312156108ba576108b9610841565b5b60006108c88482850161088f565b91505092915050565b6108da81610866565b82525050565b60006020820190506108f560008301846108d1565b92915050565b6000819050919050565b61090e816108fb565b811461091957600080fd5b50565b60008135905061092b81610905565b92915050565b6000806040838503121561094857610947610841565b5b60006109568582860161088f565b92505060206109678582860161091c565b9150509250929050565b7f4e487b7100000000000000000000000000000000000000000000000000000000600052602160045260246000fd5b600781106109b1576109b0610971565b5b50565b60008190506109c2826109a0565b919050565b60006109d2826109b4565b9050919050565b6109e2816109c7565b82525050565b6109f1816108fb565b82525050565b6000606082019050610a0c60008301866109d9565b610a1960208301856109e8565b610a2660408301846108d1565b949350505050565b600060ff82169050919050565b610a4481610a2e565b82525050565b6000602082019050610a5f6000830184610a3b565b92915050565b7f4e487b7100000000000000000000000000000000000000000000000000000000600052601160045260246000fd5b6000610a9f82610a2e565b9150610aaa83610a2e565b92508260ff03821115610ac057610abf610a65565b5b82820190509291505056fea2646970667358221220fa8fa07fed2cf4de949dbcc844fa30224d49df8462d0d174c0539f3682eabcef64736f6c634300080e0033",
  "immutableReferences": {},
  "source": "// SPDX-License-Identifier: MIT\npragma solidity >=0.4.22 <0.9.0;\nimport \"./Ownable.sol\";\n\ninterface PurchaseRecordInterface {\n    function addPurchase(address _address) external;\n    function confirmDeposit(address _address) external;\n    function sendItem(address _address) external;\n    function cancelPurchase(address _address) external;\n    function refund(address _address) external;\n    function confirmPurchase(address _address) external;\n}\n// abstract contract PurchaseRecordInterface {\n//     function addPurchase(address _address) virtual external;\n//     function confirmDeposit(address _address) virtual external;\n//     function sendItem(address _address) virtual external;\n//     function cancelPurchase(address _address) virtual external;\n//     function refund(address _address) virtual external;\n//     function confirmPurchase(address _address) virtual external;\n// }\n\ncontract PurchaseRecord is PurchaseRecordInterface, Ownable {\n    \n    /*\n    * Events\n    */\n    \n    enum State {Purchased, Paid, Sent, Complete, Cancelled, Refunded, End}\n    \n    struct Record {\n        State state;\n        uint256 when; \n        address by;\n    }\n    \n    address public admin;\n     \n    mapping (address => mapping(uint => Record)) escrowToRecords;\n    mapping (address => uint8) escrowToRecordNo;\n    \n    modifier onlyEscrow {\n        require(exists(msg.sender));\n        _;\n    }\n    \n    constructor() {\n        admin = msg.sender;\n    }\n    \n    function exists(address addr) private view returns(bool){\n        return escrowToRecordNo[addr] > 0;\n    }\n    \n    function addRecord(address _address, State state, address _by) private {\n        uint8 recordNo = escrowToRecordNo[_address];\n        escrowToRecords[_address][recordNo] = Record(state, block.timestamp , _by);\n        escrowToRecordNo[_address] = uint8(recordNo + 1);\n    }\n    \n    function addPurchase(address _address) external {\n        addRecord(_address, State.Purchased, msg.sender);\n    }\n\n    function confirmDeposit(address _address) external \n    onlyEscrow \n    {\n        addRecord(_address, State.Paid, msg.sender);\n    }\n    \n    function sendItem(address _address) external \n    onlyEscrow \n    {\n        addRecord(_address, State.Sent, msg.sender);\n    }\n    \n    function cancelPurchase(address _address) external \n    onlyEscrow \n    {\n        addRecord(_address, State.Cancelled, msg.sender);\n        addRecord(_address, State.End, address(this));\n    }\n    \n    function refund(address _address) external \n    onlyEscrow \n    {\n        addRecord(_address, State.Refunded, msg.sender);\n        addRecord(_address, State.End, address(this));\n    }\n    \n    function confirmPurchase(address _address) external \n    onlyEscrow \n    {\n        addRecord(_address, State.Complete, msg.sender);\n        addRecord(_address, State.End, address(this));\n    }\n    \n    function getRecordNumber(address _address) public view \n    returns (uint8 numberOfRecords)\n    {\n        return escrowToRecordNo[_address];\n    } \n    \n    function getRecord(address _address, uint recordNo) public view \n    returns (\n        State _state,\n        uint256 _when,\n        address _by\n        ) \n    {\n        _state = escrowToRecords[_address][recordNo].state;\n        _when = escrowToRecords[_address][recordNo].when;\n        _by = escrowToRecords[_address][recordNo].by;\n    }\n}",
  "sourcePath": "C:\\Users\\multicampus\\Desktop\\SSAFY_2\\SSAFY_\\TEST_React_truffle_sol\\truffle\\contracts\\PurchaseRecord.sol",
  "compiler": {
    "name": "solc",
    "version": "0.8.14+commit.80d49f37.Emscripten.clang"
  },
  "schemaVersion": "3.4.10",
  "updatedAt": "2022-09-27T11:25:28.632Z",
  "networkType": "ethereum",
  "devdoc": {
    "kind": "dev",
    "methods": {},
    "version": 1
  },
  "userdoc": {
    "kind": "user",
    "methods": {},
    "version": 1
  }
}