{
  "contractName": "SimpleStorage",
  "abi": [
    {
      "inputs": [],
      "name": "read",
      "outputs": [
        {
          "internalType": "uint256",
          "name": "",
          "type": "uint256"
        }
      ],
      "stateMutability": "view",
      "type": "function",
      "constant": true
    },
    {
      "inputs": [
        {
          "internalType": "uint256",
          "name": "newValue",
          "type": "uint256"
        }
      ],
      "name": "write",
      "outputs": [],
      "stateMutability": "payable",
      "type": "function",
      "payable": true
    },
    {
      "inputs": [],
      "name": "getMyApple",
      "outputs": [
        {
          "internalType": "uint256",
          "name": "",
          "type": "uint256"
        }
      ],
      "stateMutability": "view",
      "type": "function",
      "constant": true
    },
    {
      "inputs": [
        {
          "internalType": "uint256",
          "name": "_applePrice",
          "type": "uint256"
        }
      ],
      "name": "sellApple",
      "outputs": [],
      "stateMutability": "payable",
      "type": "function",
      "payable": true
    },
    {
      "inputs": [
        {
          "internalType": "uint256",
          "name": "_applePrice",
          "type": "uint256"
        }
      ],
      "name": "sellOneApple",
      "outputs": [],
      "stateMutability": "payable",
      "type": "function",
      "payable": true
    }
  ],
  "bytecode": "0x608060405234801561001057600080fd5b506104e8806100206000396000f3fe60806040526004361061004a5760003560e01c80632f048afa1461004f57806357de26a41461006b5780639417bc2c14610096578063aacddd7c146100b2578063db54b74c146100dd575b600080fd5b61006960048036038101906100649190610361565b6100f9565b005b34801561007757600080fd5b50610080610158565b60405161008d919061039d565b60405180910390f35b6100b060048036038101906100ab9190610361565b610161565b005b3480156100be57600080fd5b506100c7610200565b6040516100d4919061039d565b60405180910390f35b6100f760048036038101906100f29190610361565b610247565b005b80600081905550600160003373ffffffffffffffffffffffffffffffffffffffff1673ffffffffffffffffffffffffffffffffffffffff1681526020019081526020016000206000815480929190610150906103e7565b919050555050565b60008054905090565b600160003373ffffffffffffffffffffffffffffffffffffffff1673ffffffffffffffffffffffffffffffffffffffff16815260200190815260200160002060008154809291906101b19061042f565b91905055503373ffffffffffffffffffffffffffffffffffffffff166108fc829081150290604051600060405180830381858888f193505050501580156101fc573d6000803e3d6000fd5b5050565b6000600160003373ffffffffffffffffffffffffffffffffffffffff1673ffffffffffffffffffffffffffffffffffffffff16815260200190815260200160002054905090565b600081600160003373ffffffffffffffffffffffffffffffffffffffff1673ffffffffffffffffffffffffffffffffffffffff168152602001908152602001600020546102949190610458565b90506000600160003373ffffffffffffffffffffffffffffffffffffffff1673ffffffffffffffffffffffffffffffffffffffff168152602001908152602001600020819055503373ffffffffffffffffffffffffffffffffffffffff166108fc829081150290604051600060405180830381858888f19350505050158015610321573d6000803e3d6000fd5b505050565b600080fd5b6000819050919050565b61033e8161032b565b811461034957600080fd5b50565b60008135905061035b81610335565b92915050565b60006020828403121561037757610376610326565b5b60006103858482850161034c565b91505092915050565b6103978161032b565b82525050565b60006020820190506103b2600083018461038e565b92915050565b7f4e487b7100000000000000000000000000000000000000000000000000000000600052601160045260246000fd5b60006103f28261032b565b91507fffffffffffffffffffffffffffffffffffffffffffffffffffffffffffffffff8203610424576104236103b8565b5b600182019050919050565b600061043a8261032b565b91506000820361044d5761044c6103b8565b5b600182039050919050565b60006104638261032b565b915061046e8361032b565b9250817fffffffffffffffffffffffffffffffffffffffffffffffffffffffffffffffff04831182151516156104a7576104a66103b8565b5b82820290509291505056fea26469706673582212204310d48076145c6cc1bb70fac1762cd281215fef8ef0c5aa0611079c9145086e64736f6c634300080e0033",
  "immutableReferences": {},
  "source": "// SPDX-License-Identifier: MIT\npragma solidity >=0.4.22 <0.9.0;\n\ncontract SimpleStorage {\n  uint256 value;\n  mapping(address=>uint) myApple;  //      mapping \n\n  function read() public view returns (uint256) {\n    return value;\n  }\n\n  function write(uint256 newValue) payable public {\n    value = newValue;\n    myApple[msg.sender]++;      //   0   1 \n\n  }\n  // function buyApple() payable public{\n  //   // msg.sender : contract       \n  //   myApple[msg.sender]++;      //   0   1 \n  // }\n\n  function getMyApple() public view returns(uint){\n    return myApple[msg.sender];\n  }\n\n  function sellApple(uint _applePrice) payable external{\n    uint totalPrice = (myApple[msg.sender] * _applePrice);\n                      //     * \n    myApple[msg.sender] = 0;    //  0 \n    payable(msg.sender).transfer(totalPrice);    //  \n  }\n\n  function sellOneApple(uint _applePrice) payable external {\n    myApple[msg.sender]--;\n    payable(msg.sender).transfer(_applePrice);\n  }\n}\n",
  "sourcePath": "C:\\Users\\multicampus\\Desktop\\SSAFY_2\\SSAFY_\\TEST_React_truffle_sol\\truffle\\contracts\\SimpleStorage.sol",
  "compiler": {
    "name": "solc",
    "version": "0.8.14+commit.80d49f37.Emscripten.clang"
  },
  "schemaVersion": "3.4.10",
  "updatedAt": "2022-09-27T11:25:28.576Z",
  "networkType": "ethereum",
  "devdoc": {
    "kind": "dev",
    "methods": {},
    "version": 1
  },
  "userdoc": {
    "kind": "user",
    "methods": {},
    "version": 1
  }
}