{
  "contractName": "SimpleStorage",
  "abi": [
    {
      "anonymous": false,
      "inputs": [
        {
          "indexed": false,
          "internalType": "string",
          "name": "title",
          "type": "string"
        },
        {
          "indexed": false,
          "internalType": "string",
          "name": "lineInfo",
          "type": "string"
        },
        {
          "indexed": false,
          "internalType": "uint32",
          "name": "price",
          "type": "uint32"
        },
        {
          "indexed": false,
          "internalType": "string",
          "name": "categori",
          "type": "string"
        },
        {
          "indexed": false,
          "internalType": "string",
          "name": "thumbnail",
          "type": "string"
        },
        {
          "indexed": false,
          "internalType": "string",
          "name": "detail",
          "type": "string"
        },
        {
          "indexed": false,
          "internalType": "string",
          "name": "expressDue",
          "type": "string"
        },
        {
          "indexed": false,
          "internalType": "string",
          "name": "info",
          "type": "string"
        }
      ],
      "name": "NewItem",
      "type": "event"
    },
    {
      "inputs": [
        {
          "internalType": "uint256",
          "name": "",
          "type": "uint256"
        }
      ],
      "name": "items",
      "outputs": [
        {
          "internalType": "uint32",
          "name": "price",
          "type": "uint32"
        },
        {
          "internalType": "string",
          "name": "title",
          "type": "string"
        },
        {
          "internalType": "string",
          "name": "lineInfo",
          "type": "string"
        },
        {
          "internalType": "string",
          "name": "categori",
          "type": "string"
        },
        {
          "internalType": "string",
          "name": "thumbnail",
          "type": "string"
        },
        {
          "internalType": "string",
          "name": "detail",
          "type": "string"
        },
        {
          "internalType": "string",
          "name": "expressDue",
          "type": "string"
        },
        {
          "internalType": "string",
          "name": "info",
          "type": "string"
        }
      ],
      "stateMutability": "view",
      "type": "function",
      "constant": true
    },
    {
      "inputs": [],
      "name": "read",
      "outputs": [
        {
          "internalType": "uint256",
          "name": "",
          "type": "uint256"
        }
      ],
      "stateMutability": "view",
      "type": "function",
      "constant": true
    },
    {
      "inputs": [
        {
          "internalType": "uint256",
          "name": "newValue",
          "type": "uint256"
        }
      ],
      "name": "write",
      "outputs": [],
      "stateMutability": "payable",
      "type": "function",
      "payable": true
    },
    {
      "inputs": [],
      "name": "getMyApple",
      "outputs": [
        {
          "internalType": "uint256",
          "name": "",
          "type": "uint256"
        }
      ],
      "stateMutability": "view",
      "type": "function",
      "constant": true
    },
    {
      "inputs": [
        {
          "internalType": "uint256",
          "name": "_applePrice",
          "type": "uint256"
        }
      ],
      "name": "sellApple",
      "outputs": [],
      "stateMutability": "payable",
      "type": "function",
      "payable": true
    },
    {
      "inputs": [
        {
          "internalType": "uint256",
          "name": "_applePrice",
          "type": "uint256"
        }
      ],
      "name": "sellOneApple",
      "outputs": [],
      "stateMutability": "payable",
      "type": "function",
      "payable": true
    },
    {
      "inputs": [
        {
          "internalType": "string",
          "name": "title",
          "type": "string"
        },
        {
          "internalType": "string",
          "name": "lineInfo",
          "type": "string"
        },
        {
          "internalType": "uint32",
          "name": "price",
          "type": "uint32"
        },
        {
          "internalType": "string",
          "name": "categori",
          "type": "string"
        },
        {
          "internalType": "string",
          "name": "thumbnail",
          "type": "string"
        },
        {
          "internalType": "string",
          "name": "detail",
          "type": "string"
        },
        {
          "internalType": "string",
          "name": "expressDue",
          "type": "string"
        },
        {
          "internalType": "string",
          "name": "info",
          "type": "string"
        }
      ],
      "name": "registItem",
      "outputs": [],
      "stateMutability": "nonpayable",
      "type": "function"
    },
    {
      "inputs": [
        {
          "internalType": "address",
          "name": "_address",
          "type": "address"
        }
      ],
      "name": "readItem",
      "outputs": [
        {
          "components": [
            {
              "internalType": "uint32",
              "name": "price",
              "type": "uint32"
            },
            {
              "internalType": "string",
              "name": "title",
              "type": "string"
            },
            {
              "internalType": "string",
              "name": "lineInfo",
              "type": "string"
            },
            {
              "internalType": "string",
              "name": "categori",
              "type": "string"
            },
            {
              "internalType": "string",
              "name": "thumbnail",
              "type": "string"
            },
            {
              "internalType": "string",
              "name": "detail",
              "type": "string"
            },
            {
              "internalType": "string",
              "name": "expressDue",
              "type": "string"
            },
            {
              "internalType": "string",
              "name": "info",
              "type": "string"
            }
          ],
          "internalType": "struct SimpleStorage.Item",
          "name": "",
          "type": "tuple"
        }
      ],
      "stateMutability": "view",
      "type": "function",
      "constant": true
    }
  ],
  "bytecode": "0x608060405234801561001057600080fd5b506119b1806100206000396000f3fe60806040526004361061007b5760003560e01c8063aacddd7c1161004e578063aacddd7c14610120578063bfb231d21461014b578063db54b74c1461018f578063e0427331146101ab5761007b565b80632f048afa1461008057806357de26a41461009c5780639417bc2c146100c7578063a6e8b5a1146100e3575b600080fd5b61009a600480360381019061009591906110f9565b6101d4565b005b3480156100a857600080fd5b506100b1610233565b6040516100be9190611135565b60405180910390f35b6100e160048036038101906100dc91906110f9565b61023c565b005b3480156100ef57600080fd5b5061010a600480360381019061010591906111ae565b6102db565b604051610117919061136d565b60405180910390f35b34801561012c57600080fd5b50610135610759565b6040516101429190611135565b60405180910390f35b34801561015757600080fd5b50610172600480360381019061016d91906110f9565b6107a0565b6040516101869897969594939291906113e8565b60405180910390f35b6101a960048036038101906101a491906110f9565b610bc0565b005b3480156101b757600080fd5b506101d260048036038101906101cd91906115f8565b610c9f565b005b80600081905550600160003373ffffffffffffffffffffffffffffffffffffffff1673ffffffffffffffffffffffffffffffffffffffff168152602001908152602001600020600081548092919061022b906117a1565b919050555050565b60008054905090565b600160003373ffffffffffffffffffffffffffffffffffffffff1673ffffffffffffffffffffffffffffffffffffffff168152602001908152602001600020600081548092919061028c906117e9565b91905055503373ffffffffffffffffffffffffffffffffffffffff166108fc829081150290604051600060405180830381858888f193505050501580156102d7573d6000803e3d6000fd5b5050565b6102e3610fc1565b600360008373ffffffffffffffffffffffffffffffffffffffff1673ffffffffffffffffffffffffffffffffffffffff168152602001908152602001600020604051806101000160405290816000820160009054906101000a900463ffffffff1663ffffffff1663ffffffff16815260200160018201805461036490611841565b80601f016020809104026020016040519081016040528092919081815260200182805461039090611841565b80156103dd5780601f106103b2576101008083540402835291602001916103dd565b820191906000526020600020905b8154815290600101906020018083116103c057829003601f168201915b505050505081526020016002820180546103f690611841565b80601f016020809104026020016040519081016040528092919081815260200182805461042290611841565b801561046f5780601f106104445761010080835404028352916020019161046f565b820191906000526020600020905b81548152906001019060200180831161045257829003601f168201915b5050505050815260200160038201805461048890611841565b80601f01602080910402602001604051908101604052809291908181526020018280546104b490611841565b80156105015780601f106104d657610100808354040283529160200191610501565b820191906000526020600020905b8154815290600101906020018083116104e457829003601f168201915b5050505050815260200160048201805461051a90611841565b80601f016020809104026020016040519081016040528092919081815260200182805461054690611841565b80156105935780601f1061056857610100808354040283529160200191610593565b820191906000526020600020905b81548152906001019060200180831161057657829003601f168201915b505050505081526020016005820180546105ac90611841565b80601f01602080910402602001604051908101604052809291908181526020018280546105d890611841565b80156106255780601f106105fa57610100808354040283529160200191610625565b820191906000526020600020905b81548152906001019060200180831161060857829003601f168201915b5050505050815260200160068201805461063e90611841565b80601f016020809104026020016040519081016040528092919081815260200182805461066a90611841565b80156106b75780601f1061068c576101008083540402835291602001916106b7565b820191906000526020600020905b81548152906001019060200180831161069a57829003601f168201915b505050505081526020016007820180546106d090611841565b80601f01602080910402602001604051908101604052809291908181526020018280546106fc90611841565b80156107495780601f1061071e57610100808354040283529160200191610749565b820191906000526020600020905b81548152906001019060200180831161072c57829003601f168201915b5050505050815250509050919050565b6000600160003373ffffffffffffffffffffffffffffffffffffffff1673ffffffffffffffffffffffffffffffffffffffff16815260200190815260200160002054905090565b600281815481106107b057600080fd5b90600052602060002090600802016000915090508060000160009054906101000a900463ffffffff16908060010180546107e990611841565b80601f016020809104026020016040519081016040528092919081815260200182805461081590611841565b80156108625780601f1061083757610100808354040283529160200191610862565b820191906000526020600020905b81548152906001019060200180831161084557829003601f168201915b50505050509080600201805461087790611841565b80601f01602080910402602001604051908101604052809291908181526020018280546108a390611841565b80156108f05780601f106108c5576101008083540402835291602001916108f0565b820191906000526020600020905b8154815290600101906020018083116108d357829003601f168201915b50505050509080600301805461090590611841565b80601f016020809104026020016040519081016040528092919081815260200182805461093190611841565b801561097e5780601f106109535761010080835404028352916020019161097e565b820191906000526020600020905b81548152906001019060200180831161096157829003601f168201915b50505050509080600401805461099390611841565b80601f01602080910402602001604051908101604052809291908181526020018280546109bf90611841565b8015610a0c5780601f106109e157610100808354040283529160200191610a0c565b820191906000526020600020905b8154815290600101906020018083116109ef57829003601f168201915b505050505090806005018054610a2190611841565b80601f0160208091040260200160405190810160405280929190818152602001828054610a4d90611841565b8015610a9a5780601f10610a6f57610100808354040283529160200191610a9a565b820191906000526020600020905b815481529060010190602001808311610a7d57829003601f168201915b505050505090806006018054610aaf90611841565b80601f0160208091040260200160405190810160405280929190818152602001828054610adb90611841565b8015610b285780601f10610afd57610100808354040283529160200191610b28565b820191906000526020600020905b815481529060010190602001808311610b0b57829003601f168201915b505050505090806007018054610b3d90611841565b80601f0160208091040260200160405190810160405280929190818152602001828054610b6990611841565b8015610bb65780601f10610b8b57610100808354040283529160200191610bb6565b820191906000526020600020905b815481529060010190602001808311610b9957829003601f168201915b5050505050905088565b600081600160003373ffffffffffffffffffffffffffffffffffffffff1673ffffffffffffffffffffffffffffffffffffffff16815260200190815260200160002054610c0d9190611872565b90506000600160003373ffffffffffffffffffffffffffffffffffffffff1673ffffffffffffffffffffffffffffffffffffffff168152602001908152602001600020819055503373ffffffffffffffffffffffffffffffffffffffff166108fc829081150290604051600060405180830381858888f19350505050158015610c9a573d6000803e3d6000fd5b505050565b60026040518061010001604052808863ffffffff1681526020018981526020018a815260200187815260200186815260200185815260200184815260200183815250908060018154018082558091505060019003906000526020600020906008020160009091909190915060008201518160000160006101000a81548163ffffffff021916908363ffffffff1602179055506020820151816001019080519060200190610d4d92919061100c565b506040820151816002019080519060200190610d6a92919061100c565b506060820151816003019080519060200190610d8792919061100c565b506080820151816004019080519060200190610da492919061100c565b5060a0820151816005019080519060200190610dc192919061100c565b5060c0820151816006019080519060200190610dde92919061100c565b5060e0820151816007019080519060200190610dfb92919061100c565b5050506040518061010001604052808763ffffffff16815260200188815260200189815260200186815260200185815260200184815260200183815260200182815250600360003373ffffffffffffffffffffffffffffffffffffffff1673ffffffffffffffffffffffffffffffffffffffff16815260200190815260200160002060008201518160000160006101000a81548163ffffffff021916908363ffffffff1602179055506020820151816001019080519060200190610ec092919061100c565b506040820151816002019080519060200190610edd92919061100c565b506060820151816003019080519060200190610efa92919061100c565b506080820151816004019080519060200190610f1792919061100c565b5060a0820151816005019080519060200190610f3492919061100c565b5060c0820151816006019080519060200190610f5192919061100c565b5060e0820151816007019080519060200190610f6e92919061100c565b509050507f3f5ec40f978d940386515d01dd7a9599518fb652d2e99fbddd1754ad1ae21caf8888888888888888604051610faf9897969594939291906118cc565b60405180910390a15050505050505050565b604051806101000160405280600063ffffffff168152602001606081526020016060815260200160608152602001606081526020016060815260200160608152602001606081525090565b82805461101890611841565b90600052602060002090601f01602090048101928261103a5760008555611081565b82601f1061105357805160ff1916838001178555611081565b82800160010185558215611081579182015b82811115611080578251825591602001919060010190611065565b5b50905061108e9190611092565b5090565b5b808211156110ab576000816000905550600101611093565b5090565b6000604051905090565b600080fd5b600080fd5b6000819050919050565b6110d6816110c3565b81146110e157600080fd5b50565b6000813590506110f3816110cd565b92915050565b60006020828403121561110f5761110e6110b9565b5b600061111d848285016110e4565b91505092915050565b61112f816110c3565b82525050565b600060208201905061114a6000830184611126565b92915050565b600073ffffffffffffffffffffffffffffffffffffffff82169050919050565b600061117b82611150565b9050919050565b61118b81611170565b811461119657600080fd5b50565b6000813590506111a881611182565b92915050565b6000602082840312156111c4576111c36110b9565b5b60006111d284828501611199565b91505092915050565b600063ffffffff82169050919050565b6111f4816111db565b82525050565b600081519050919050565b600082825260208201905092915050565b60005b83811015611234578082015181840152602081019050611219565b83811115611243576000848401525b50505050565b6000601f19601f8301169050919050565b6000611265826111fa565b61126f8185611205565b935061127f818560208601611216565b61128881611249565b840191505092915050565b6000610100830160008301516112ac60008601826111eb565b50602083015184820360208601526112c4828261125a565b915050604083015184820360408601526112de828261125a565b915050606083015184820360608601526112f8828261125a565b91505060808301518482036080860152611312828261125a565b91505060a083015184820360a086015261132c828261125a565b91505060c083015184820360c0860152611346828261125a565b91505060e083015184820360e0860152611360828261125a565b9150508091505092915050565b600060208201905081810360008301526113878184611293565b905092915050565b611398816111db565b82525050565b600082825260208201905092915050565b60006113ba826111fa565b6113c4818561139e565b93506113d4818560208601611216565b6113dd81611249565b840191505092915050565b6000610100820190506113fe600083018b61138f565b8181036020830152611410818a6113af565b9050818103604083015261142481896113af565b9050818103606083015261143881886113af565b9050818103608083015261144c81876113af565b905081810360a083015261146081866113af565b905081810360c083015261147481856113af565b905081810360e083015261148881846113af565b90509998505050505050505050565b600080fd5b600080fd5b7f4e487b7100000000000000000000000000000000000000000000000000000000600052604160045260246000fd5b6114d982611249565b810181811067ffffffffffffffff821117156114f8576114f76114a1565b5b80604052505050565b600061150b6110af565b905061151782826114d0565b919050565b600067ffffffffffffffff821115611537576115366114a1565b5b61154082611249565b9050602081019050919050565b82818337600083830152505050565b600061156f61156a8461151c565b611501565b90508281526020810184848401111561158b5761158a61149c565b5b61159684828561154d565b509392505050565b600082601f8301126115b3576115b2611497565b5b81356115c384826020860161155c565b91505092915050565b6115d5816111db565b81146115e057600080fd5b50565b6000813590506115f2816115cc565b92915050565b600080600080600080600080610100898b031215611619576116186110b9565b5b600089013567ffffffffffffffff811115611637576116366110be565b5b6116438b828c0161159e565b985050602089013567ffffffffffffffff811115611664576116636110be565b5b6116708b828c0161159e565b97505060406116818b828c016115e3565b965050606089013567ffffffffffffffff8111156116a2576116a16110be565b5b6116ae8b828c0161159e565b955050608089013567ffffffffffffffff8111156116cf576116ce6110be565b5b6116db8b828c0161159e565b94505060a089013567ffffffffffffffff8111156116fc576116fb6110be565b5b6117088b828c0161159e565b93505060c089013567ffffffffffffffff811115611729576117286110be565b5b6117358b828c0161159e565b92505060e089013567ffffffffffffffff811115611756576117556110be565b5b6117628b828c0161159e565b9150509295985092959890939650565b7f4e487b7100000000000000000000000000000000000000000000000000000000600052601160045260246000fd5b60006117ac826110c3565b91507fffffffffffffffffffffffffffffffffffffffffffffffffffffffffffffffff82036117de576117dd611772565b5b600182019050919050565b60006117f4826110c3565b91506000820361180757611806611772565b5b600182039050919050565b7f4e487b7100000000000000000000000000000000000000000000000000000000600052602260045260246000fd5b6000600282049050600182168061185957607f821691505b60208210810361186c5761186b611812565b5b50919050565b600061187d826110c3565b9150611888836110c3565b9250817fffffffffffffffffffffffffffffffffffffffffffffffffffffffffffffffff04831182151516156118c1576118c0611772565b5b828202905092915050565b60006101008201905081810360008301526118e7818b6113af565b905081810360208301526118fb818a6113af565b905061190a604083018961138f565b818103606083015261191c81886113af565b9050818103608083015261193081876113af565b905081810360a083015261194481866113af565b905081810360c083015261195881856113af565b905081810360e083015261196c81846113af565b9050999850505050505050505056fea26469706673582212201db861d4d80d7eddc50c7119bc35deb88308bec72b974491d527e5ce7b3d036864736f6c634300080e0033",
  "immutableReferences": {},
  "source": "// SPDX-License-Identifier: MIT\npragma solidity >=0.4.22 <0.9.0;\n\ncontract SimpleStorage {\n  uint256 value;\n  mapping(address=>uint) myApple;  //      mapping \n\n  function read() public view returns (uint256) {\n    return value;\n  }\n\n  function write(uint256 newValue) payable public {\n    value = newValue;\n    myApple[msg.sender]++;      //   0   1 \n  }\n  // function buyApple() payable public{\n  //   // msg.sender : contract       \n  //   myApple[msg.sender]++;      //   0   1 \n  // }\n\n  function getMyApple() public view returns(uint){\n    return myApple[msg.sender];\n  }\n\n  function sellApple(uint _applePrice) payable external{\n    uint totalPrice = (myApple[msg.sender] * _applePrice);\n                      //     * \n    myApple[msg.sender] = 0;    //  0 \n    payable(msg.sender).transfer(totalPrice);    //  \n  }\n\n  function sellOneApple(uint _applePrice) payable external {\n    myApple[msg.sender]--;\n    payable(msg.sender).transfer(_applePrice);\n  }\n\n  //////////////////////ssfari campus////////////////////////\n\n  struct Item {\n    uint32 price;\n    string title;\n    string lineInfo;\n    string categori;\n    string thumbnail;\n    string detail;\n    string expressDue;\n    string info;\n  }\n\n  event NewItem(string title, string lineInfo, uint32 price, \n                string categori, string thumbnail, string detail, \n                string expressDue, string info);\n\n  Item[] public items;\n  mapping(address => Item) ownerToItem;\n\n  function registItem(string memory title, string memory lineInfo, uint32 price, \n                      string memory categori, string memory thumbnail, string memory detail, \n                      string memory expressDue, string memory info) public {\n    items.push(Item(price, lineInfo, title, categori, thumbnail, detail, expressDue, info));\n    ownerToItem[msg.sender] = Item(price, lineInfo, title, categori, thumbnail, detail, expressDue, info);\n    emit NewItem(title, lineInfo, price, categori, thumbnail, detail, expressDue, info);\n  }\n\n  function readItem(address _address) public view returns(Item memory) {\n    return ownerToItem[_address];\n  }\n}\n",
  "sourcePath": "C:\\Users\\multicampus\\Desktop\\S07P22B105\\truffle\\contracts\\SimpleStorage.sol",
  "compiler": {
    "name": "solc",
    "version": "0.8.14+commit.80d49f37.Emscripten.clang"
  },
  "schemaVersion": "3.4.10",
  "updatedAt": "2022-09-29T04:39:01.710Z",
  "networkType": "ethereum",
  "devdoc": {
    "kind": "dev",
    "methods": {},
    "version": 1
  },
  "userdoc": {
    "kind": "user",
    "methods": {},
    "version": 1
  }
}