{
  "contractName": "SimpleStorage",
  "abi": [
    {
      "anonymous": false,
      "inputs": [
        {
          "indexed": false,
          "internalType": "uint256",
          "name": "itemId",
          "type": "uint256"
        },
        {
          "indexed": false,
          "internalType": "uint32",
          "name": "price",
          "type": "uint32"
        },
        {
          "indexed": false,
          "internalType": "string",
          "name": "title",
          "type": "string"
        }
      ],
      "name": "NewItem",
      "type": "event"
    },
    {
      "inputs": [
        {
          "internalType": "uint256",
          "name": "",
          "type": "uint256"
        }
      ],
      "name": "items",
      "outputs": [
        {
          "internalType": "uint32",
          "name": "price",
          "type": "uint32"
        },
        {
          "internalType": "string",
          "name": "title",
          "type": "string"
        }
      ],
      "stateMutability": "view",
      "type": "function",
      "constant": true
    },
    {
      "inputs": [],
      "name": "read",
      "outputs": [
        {
          "internalType": "uint256",
          "name": "",
          "type": "uint256"
        }
      ],
      "stateMutability": "view",
      "type": "function",
      "constant": true
    },
    {
      "inputs": [
        {
          "internalType": "uint256",
          "name": "newValue",
          "type": "uint256"
        }
      ],
      "name": "write",
      "outputs": [],
      "stateMutability": "payable",
      "type": "function",
      "payable": true
    },
    {
      "inputs": [],
      "name": "getMyApple",
      "outputs": [
        {
          "internalType": "uint256",
          "name": "",
          "type": "uint256"
        }
      ],
      "stateMutability": "view",
      "type": "function",
      "constant": true
    },
    {
      "inputs": [
        {
          "internalType": "uint256",
          "name": "_applePrice",
          "type": "uint256"
        }
      ],
      "name": "sellApple",
      "outputs": [],
      "stateMutability": "payable",
      "type": "function",
      "payable": true
    },
    {
      "inputs": [
        {
          "internalType": "uint256",
          "name": "_applePrice",
          "type": "uint256"
        }
      ],
      "name": "sellOneApple",
      "outputs": [],
      "stateMutability": "payable",
      "type": "function",
      "payable": true
    },
    {
      "inputs": [
        {
          "internalType": "uint32",
          "name": "price",
          "type": "uint32"
        },
        {
          "internalType": "string",
          "name": "title",
          "type": "string"
        }
      ],
      "name": "registItem",
      "outputs": [],
      "stateMutability": "nonpayable",
      "type": "function"
    },
    {
      "inputs": [
        {
          "internalType": "address",
          "name": "_address",
          "type": "address"
        }
      ],
      "name": "readItem",
      "outputs": [
        {
          "components": [
            {
              "internalType": "uint32",
              "name": "price",
              "type": "uint32"
            },
            {
              "internalType": "string",
              "name": "title",
              "type": "string"
            }
          ],
          "internalType": "struct SimpleStorage.Item",
          "name": "",
          "type": "tuple"
        }
      ],
      "stateMutability": "view",
      "type": "function",
      "constant": true
    }
  ],
  "bytecode": "0x608060405234801561001057600080fd5b50610e5c806100206000396000f3fe60806040526004361061007b5760003560e01c8063a6e8b5a11161004e578063a6e8b5a11461010c578063aacddd7c14610149578063bfb231d214610174578063db54b74c146101b25761007b565b80632f048afa1461008057806332f0c5911461009c57806357de26a4146100c55780639417bc2c146100f0575b600080fd5b61009a600480360381019061009591906108dd565b6101ce565b005b3480156100a857600080fd5b506100c360048036038101906100be91906109ab565b61022d565b005b3480156100d157600080fd5b506100da61042f565b6040516100e79190610a1a565b60405180910390f35b61010a600480360381019061010591906108dd565b610438565b005b34801561011857600080fd5b50610133600480360381019061012e9190610a93565b6104d7565b6040516101409190610ba5565b60405180910390f35b34801561015557600080fd5b5061015e6105e8565b60405161016b9190610a1a565b60405180910390f35b34801561018057600080fd5b5061019b600480360381019061019691906108dd565b61062f565b6040516101a9929190610c20565b60405180910390f35b6101cc60048036038101906101c791906108dd565b6106fb565b005b80600081905550600160003373ffffffffffffffffffffffffffffffffffffffff1673ffffffffffffffffffffffffffffffffffffffff168152602001908152602001600020600081548092919061022590610c7f565b919050555050565b600260405180604001604052808563ffffffff16815260200184848080601f016020809104026020016040519081016040528093929190818152602001838380828437600081840152601f19601f82011690508083019250505050505050815250908060018154018082558091505060019003906000526020600020906002020160009091909190915060008201518160000160006101000a81548163ffffffff021916908363ffffffff16021790555060208201518160010190805190602001906102fa9291906107da565b50505060405180604001604052808463ffffffff16815260200183838080601f016020809104026020016040519081016040528093929190818152602001838380828437600081840152601f19601f82011690508083019250505050505050815250600360003373ffffffffffffffffffffffffffffffffffffffff1673ffffffffffffffffffffffffffffffffffffffff16815260200190815260200160002060008201518160000160006101000a81548163ffffffff021916908363ffffffff16021790555060208201518160010190805190602001906103de9291906107da565b50905050600060028054905090507f1ffe2006bd8a8dac2289d6e8d86db37884b89394207cad309c141bf48a6654a8818585856040516104219493929190610d03565b60405180910390a150505050565b60008054905090565b600160003373ffffffffffffffffffffffffffffffffffffffff1673ffffffffffffffffffffffffffffffffffffffff168152602001908152602001600020600081548092919061048890610d43565b91905055503373ffffffffffffffffffffffffffffffffffffffff166108fc829081150290604051600060405180830381858888f193505050501580156104d3573d6000803e3d6000fd5b5050565b6104df610860565b600360008373ffffffffffffffffffffffffffffffffffffffff1673ffffffffffffffffffffffffffffffffffffffff1681526020019081526020016000206040518060400160405290816000820160009054906101000a900463ffffffff1663ffffffff1663ffffffff16815260200160018201805461055f90610d9b565b80601f016020809104026020016040519081016040528092919081815260200182805461058b90610d9b565b80156105d85780601f106105ad576101008083540402835291602001916105d8565b820191906000526020600020905b8154815290600101906020018083116105bb57829003601f168201915b5050505050815250509050919050565b6000600160003373ffffffffffffffffffffffffffffffffffffffff1673ffffffffffffffffffffffffffffffffffffffff16815260200190815260200160002054905090565b6002818154811061063f57600080fd5b90600052602060002090600202016000915090508060000160009054906101000a900463ffffffff169080600101805461067890610d9b565b80601f01602080910402602001604051908101604052809291908181526020018280546106a490610d9b565b80156106f15780601f106106c6576101008083540402835291602001916106f1565b820191906000526020600020905b8154815290600101906020018083116106d457829003601f168201915b5050505050905082565b600081600160003373ffffffffffffffffffffffffffffffffffffffff1673ffffffffffffffffffffffffffffffffffffffff168152602001908152602001600020546107489190610dcc565b90506000600160003373ffffffffffffffffffffffffffffffffffffffff1673ffffffffffffffffffffffffffffffffffffffff168152602001908152602001600020819055503373ffffffffffffffffffffffffffffffffffffffff166108fc829081150290604051600060405180830381858888f193505050501580156107d5573d6000803e3d6000fd5b505050565b8280546107e690610d9b565b90600052602060002090601f016020900481019282610808576000855561084f565b82601f1061082157805160ff191683800117855561084f565b8280016001018555821561084f579182015b8281111561084e578251825591602001919060010190610833565b5b50905061085c9190610880565b5090565b6040518060400160405280600063ffffffff168152602001606081525090565b5b80821115610899576000816000905550600101610881565b5090565b600080fd5b600080fd5b6000819050919050565b6108ba816108a7565b81146108c557600080fd5b50565b6000813590506108d7816108b1565b92915050565b6000602082840312156108f3576108f261089d565b5b6000610901848285016108c8565b91505092915050565b600063ffffffff82169050919050565b6109238161090a565b811461092e57600080fd5b50565b6000813590506109408161091a565b92915050565b600080fd5b600080fd5b600080fd5b60008083601f84011261096b5761096a610946565b5b8235905067ffffffffffffffff8111156109885761098761094b565b5b6020830191508360018202830111156109a4576109a3610950565b5b9250929050565b6000806000604084860312156109c4576109c361089d565b5b60006109d286828701610931565b935050602084013567ffffffffffffffff8111156109f3576109f26108a2565b5b6109ff86828701610955565b92509250509250925092565b610a14816108a7565b82525050565b6000602082019050610a2f6000830184610a0b565b92915050565b600073ffffffffffffffffffffffffffffffffffffffff82169050919050565b6000610a6082610a35565b9050919050565b610a7081610a55565b8114610a7b57600080fd5b50565b600081359050610a8d81610a67565b92915050565b600060208284031215610aa957610aa861089d565b5b6000610ab784828501610a7e565b91505092915050565b610ac98161090a565b82525050565b600081519050919050565b600082825260208201905092915050565b60005b83811015610b09578082015181840152602081019050610aee565b83811115610b18576000848401525b50505050565b6000601f19601f8301169050919050565b6000610b3a82610acf565b610b448185610ada565b9350610b54818560208601610aeb565b610b5d81610b1e565b840191505092915050565b6000604083016000830151610b806000860182610ac0565b5060208301518482036020860152610b988282610b2f565b9150508091505092915050565b60006020820190508181036000830152610bbf8184610b68565b905092915050565b610bd08161090a565b82525050565b600082825260208201905092915050565b6000610bf282610acf565b610bfc8185610bd6565b9350610c0c818560208601610aeb565b610c1581610b1e565b840191505092915050565b6000604082019050610c356000830185610bc7565b8181036020830152610c478184610be7565b90509392505050565b7f4e487b7100000000000000000000000000000000000000000000000000000000600052601160045260246000fd5b6000610c8a826108a7565b91507fffffffffffffffffffffffffffffffffffffffffffffffffffffffffffffffff8203610cbc57610cbb610c50565b5b600182019050919050565b82818337600083830152505050565b6000610ce28385610bd6565b9350610cef838584610cc7565b610cf883610b1e565b840190509392505050565b6000606082019050610d186000830187610a0b565b610d256020830186610bc7565b8181036040830152610d38818486610cd6565b905095945050505050565b6000610d4e826108a7565b915060008203610d6157610d60610c50565b5b600182039050919050565b7f4e487b7100000000000000000000000000000000000000000000000000000000600052602260045260246000fd5b60006002820490506001821680610db357607f821691505b602082108103610dc657610dc5610d6c565b5b50919050565b6000610dd7826108a7565b9150610de2836108a7565b9250817fffffffffffffffffffffffffffffffffffffffffffffffffffffffffffffffff0483118215151615610e1b57610e1a610c50565b5b82820290509291505056fea264697066735822122046f51e3133297c585b195ad66955fbbd28ef49fcacfd0d4b6a74ca7b3ead4d7864736f6c634300080e0033",
  "immutableReferences": {},
  "source": "// SPDX-License-Identifier: MIT\npragma solidity >=0.4.22 <0.9.0;\n\ncontract SimpleStorage {\n  uint256 value;\n  mapping(address=>uint) myApple;  //      mapping \n\n  function read() public view returns (uint256) {\n    return value;\n  }\n\n  function write(uint256 newValue) payable public {\n    value = newValue;\n    myApple[msg.sender]++;      //   0   1 \n  }\n  // function buyApple() payable public{\n  //   // msg.sender : contract       \n  //   myApple[msg.sender]++;      //   0   1 \n  // }\n\n  function getMyApple() public view returns(uint){\n    return myApple[msg.sender];\n  }\n\n  function sellApple(uint _applePrice) payable external{\n    uint totalPrice = (myApple[msg.sender] * _applePrice);\n                      //     * \n    myApple[msg.sender] = 0;    //  0 \n    payable(msg.sender).transfer(totalPrice);    //  \n  }\n\n  function sellOneApple(uint _applePrice) payable external {\n    myApple[msg.sender]--;\n    payable(msg.sender).transfer(_applePrice);\n  }\n\n  //////////////////////ssfari campus////////////////////////\n\n  struct Item {\n    uint32 price;\n    string title;\n  }\n\n  event NewItem(uint itemId, uint32 price, string title);\n\n  Item[] public items;\n  mapping(address => Item) ownerToItem;\n\n  function registItem(uint32 price, string calldata title) public {\n    items.push(Item(price, title));\n    ownerToItem[msg.sender] = Item(price, title);\n    uint itemId = items.length;\n    emit NewItem(itemId, price, title);\n  }\n\n  function readItem(address _address) public view returns(Item memory) {\n    return ownerToItem[_address];\n  }\n}\n",
  "sourcePath": "C:\\Users\\multicampus\\Desktop\\S07P22B105\\truffle\\contracts\\SimpleStorage.sol",
  "compiler": {
    "name": "solc",
    "version": "0.8.14+commit.80d49f37.Emscripten.clang"
  },
  "schemaVersion": "3.4.10",
  "updatedAt": "2022-09-29T02:45:50.651Z",
  "networkType": "ethereum",
  "devdoc": {
    "kind": "dev",
    "methods": {},
    "version": 1
  },
  "userdoc": {
    "kind": "user",
    "methods": {},
    "version": 1
  }
}