{
  "contractName": "SsfariFactory",
  "abi": [
    {
      "anonymous": false,
      "inputs": [
        {
          "indexed": false,
          "internalType": "uint256",
          "name": "item_No",
          "type": "uint256"
        },
        {
          "indexed": false,
          "internalType": "string",
          "name": "item_name",
          "type": "string"
        },
        {
          "indexed": false,
          "internalType": "string",
          "name": "oneline_description",
          "type": "string"
        },
        {
          "indexed": false,
          "internalType": "uint32",
          "name": "item_price",
          "type": "uint32"
        },
        {
          "indexed": false,
          "internalType": "string",
          "name": "category",
          "type": "string"
        },
        {
          "indexed": false,
          "internalType": "string",
          "name": "thumbnail_picture",
          "type": "string"
        },
        {
          "indexed": false,
          "internalType": "string",
          "name": "detail_picture",
          "type": "string"
        },
        {
          "indexed": false,
          "internalType": "string",
          "name": "delivery_period",
          "type": "string"
        },
        {
          "indexed": false,
          "internalType": "string",
          "name": "detail_description",
          "type": "string"
        },
        {
          "indexed": false,
          "internalType": "address",
          "name": "seller_address",
          "type": "address"
        },
        {
          "indexed": false,
          "internalType": "string",
          "name": "seller_name",
          "type": "string"
        }
      ],
      "name": "NewItem",
      "type": "event"
    },
    {
      "inputs": [],
      "name": "PurchasePk",
      "outputs": [
        {
          "internalType": "uint256",
          "name": "",
          "type": "uint256"
        }
      ],
      "stateMutability": "view",
      "type": "function",
      "constant": true
    },
    {
      "inputs": [],
      "name": "itemPk",
      "outputs": [
        {
          "internalType": "uint256",
          "name": "",
          "type": "uint256"
        }
      ],
      "stateMutability": "view",
      "type": "function",
      "constant": true
    },
    {
      "inputs": [
        {
          "internalType": "uint256",
          "name": "",
          "type": "uint256"
        }
      ],
      "name": "items",
      "outputs": [
        {
          "internalType": "uint256",
          "name": "item_No",
          "type": "uint256"
        },
        {
          "internalType": "string",
          "name": "item_name",
          "type": "string"
        },
        {
          "internalType": "string",
          "name": "oneline_description",
          "type": "string"
        },
        {
          "internalType": "uint32",
          "name": "item_price",
          "type": "uint32"
        },
        {
          "internalType": "string",
          "name": "category",
          "type": "string"
        },
        {
          "internalType": "string",
          "name": "thumbnail_picture",
          "type": "string"
        },
        {
          "internalType": "string",
          "name": "detail_picture",
          "type": "string"
        },
        {
          "internalType": "string",
          "name": "delivery_period",
          "type": "string"
        },
        {
          "internalType": "string",
          "name": "detail_description",
          "type": "string"
        },
        {
          "internalType": "address",
          "name": "seller_address",
          "type": "address"
        },
        {
          "internalType": "string",
          "name": "seller_name",
          "type": "string"
        }
      ],
      "stateMutability": "view",
      "type": "function",
      "constant": true
    },
    {
      "inputs": [],
      "name": "paid_Pk",
      "outputs": [
        {
          "internalType": "uint256",
          "name": "",
          "type": "uint256"
        }
      ],
      "stateMutability": "view",
      "type": "function",
      "constant": true
    },
    {
      "inputs": [
        {
          "internalType": "uint256",
          "name": "",
          "type": "uint256"
        }
      ],
      "name": "paidcontracts",
      "outputs": [
        {
          "internalType": "uint256",
          "name": "paid_No",
          "type": "uint256"
        },
        {
          "internalType": "uint256",
          "name": "item_No",
          "type": "uint256"
        },
        {
          "internalType": "uint256",
          "name": "purchase_No",
          "type": "uint256"
        },
        {
          "internalType": "address",
          "name": "paid_address",
          "type": "address"
        }
      ],
      "stateMutability": "view",
      "type": "function",
      "constant": true
    },
    {
      "inputs": [
        {
          "internalType": "uint256",
          "name": "",
          "type": "uint256"
        }
      ],
      "name": "purchasecontracts",
      "outputs": [
        {
          "internalType": "uint256",
          "name": "purchase_No",
          "type": "uint256"
        },
        {
          "internalType": "uint256",
          "name": "item_No",
          "type": "uint256"
        },
        {
          "internalType": "address",
          "name": "purchase_address",
          "type": "address"
        },
        {
          "internalType": "string",
          "name": "purchase_name",
          "type": "string"
        },
        {
          "internalType": "string",
          "name": "shipping_address",
          "type": "string"
        },
        {
          "internalType": "uint32",
          "name": "total_people",
          "type": "uint32"
        },
        {
          "internalType": "uint32",
          "name": "paid_people",
          "type": "uint32"
        },
        {
          "internalType": "uint256",
          "name": "total_price",
          "type": "uint256"
        },
        {
          "internalType": "bool",
          "name": "completed",
          "type": "bool"
        },
        {
          "internalType": "uint256",
          "name": "password",
          "type": "uint256"
        }
      ],
      "stateMutability": "view",
      "type": "function",
      "constant": true
    },
    {
      "inputs": [
        {
          "internalType": "string",
          "name": "item_name",
          "type": "string"
        },
        {
          "internalType": "string",
          "name": "oneline_description",
          "type": "string"
        },
        {
          "internalType": "uint32",
          "name": "item_price",
          "type": "uint32"
        },
        {
          "internalType": "string",
          "name": "category",
          "type": "string"
        },
        {
          "internalType": "string",
          "name": "thumbnail_picture",
          "type": "string"
        },
        {
          "internalType": "string",
          "name": "detail_picture",
          "type": "string"
        },
        {
          "internalType": "string",
          "name": "delivery_period",
          "type": "string"
        },
        {
          "internalType": "string",
          "name": "detail_description",
          "type": "string"
        },
        {
          "internalType": "address",
          "name": "seller_address",
          "type": "address"
        },
        {
          "internalType": "string",
          "name": "seller_name",
          "type": "string"
        }
      ],
      "name": "registerItem",
      "outputs": [
        {
          "internalType": "uint256",
          "name": "",
          "type": "uint256"
        }
      ],
      "stateMutability": "nonpayable",
      "type": "function"
    },
    {
      "inputs": [],
      "name": "viewItemNo",
      "outputs": [
        {
          "internalType": "uint256",
          "name": "",
          "type": "uint256"
        }
      ],
      "stateMutability": "view",
      "type": "function",
      "constant": true
    },
    {
      "inputs": [],
      "name": "viewItems",
      "outputs": [
        {
          "components": [
            {
              "internalType": "uint256",
              "name": "item_No",
              "type": "uint256"
            },
            {
              "internalType": "string",
              "name": "item_name",
              "type": "string"
            },
            {
              "internalType": "string",
              "name": "oneline_description",
              "type": "string"
            },
            {
              "internalType": "uint32",
              "name": "item_price",
              "type": "uint32"
            },
            {
              "internalType": "string",
              "name": "category",
              "type": "string"
            },
            {
              "internalType": "string",
              "name": "thumbnail_picture",
              "type": "string"
            },
            {
              "internalType": "string",
              "name": "detail_picture",
              "type": "string"
            },
            {
              "internalType": "string",
              "name": "delivery_period",
              "type": "string"
            },
            {
              "internalType": "string",
              "name": "detail_description",
              "type": "string"
            },
            {
              "internalType": "address",
              "name": "seller_address",
              "type": "address"
            },
            {
              "internalType": "string",
              "name": "seller_name",
              "type": "string"
            }
          ],
          "internalType": "struct SsfariFactory.Item[]",
          "name": "",
          "type": "tuple[]"
        }
      ],
      "stateMutability": "view",
      "type": "function",
      "constant": true
    },
    {
      "inputs": [
        {
          "internalType": "uint256",
          "name": "_item_No",
          "type": "uint256"
        }
      ],
      "name": "viewItemByItemNo",
      "outputs": [
        {
          "components": [
            {
              "internalType": "uint256",
              "name": "item_No",
              "type": "uint256"
            },
            {
              "internalType": "string",
              "name": "item_name",
              "type": "string"
            },
            {
              "internalType": "string",
              "name": "oneline_description",
              "type": "string"
            },
            {
              "internalType": "uint32",
              "name": "item_price",
              "type": "uint32"
            },
            {
              "internalType": "string",
              "name": "category",
              "type": "string"
            },
            {
              "internalType": "string",
              "name": "thumbnail_picture",
              "type": "string"
            },
            {
              "internalType": "string",
              "name": "detail_picture",
              "type": "string"
            },
            {
              "internalType": "string",
              "name": "delivery_period",
              "type": "string"
            },
            {
              "internalType": "string",
              "name": "detail_description",
              "type": "string"
            },
            {
              "internalType": "address",
              "name": "seller_address",
              "type": "address"
            },
            {
              "internalType": "string",
              "name": "seller_name",
              "type": "string"
            }
          ],
          "internalType": "struct SsfariFactory.Item",
          "name": "",
          "type": "tuple"
        }
      ],
      "stateMutability": "view",
      "type": "function",
      "constant": true
    },
    {
      "inputs": [
        {
          "internalType": "address",
          "name": "_seller_address",
          "type": "address"
        }
      ],
      "name": "viewSellerToItem",
      "outputs": [
        {
          "components": [
            {
              "internalType": "uint256",
              "name": "item_No",
              "type": "uint256"
            },
            {
              "internalType": "string",
              "name": "item_name",
              "type": "string"
            },
            {
              "internalType": "string",
              "name": "oneline_description",
              "type": "string"
            },
            {
              "internalType": "uint32",
              "name": "item_price",
              "type": "uint32"
            },
            {
              "internalType": "string",
              "name": "category",
              "type": "string"
            },
            {
              "internalType": "string",
              "name": "thumbnail_picture",
              "type": "string"
            },
            {
              "internalType": "string",
              "name": "detail_picture",
              "type": "string"
            },
            {
              "internalType": "string",
              "name": "delivery_period",
              "type": "string"
            },
            {
              "internalType": "string",
              "name": "detail_description",
              "type": "string"
            },
            {
              "internalType": "address",
              "name": "seller_address",
              "type": "address"
            },
            {
              "internalType": "string",
              "name": "seller_name",
              "type": "string"
            }
          ],
          "internalType": "struct SsfariFactory.Item",
          "name": "",
          "type": "tuple"
        }
      ],
      "stateMutability": "view",
      "type": "function",
      "constant": true
    },
    {
      "inputs": [
        {
          "internalType": "uint256",
          "name": "_item_No",
          "type": "uint256"
        }
      ],
      "name": "deleteItem",
      "outputs": [],
      "stateMutability": "nonpayable",
      "type": "function"
    },
    {
      "inputs": [
        {
          "internalType": "uint256",
          "name": "_item_No",
          "type": "uint256"
        },
        {
          "internalType": "address",
          "name": "_purchase_address",
          "type": "address"
        },
        {
          "internalType": "string",
          "name": "_purchase_name",
          "type": "string"
        },
        {
          "internalType": "string",
          "name": "_shipping_address",
          "type": "string"
        },
        {
          "internalType": "uint32",
          "name": "_total_people",
          "type": "uint32"
        },
        {
          "internalType": "uint32",
          "name": "_paid_people",
          "type": "uint32"
        },
        {
          "internalType": "bool",
          "name": "_completed",
          "type": "bool"
        },
        {
          "internalType": "uint256",
          "name": "_password",
          "type": "uint256"
        }
      ],
      "name": "purchaseItem",
      "outputs": [
        {
          "internalType": "uint256",
          "name": "",
          "type": "uint256"
        }
      ],
      "stateMutability": "payable",
      "type": "function",
      "payable": true
    },
    {
      "inputs": [],
      "name": "viewPurchaseNo",
      "outputs": [
        {
          "internalType": "uint256",
          "name": "",
          "type": "uint256"
        }
      ],
      "stateMutability": "view",
      "type": "function",
      "constant": true
    },
    {
      "inputs": [],
      "name": "viewPurchaseContract",
      "outputs": [
        {
          "components": [
            {
              "internalType": "uint256",
              "name": "purchase_No",
              "type": "uint256"
            },
            {
              "internalType": "uint256",
              "name": "item_No",
              "type": "uint256"
            },
            {
              "internalType": "address",
              "name": "purchase_address",
              "type": "address"
            },
            {
              "internalType": "string",
              "name": "purchase_name",
              "type": "string"
            },
            {
              "internalType": "string",
              "name": "shipping_address",
              "type": "string"
            },
            {
              "internalType": "uint32",
              "name": "total_people",
              "type": "uint32"
            },
            {
              "internalType": "uint32",
              "name": "paid_people",
              "type": "uint32"
            },
            {
              "internalType": "uint256",
              "name": "total_price",
              "type": "uint256"
            },
            {
              "internalType": "bool",
              "name": "completed",
              "type": "bool"
            },
            {
              "internalType": "uint256",
              "name": "password",
              "type": "uint256"
            }
          ],
          "internalType": "struct SsfariFactory.PurchaseContract[]",
          "name": "",
          "type": "tuple[]"
        }
      ],
      "stateMutability": "view",
      "type": "function",
      "constant": true
    },
    {
      "inputs": [
        {
          "internalType": "uint256",
          "name": "purchase_No",
          "type": "uint256"
        }
      ],
      "name": "viewPurchaseContractByPurchaseNod",
      "outputs": [
        {
          "components": [
            {
              "internalType": "uint256",
              "name": "purchase_No",
              "type": "uint256"
            },
            {
              "internalType": "uint256",
              "name": "item_No",
              "type": "uint256"
            },
            {
              "internalType": "address",
              "name": "purchase_address",
              "type": "address"
            },
            {
              "internalType": "string",
              "name": "purchase_name",
              "type": "string"
            },
            {
              "internalType": "string",
              "name": "shipping_address",
              "type": "string"
            },
            {
              "internalType": "uint32",
              "name": "total_people",
              "type": "uint32"
            },
            {
              "internalType": "uint32",
              "name": "paid_people",
              "type": "uint32"
            },
            {
              "internalType": "uint256",
              "name": "total_price",
              "type": "uint256"
            },
            {
              "internalType": "bool",
              "name": "completed",
              "type": "bool"
            },
            {
              "internalType": "uint256",
              "name": "password",
              "type": "uint256"
            }
          ],
          "internalType": "struct SsfariFactory.PurchaseContract",
          "name": "",
          "type": "tuple"
        }
      ],
      "stateMutability": "view",
      "type": "function",
      "constant": true
    },
    {
      "inputs": [
        {
          "internalType": "uint256",
          "name": "_item_No",
          "type": "uint256"
        },
        {
          "internalType": "uint256",
          "name": "_purchase_No",
          "type": "uint256"
        },
        {
          "internalType": "address",
          "name": "_paid_address",
          "type": "address"
        }
      ],
      "name": "paidContract",
      "outputs": [
        {
          "internalType": "uint256",
          "name": "",
          "type": "uint256"
        }
      ],
      "stateMutability": "payable",
      "type": "function",
      "payable": true
    },
    {
      "inputs": [],
      "name": "viewPaidNo",
      "outputs": [
        {
          "internalType": "uint256",
          "name": "",
          "type": "uint256"
        }
      ],
      "stateMutability": "view",
      "type": "function",
      "constant": true
    },
    {
      "inputs": [
        {
          "internalType": "uint256",
          "name": "_paid_No",
          "type": "uint256"
        },
        {
          "internalType": "address",
          "name": "_my_address",
          "type": "address"
        }
      ],
      "name": "paidcancel",
      "outputs": [
        {
          "internalType": "bool",
          "name": "",
          "type": "bool"
        }
      ],
      "stateMutability": "payable",
      "type": "function",
      "payable": true
    },
    {
      "inputs": [
        {
          "internalType": "uint256",
          "name": "_purchase_No",
          "type": "uint256"
        }
      ],
      "name": "confirmContract",
      "outputs": [
        {
          "internalType": "bool",
          "name": "",
          "type": "bool"
        }
      ],
      "stateMutability": "payable",
      "type": "function",
      "payable": true
    },
    {
      "inputs": [],
      "name": "viewPaidContract",
      "outputs": [
        {
          "components": [
            {
              "internalType": "uint256",
              "name": "paid_No",
              "type": "uint256"
            },
            {
              "internalType": "uint256",
              "name": "item_No",
              "type": "uint256"
            },
            {
              "internalType": "uint256",
              "name": "purchase_No",
              "type": "uint256"
            },
            {
              "internalType": "address",
              "name": "paid_address",
              "type": "address"
            }
          ],
          "internalType": "struct SsfariFactory.PaidContract[]",
          "name": "",
          "type": "tuple[]"
        }
      ],
      "stateMutability": "view",
      "type": "function",
      "constant": true
    }
  ],
  "bytecode": "0x608060405234801561001057600080fd5b506147b9806100206000396000f3fe60806040526004361061012a5760003560e01c8063635b641c116100ab57806376093aef1161006f57806376093aef146104075780637cff479514610432578063bfb231d214610462578063ea8f5645146104a9578063f8641cef146104e6578063fa434582146105165761012a565b8063635b641c14610332578063643d75d11461035d578063654fc8331461038857806365b1147b146103b157806372558032146103dc5761012a565b806327b9ef35116100f257806327b9ef351461024457806331e3c6bb146102815780633b5860a8146102ac57806350832cf3146102d757806355dadc78146103075761012a565b80630212c7731461012f5780630c2fa8831461016c5780630e4fae93146101975780632143e523146101d75780632386fc2514610214575b600080fd5b34801561013b57600080fd5b50610156600480360381019061015191906135b5565b61055c565b604051610163919061380a565b60405180910390f35b34801561017857600080fd5b50610181610aa0565b60405161018e9190613930565b60405180910390f35b3480156101a357600080fd5b506101be60048036038101906101b991906135b5565b610b73565b6040516101ce9493929190613970565b60405180910390f35b3480156101e357600080fd5b506101fe60048036038101906101f991906139e1565b610bd3565b60405161020b919061380a565b60405180910390f35b61022e60048036038101906102299190613ba7565b611143565b60405161023b9190613c95565b60405180910390f35b34801561025057600080fd5b5061026b600480360381019061026691906135b5565b61149e565b6040516102789190613da0565b60405180910390f35b34801561028d57600080fd5b506102966116d5565b6040516102a39190613fa4565b60405180910390f35b3480156102b857600080fd5b506102c1611c4b565b6040516102ce9190613c95565b60405180910390f35b6102f160048036038101906102ec9190613fc6565b611c55565b6040516102fe9190613c95565b60405180910390f35b34801561031357600080fd5b5061031c611fab565b60405161032991906141bc565b60405180910390f35b34801561033e57600080fd5b50610347612214565b6040516103549190613c95565b60405180910390f35b34801561036957600080fd5b5061037261221a565b60405161037f9190613c95565b60405180910390f35b34801561039457600080fd5b506103af60048036038101906103aa91906135b5565b612220565b005b3480156103bd57600080fd5b506103c661230e565b6040516103d39190613c95565b60405180910390f35b3480156103e857600080fd5b506103f1612317565b6040516103fe9190613c95565b60405180910390f35b34801561041357600080fd5b5061041c612321565b6040516104299190613c95565b60405180910390f35b61044c600480360381019061044791906135b5565b612327565b60405161045991906141ed565b60405180910390f35b34801561046e57600080fd5b50610489600480360381019061048491906135b5565b612655565b6040516104a09b9a99989796959493929190614261565b60405180910390f35b3480156104b557600080fd5b506104d060048036038101906104cb9190614344565b612b2f565b6040516104dd9190613c95565b60405180910390f35b61050060048036038101906104fb9190614503565b6130be565b60405161050d91906141ed565b60405180910390f35b34801561052257600080fd5b5061053d600480360381019061053891906135b5565b6131da565b6040516105539a99989796959493929190614543565b60405180910390f35b61056461339b565b60026000838152602001908152602001600020604051806101600160405290816000820154815260200160018201805461059d9061461c565b80601f01602080910402602001604051908101604052809291908181526020018280546105c99061461c565b80156106165780601f106105eb57610100808354040283529160200191610616565b820191906000526020600020905b8154815290600101906020018083116105f957829003601f168201915b5050505050815260200160028201805461062f9061461c565b80601f016020809104026020016040519081016040528092919081815260200182805461065b9061461c565b80156106a85780601f1061067d576101008083540402835291602001916106a8565b820191906000526020600020905b81548152906001019060200180831161068b57829003601f168201915b505050505081526020016003820160009054906101000a900463ffffffff1663ffffffff1663ffffffff1681526020016004820180546106e79061461c565b80601f01602080910402602001604051908101604052809291908181526020018280546107139061461c565b80156107605780601f1061073557610100808354040283529160200191610760565b820191906000526020600020905b81548152906001019060200180831161074357829003601f168201915b505050505081526020016005820180546107799061461c565b80601f01602080910402602001604051908101604052809291908181526020018280546107a59061461c565b80156107f25780601f106107c7576101008083540402835291602001916107f2565b820191906000526020600020905b8154815290600101906020018083116107d557829003601f168201915b5050505050815260200160068201805461080b9061461c565b80601f01602080910402602001604051908101604052809291908181526020018280546108379061461c565b80156108845780601f1061085957610100808354040283529160200191610884565b820191906000526020600020905b81548152906001019060200180831161086757829003601f168201915b5050505050815260200160078201805461089d9061461c565b80601f01602080910402602001604051908101604052809291908181526020018280546108c99061461c565b80156109165780601f106108eb57610100808354040283529160200191610916565b820191906000526020600020905b8154815290600101906020018083116108f957829003601f168201915b5050505050815260200160088201805461092f9061461c565b80601f016020809104026020016040519081016040528092919081815260200182805461095b9061461c565b80156109a85780601f1061097d576101008083540402835291602001916109a8565b820191906000526020600020905b81548152906001019060200180831161098b57829003601f168201915b505050505081526020016009820160009054906101000a900473ffffffffffffffffffffffffffffffffffffffff1673ffffffffffffffffffffffffffffffffffffffff1673ffffffffffffffffffffffffffffffffffffffff168152602001600a82018054610a179061461c565b80601f0160208091040260200160405190810160405280929190818152602001828054610a439061461c565b8015610a905780601f10610a6557610100808354040283529160200191610a90565b820191906000526020600020905b815481529060010190602001808311610a7357829003601f168201915b5050505050815250509050919050565b60606009805480602002602001604051908101604052809291908181526020016000905b82821015610b6a57838290600052602060002090600402016040518060800160405290816000820154815260200160018201548152602001600282015481526020016003820160009054906101000a900473ffffffffffffffffffffffffffffffffffffffff1673ffffffffffffffffffffffffffffffffffffffff1673ffffffffffffffffffffffffffffffffffffffff168152505081526020019060010190610ac4565b50505050905090565b60098181548110610b8357600080fd5b90600052602060002090600402016000915090508060000154908060010154908060020154908060030160009054906101000a900473ffffffffffffffffffffffffffffffffffffffff16905084565b610bdb61339b565b600360008373ffffffffffffffffffffffffffffffffffffffff1673ffffffffffffffffffffffffffffffffffffffff1681526020019081526020016000206040518061016001604052908160008201548152602001600182018054610c409061461c565b80601f0160208091040260200160405190810160405280929190818152602001828054610c6c9061461c565b8015610cb95780601f10610c8e57610100808354040283529160200191610cb9565b820191906000526020600020905b815481529060010190602001808311610c9c57829003601f168201915b50505050508152602001600282018054610cd29061461c565b80601f0160208091040260200160405190810160405280929190818152602001828054610cfe9061461c565b8015610d4b5780601f10610d2057610100808354040283529160200191610d4b565b820191906000526020600020905b815481529060010190602001808311610d2e57829003601f168201915b505050505081526020016003820160009054906101000a900463ffffffff1663ffffffff1663ffffffff168152602001600482018054610d8a9061461c565b80601f0160208091040260200160405190810160405280929190818152602001828054610db69061461c565b8015610e035780601f10610dd857610100808354040283529160200191610e03565b820191906000526020600020905b815481529060010190602001808311610de657829003601f168201915b50505050508152602001600582018054610e1c9061461c565b80601f0160208091040260200160405190810160405280929190818152602001828054610e489061461c565b8015610e955780601f10610e6a57610100808354040283529160200191610e95565b820191906000526020600020905b815481529060010190602001808311610e7857829003601f168201915b50505050508152602001600682018054610eae9061461c565b80601f0160208091040260200160405190810160405280929190818152602001828054610eda9061461c565b8015610f275780601f10610efc57610100808354040283529160200191610f27565b820191906000526020600020905b815481529060010190602001808311610f0a57829003601f168201915b50505050508152602001600782018054610f409061461c565b80601f0160208091040260200160405190810160405280929190818152602001828054610f6c9061461c565b8015610fb95780601f10610f8e57610100808354040283529160200191610fb9565b820191906000526020600020905b815481529060010190602001808311610f9c57829003601f168201915b50505050508152602001600882018054610fd29061461c565b80601f0160208091040260200160405190810160405280929190818152602001828054610ffe9061461c565b801561104b5780601f106110205761010080835404028352916020019161104b565b820191906000526020600020905b81548152906001019060200180831161102e57829003601f168201915b505050505081526020016009820160009054906101000a900473ffffffffffffffffffffffffffffffffffffffff1673ffffffffffffffffffffffffffffffffffffffff1673ffffffffffffffffffffffffffffffffffffffff168152602001600a820180546110ba9061461c565b80601f01602080910402602001604051908101604052809291908181526020018280546110e69061461c565b80156111335780601f1061110857610100808354040283529160200191611133565b820191906000526020600020905b81548152906001019060200180831161111657829003601f168201915b5050505050815250509050919050565b6000600580549050600481905550600060018a815481106111675761116661464d565b5b90600052602060002090600b020160030160009054906101000a900463ffffffff1690506000868261119991906146ab565b63ffffffff169050600060405180610140016040528060045481526020018d81526020018c73ffffffffffffffffffffffffffffffffffffffff1681526020018b81526020018a81526020018963ffffffff1681526020018863ffffffff16815260200183815260200187151581526020018681525090506005819080600181540180825580915050600190039060005260206000209060090201600090919091909150600082015181600001556020820151816001015560408201518160020160006101000a81548173ffffffffffffffffffffffffffffffffffffffff021916908373ffffffffffffffffffffffffffffffffffffffff16021790555060608201518160030190805190602001906112b4929190613411565b5060808201518160040190805190602001906112d1929190613411565b5060a08201518160050160006101000a81548163ffffffff021916908363ffffffff16021790555060c08201518160050160046101000a81548163ffffffff021916908363ffffffff16021790555060e082015181600601556101008201518160070160006101000a81548160ff0219169083151502179055506101208201518160080155505080600660006004548152602001908152602001600020600082015181600001556020820151816001015560408201518160020160006101000a81548173ffffffffffffffffffffffffffffffffffffffff021916908373ffffffffffffffffffffffffffffffffffffffff16021790555060608201518160030190805190602001906113e5929190613411565b506080820151816004019080519060200190611402929190613411565b5060a08201518160050160006101000a81548163ffffffff021916908363ffffffff16021790555060c08201518160050160046101000a81548163ffffffff021916908363ffffffff16021790555060e082015181600601556101008201518160070160006101000a81548160ff0219169083151502179055506101208201518160080155905050600454935050505098975050505050505050565b6114a6613497565b600660008381526020019081526020016000206040518061014001604052908160008201548152602001600182015481526020016002820160009054906101000a900473ffffffffffffffffffffffffffffffffffffffff1673ffffffffffffffffffffffffffffffffffffffff1673ffffffffffffffffffffffffffffffffffffffff16815260200160038201805461153f9061461c565b80601f016020809104026020016040519081016040528092919081815260200182805461156b9061461c565b80156115b85780601f1061158d576101008083540402835291602001916115b8565b820191906000526020600020905b81548152906001019060200180831161159b57829003601f168201915b505050505081526020016004820180546115d19061461c565b80601f01602080910402602001604051908101604052809291908181526020018280546115fd9061461c565b801561164a5780601f1061161f5761010080835404028352916020019161164a565b820191906000526020600020905b81548152906001019060200180831161162d57829003601f168201915b505050505081526020016005820160009054906101000a900463ffffffff1663ffffffff1663ffffffff1681526020016005820160049054906101000a900463ffffffff1663ffffffff1663ffffffff168152602001600682015481526020016007820160009054906101000a900460ff161515151581526020016008820154815250509050919050565b60606001805480602002602001604051908101604052809291908181526020016000905b82821015611c4257838290600052602060002090600b020160405180610160016040529081600082015481526020016001820180546117379061461c565b80601f01602080910402602001604051908101604052809291908181526020018280546117639061461c565b80156117b05780601f10611785576101008083540402835291602001916117b0565b820191906000526020600020905b81548152906001019060200180831161179357829003601f168201915b505050505081526020016002820180546117c99061461c565b80601f01602080910402602001604051908101604052809291908181526020018280546117f59061461c565b80156118425780601f1061181757610100808354040283529160200191611842565b820191906000526020600020905b81548152906001019060200180831161182557829003601f168201915b505050505081526020016003820160009054906101000a900463ffffffff1663ffffffff1663ffffffff1681526020016004820180546118819061461c565b80601f01602080910402602001604051908101604052809291908181526020018280546118ad9061461c565b80156118fa5780601f106118cf576101008083540402835291602001916118fa565b820191906000526020600020905b8154815290600101906020018083116118dd57829003601f168201915b505050505081526020016005820180546119139061461c565b80601f016020809104026020016040519081016040528092919081815260200182805461193f9061461c565b801561198c5780601f106119615761010080835404028352916020019161198c565b820191906000526020600020905b81548152906001019060200180831161196f57829003601f168201915b505050505081526020016006820180546119a59061461c565b80601f01602080910402602001604051908101604052809291908181526020018280546119d19061461c565b8015611a1e5780601f106119f357610100808354040283529160200191611a1e565b820191906000526020600020905b815481529060010190602001808311611a0157829003601f168201915b50505050508152602001600782018054611a379061461c565b80601f0160208091040260200160405190810160405280929190818152602001828054611a639061461c565b8015611ab05780601f10611a8557610100808354040283529160200191611ab0565b820191906000526020600020905b815481529060010190602001808311611a9357829003601f168201915b50505050508152602001600882018054611ac99061461c565b80601f0160208091040260200160405190810160405280929190818152602001828054611af59061461c565b8015611b425780601f10611b1757610100808354040283529160200191611b42565b820191906000526020600020905b815481529060010190602001808311611b2557829003601f168201915b505050505081526020016009820160009054906101000a900473ffffffffffffffffffffffffffffffffffffffff1673ffffffffffffffffffffffffffffffffffffffff1673ffffffffffffffffffffffffffffffffffffffff168152602001600a82018054611bb19061461c565b80601f0160208091040260200160405190810160405280929190818152602001828054611bdd9061461c565b8015611c2a5780601f10611bff57610100808354040283529160200191611c2a565b820191906000526020600020905b815481529060010190602001808311611c0d57829003601f168201915b505050505081525050815260200190600101906116f9565b50505050905090565b6000600454905090565b60006009805490506008819055506000604051806080016040528060085481526020018681526020018581526020018473ffffffffffffffffffffffffffffffffffffffff168152509050600981908060018154018082558091505060019003906000526020600020906004020160009091909190915060008201518160000155602082015181600101556040820151816002015560608201518160030160006101000a81548173ffffffffffffffffffffffffffffffffffffffff021916908373ffffffffffffffffffffffffffffffffffffffff16021790555050506000600660008681526020019081526020016000206040518061014001604052908160008201548152602001600182015481526020016002820160009054906101000a900473ffffffffffffffffffffffffffffffffffffffff1673ffffffffffffffffffffffffffffffffffffffff1673ffffffffffffffffffffffffffffffffffffffff168152602001600382018054611dce9061461c565b80601f0160208091040260200160405190810160405280929190818152602001828054611dfa9061461c565b8015611e475780601f10611e1c57610100808354040283529160200191611e47565b820191906000526020600020905b815481529060010190602001808311611e2a57829003601f168201915b50505050508152602001600482018054611e609061461c565b80601f0160208091040260200160405190810160405280929190818152602001828054611e8c9061461c565b8015611ed95780601f10611eae57610100808354040283529160200191611ed9565b820191906000526020600020905b815481529060010190602001808311611ebc57829003601f168201915b505050505081526020016005820160009054906101000a900463ffffffff1663ffffffff1663ffffffff1681526020016005820160049054906101000a900463ffffffff1663ffffffff1663ffffffff168152602001600682015481526020016007820160009054906101000a900460ff16151515158152602001600882015481525050905060001515816101000151151514611f7557600080fd5b60018160c00151611f8691906146e9565b8160c0019063ffffffff16908163ffffffff1681525050600854925050509392505050565b60606005805480602002602001604051908101604052809291908181526020016000905b8282101561220b57838290600052602060002090600902016040518061014001604052908160008201548152602001600182015481526020016002820160009054906101000a900473ffffffffffffffffffffffffffffffffffffffff1673ffffffffffffffffffffffffffffffffffffffff1673ffffffffffffffffffffffffffffffffffffffff16815260200160038201805461206d9061461c565b80601f01602080910402602001604051908101604052809291908181526020018280546120999061461c565b80156120e65780601f106120bb576101008083540402835291602001916120e6565b820191906000526020600020905b8154815290600101906020018083116120c957829003601f168201915b505050505081526020016004820180546120ff9061461c565b80601f016020809104026020016040519081016040528092919081815260200182805461212b9061461c565b80156121785780601f1061214d57610100808354040283529160200191612178565b820191906000526020600020905b81548152906001019060200180831161215b57829003601f168201915b505050505081526020016005820160009054906101000a900463ffffffff1663ffffffff1663ffffffff1681526020016005820160049054906101000a900463ffffffff1663ffffffff1663ffffffff168152602001600682015481526020016007820160009054906101000a900460ff1615151515815260200160088201548152505081526020019060010190611fcf565b50505050905090565b60085481565b60005481565b600181815481106122345761223361464d565b5b90600052602060002090600b020160008082016000905560018201600061225b919061350e565b60028201600061226b919061350e565b6003820160006101000a81549063ffffffff0219169055600482016000612292919061350e565b6005820160006122a2919061350e565b6006820160006122b2919061350e565b6007820160006122c2919061350e565b6008820160006122d2919061350e565b6009820160006101000a81549073ffffffffffffffffffffffffffffffffffffffff0219169055600a82016000612309919061350e565b505050565b60008054905090565b6000600854905090565b60045481565b600080600660008481526020019081526020016000206040518061014001604052908160008201548152602001600182015481526020016002820160009054906101000a900473ffffffffffffffffffffffffffffffffffffffff1673ffffffffffffffffffffffffffffffffffffffff1673ffffffffffffffffffffffffffffffffffffffff1681526020016003820180546123c39061461c565b80601f01602080910402602001604051908101604052809291908181526020018280546123ef9061461c565b801561243c5780601f106124115761010080835404028352916020019161243c565b820191906000526020600020905b81548152906001019060200180831161241f57829003601f168201915b505050505081526020016004820180546124559061461c565b80601f01602080910402602001604051908101604052809291908181526020018280546124819061461c565b80156124ce5780601f106124a3576101008083540402835291602001916124ce565b820191906000526020600020905b8154815290600101906020018083116124b157829003601f168201915b505050505081526020016005820160009054906101000a900463ffffffff1663ffffffff1663ffffffff1681526020016005820160049054906101000a900463ffffffff1663ffffffff1663ffffffff168152602001600682015481526020016007820160009054906101000a900460ff1615151515815260200160088201548152505090508060a0015163ffffffff168160c0015163ffffffff161461257457600080fd5b6000151581610100015115150361258a57600080fd5b600181610100019015159081151581525050600060018260200151815481106125b6576125b561464d565b5b90600052602060002090600b020160090160009054906101000a900473ffffffffffffffffffffffffffffffffffffffff16905060008260e0015190508173ffffffffffffffffffffffffffffffffffffffff166108fc6301312d008361261d9190614752565b9081150290604051600060405180830381858888f19350505050158015612648573d6000803e3d6000fd5b5060019350505050919050565b6001818154811061266557600080fd5b90600052602060002090600b020160009150905080600001549080600101805461268e9061461c565b80601f01602080910402602001604051908101604052809291908181526020018280546126ba9061461c565b80156127075780601f106126dc57610100808354040283529160200191612707565b820191906000526020600020905b8154815290600101906020018083116126ea57829003601f168201915b50505050509080600201805461271c9061461c565b80601f01602080910402602001604051908101604052809291908181526020018280546127489061461c565b80156127955780601f1061276a57610100808354040283529160200191612795565b820191906000526020600020905b81548152906001019060200180831161277857829003601f168201915b5050505050908060030160009054906101000a900463ffffffff16908060040180546127c09061461c565b80601f01602080910402602001604051908101604052809291908181526020018280546127ec9061461c565b80156128395780601f1061280e57610100808354040283529160200191612839565b820191906000526020600020905b81548152906001019060200180831161281c57829003601f168201915b50505050509080600501805461284e9061461c565b80601f016020809104026020016040519081016040528092919081815260200182805461287a9061461c565b80156128c75780601f1061289c576101008083540402835291602001916128c7565b820191906000526020600020905b8154815290600101906020018083116128aa57829003601f168201915b5050505050908060060180546128dc9061461c565b80601f01602080910402602001604051908101604052809291908181526020018280546129089061461c565b80156129555780601f1061292a57610100808354040283529160200191612955565b820191906000526020600020905b81548152906001019060200180831161293857829003601f168201915b50505050509080600701805461296a9061461c565b80601f01602080910402602001604051908101604052809291908181526020018280546129969061461c565b80156129e35780601f106129b8576101008083540402835291602001916129e3565b820191906000526020600020905b8154815290600101906020018083116129c657829003601f168201915b5050505050908060080180546129f89061461c565b80601f0160208091040260200160405190810160405280929190818152602001828054612a249061461c565b8015612a715780601f10612a4657610100808354040283529160200191612a71565b820191906000526020600020905b815481529060010190602001808311612a5457829003601f168201915b5050505050908060090160009054906101000a900473ffffffffffffffffffffffffffffffffffffffff169080600a018054612aac9061461c565b80601f0160208091040260200160405190810160405280929190818152602001828054612ad89061461c565b8015612b255780601f10612afa57610100808354040283529160200191612b25565b820191906000526020600020905b815481529060010190602001808311612b0857829003601f168201915b505050505090508b565b6000600180549050600081905550600060405180610160016040528060005481526020018d81526020018c81526020018b63ffffffff1681526020018a81526020018981526020018881526020018781526020018681526020018573ffffffffffffffffffffffffffffffffffffffff16815260200184815250905060018190806001815401808255809150506001900390600052602060002090600b0201600090919091909150600082015181600001556020820151816001019080519060200190612bfd929190613411565b506040820151816002019080519060200190612c1a929190613411565b5060608201518160030160006101000a81548163ffffffff021916908363ffffffff1602179055506080820151816004019080519060200190612c5e929190613411565b5060a0820151816005019080519060200190612c7b929190613411565b5060c0820151816006019080519060200190612c98929190613411565b5060e0820151816007019080519060200190612cb5929190613411565b50610100820151816008019080519060200190612cd3929190613411565b506101208201518160090160006101000a81548173ffffffffffffffffffffffffffffffffffffffff021916908373ffffffffffffffffffffffffffffffffffffffff16021790555061014082015181600a019080519060200190612d39929190613411565b5050507ffb02e9eaa53354c5a6404690fab7e8419336abedd49bcc22e8f7b5c7d36ecd346000548d8d8d8d8d8d8d8d8d8d604051612d819b9a99989796959493929190614261565b60405180910390a1806002600080548152602001908152602001600020600082015181600001556020820151816001019080519060200190612dc4929190613411565b506040820151816002019080519060200190612de1929190613411565b5060608201518160030160006101000a81548163ffffffff021916908363ffffffff1602179055506080820151816004019080519060200190612e25929190613411565b5060a0820151816005019080519060200190612e42929190613411565b5060c0820151816006019080519060200190612e5f929190613411565b5060e0820151816007019080519060200190612e7c929190613411565b50610100820151816008019080519060200190612e9a929190613411565b506101208201518160090160006101000a81548173ffffffffffffffffffffffffffffffffffffffff021916908373ffffffffffffffffffffffffffffffffffffffff16021790555061014082015181600a019080519060200190612f00929190613411565b5090505080600360008673ffffffffffffffffffffffffffffffffffffffff1673ffffffffffffffffffffffffffffffffffffffff168152602001908152602001600020600082015181600001556020820151816001019080519060200190612f6a929190613411565b506040820151816002019080519060200190612f87929190613411565b5060608201518160030160006101000a81548163ffffffff021916908363ffffffff1602179055506080820151816004019080519060200190612fcb929190613411565b5060a0820151816005019080519060200190612fe8929190613411565b5060c0820151816006019080519060200190613005929190613411565b5060e0820151816007019080519060200190613022929190613411565b50610100820151816008019080519060200190613040929190613411565b506101208201518160090160006101000a81548173ffffffffffffffffffffffffffffffffffffffff021916908373ffffffffffffffffffffffffffffffffffffffff16021790555061014082015181600a0190805190602001906130a6929190613411565b509050506000549150509a9950505050505050505050565b6000806001600985815481106130d7576130d661464d565b5b906000526020600020906004020160010154815481106130fa576130f961464d565b5b90600052602060002090600b020160030160009054906101000a900463ffffffff1690508273ffffffffffffffffffffffffffffffffffffffff166108fc8263ffffffff169081150290604051600060405180830381858888f1935050505015801561316a573d6000803e3d6000fd5b506009848154811061317f5761317e61464d565b5b9060005260206000209060040201600080820160009055600182016000905560028201600090556003820160006101000a81549073ffffffffffffffffffffffffffffffffffffffff02191690555050600191505092915050565b600581815481106131ea57600080fd5b90600052602060002090600902016000915090508060000154908060010154908060020160009054906101000a900473ffffffffffffffffffffffffffffffffffffffff169080600301805461323f9061461c565b80601f016020809104026020016040519081016040528092919081815260200182805461326b9061461c565b80156132b85780601f1061328d576101008083540402835291602001916132b8565b820191906000526020600020905b81548152906001019060200180831161329b57829003601f168201915b5050505050908060040180546132cd9061461c565b80601f01602080910402602001604051908101604052809291908181526020018280546132f99061461c565b80156133465780601f1061331b57610100808354040283529160200191613346565b820191906000526020600020905b81548152906001019060200180831161332957829003601f168201915b5050505050908060050160009054906101000a900463ffffffff16908060050160049054906101000a900463ffffffff16908060060154908060070160009054906101000a900460ff1690806008015490508a565b604051806101600160405280600081526020016060815260200160608152602001600063ffffffff1681526020016060815260200160608152602001606081526020016060815260200160608152602001600073ffffffffffffffffffffffffffffffffffffffff168152602001606081525090565b82805461341d9061461c565b90600052602060002090601f01602090048101928261343f5760008555613486565b82601f1061345857805160ff1916838001178555613486565b82800160010185558215613486579182015b8281111561348557825182559160200191906001019061346a565b5b509050613493919061354e565b5090565b6040518061014001604052806000815260200160008152602001600073ffffffffffffffffffffffffffffffffffffffff1681526020016060815260200160608152602001600063ffffffff168152602001600063ffffffff16815260200160008152602001600015158152602001600081525090565b50805461351a9061461c565b6000825580601f1061352c575061354b565b601f01602090049060005260206000209081019061354a919061354e565b5b50565b5b8082111561356757600081600090555060010161354f565b5090565b6000604051905090565b600080fd5b600080fd5b6000819050919050565b6135928161357f565b811461359d57600080fd5b50565b6000813590506135af81613589565b92915050565b6000602082840312156135cb576135ca613575565b5b60006135d9848285016135a0565b91505092915050565b6135eb8161357f565b82525050565b600081519050919050565b600082825260208201905092915050565b60005b8381101561362b578082015181840152602081019050613610565b8381111561363a576000848401525b50505050565b6000601f19601f8301169050919050565b600061365c826135f1565b61366681856135fc565b935061367681856020860161360d565b61367f81613640565b840191505092915050565b600063ffffffff82169050919050565b6136a38161368a565b82525050565b600073ffffffffffffffffffffffffffffffffffffffff82169050919050565b60006136d4826136a9565b9050919050565b6136e4816136c9565b82525050565b60006101608301600083015161370360008601826135e2565b506020830151848203602086015261371b8282613651565b915050604083015184820360408601526137358282613651565b915050606083015161374a606086018261369a565b50608083015184820360808601526137628282613651565b91505060a083015184820360a086015261377c8282613651565b91505060c083015184820360c08601526137968282613651565b91505060e083015184820360e08601526137b08282613651565b9150506101008301518482036101008601526137cc8282613651565b9150506101208301516137e36101208601826136db565b506101408301518482036101408601526137fd8282613651565b9150508091505092915050565b6000602082019050818103600083015261382481846136ea565b905092915050565b600081519050919050565b600082825260208201905092915050565b6000819050602082019050919050565b60808201600082015161386e60008501826135e2565b50602082015161388160208501826135e2565b50604082015161389460408501826135e2565b5060608201516138a760608501826136db565b50505050565b60006138b98383613858565b60808301905092915050565b6000602082019050919050565b60006138dd8261382c565b6138e78185613837565b93506138f283613848565b8060005b8381101561392357815161390a88826138ad565b9750613915836138c5565b9250506001810190506138f6565b5085935050505092915050565b6000602082019050818103600083015261394a81846138d2565b905092915050565b61395b8161357f565b82525050565b61396a816136c9565b82525050565b60006080820190506139856000830187613952565b6139926020830186613952565b61399f6040830185613952565b6139ac6060830184613961565b95945050505050565b6139be816136c9565b81146139c957600080fd5b50565b6000813590506139db816139b5565b92915050565b6000602082840312156139f7576139f6613575565b5b6000613a05848285016139cc565b91505092915050565b600080fd5b600080fd5b7f4e487b7100000000000000000000000000000000000000000000000000000000600052604160045260246000fd5b613a5082613640565b810181811067ffffffffffffffff82111715613a6f57613a6e613a18565b5b80604052505050565b6000613a8261356b565b9050613a8e8282613a47565b919050565b600067ffffffffffffffff821115613aae57613aad613a18565b5b613ab782613640565b9050602081019050919050565b82818337600083830152505050565b6000613ae6613ae184613a93565b613a78565b905082815260208101848484011115613b0257613b01613a13565b5b613b0d848285613ac4565b509392505050565b600082601f830112613b2a57613b29613a0e565b5b8135613b3a848260208601613ad3565b91505092915050565b613b4c8161368a565b8114613b5757600080fd5b50565b600081359050613b6981613b43565b92915050565b60008115159050919050565b613b8481613b6f565b8114613b8f57600080fd5b50565b600081359050613ba181613b7b565b92915050565b600080600080600080600080610100898b031215613bc857613bc7613575565b5b6000613bd68b828c016135a0565b9850506020613be78b828c016139cc565b975050604089013567ffffffffffffffff811115613c0857613c0761357a565b5b613c148b828c01613b15565b965050606089013567ffffffffffffffff811115613c3557613c3461357a565b5b613c418b828c01613b15565b9550506080613c528b828c01613b5a565b94505060a0613c638b828c01613b5a565b93505060c0613c748b828c01613b92565b92505060e0613c858b828c016135a0565b9150509295985092959890939650565b6000602082019050613caa6000830184613952565b92915050565b613cb981613b6f565b82525050565b600061014083016000830151613cd860008601826135e2565b506020830151613ceb60208601826135e2565b506040830151613cfe60408601826136db565b5060608301518482036060860152613d168282613651565b91505060808301518482036080860152613d308282613651565b91505060a0830151613d4560a086018261369a565b5060c0830151613d5860c086018261369a565b5060e0830151613d6b60e08601826135e2565b50610100830151613d80610100860182613cb0565b50610120830151613d956101208601826135e2565b508091505092915050565b60006020820190508181036000830152613dba8184613cbf565b905092915050565b600081519050919050565b600082825260208201905092915050565b6000819050602082019050919050565b600061016083016000830151613e0760008601826135e2565b5060208301518482036020860152613e1f8282613651565b91505060408301518482036040860152613e398282613651565b9150506060830151613e4e606086018261369a565b5060808301518482036080860152613e668282613651565b91505060a083015184820360a0860152613e808282613651565b91505060c083015184820360c0860152613e9a8282613651565b91505060e083015184820360e0860152613eb48282613651565b915050610100830151848203610100860152613ed08282613651565b915050610120830151613ee76101208601826136db565b50610140830151848203610140860152613f018282613651565b9150508091505092915050565b6000613f1a8383613dee565b905092915050565b6000602082019050919050565b6000613f3a82613dc2565b613f448185613dcd565b935083602082028501613f5685613dde565b8060005b85811015613f925784840389528151613f738582613f0e565b9450613f7e83613f22565b925060208a01995050600181019050613f5a565b50829750879550505050505092915050565b60006020820190508181036000830152613fbe8184613f2f565b905092915050565b600080600060608486031215613fdf57613fde613575565b5b6000613fed868287016135a0565b9350506020613ffe868287016135a0565b925050604061400f868287016139cc565b9150509250925092565b600081519050919050565b600082825260208201905092915050565b6000819050602082019050919050565b60006101408301600083015161405e60008601826135e2565b50602083015161407160208601826135e2565b50604083015161408460408601826136db565b506060830151848203606086015261409c8282613651565b915050608083015184820360808601526140b68282613651565b91505060a08301516140cb60a086018261369a565b5060c08301516140de60c086018261369a565b5060e08301516140f160e08601826135e2565b50610100830151614106610100860182613cb0565b5061012083015161411b6101208601826135e2565b508091505092915050565b60006141328383614045565b905092915050565b6000602082019050919050565b600061415282614019565b61415c8185614024565b93508360208202850161416e85614035565b8060005b858110156141aa578484038952815161418b8582614126565b94506141968361413a565b925060208a01995050600181019050614172565b50829750879550505050505092915050565b600060208201905081810360008301526141d68184614147565b905092915050565b6141e781613b6f565b82525050565b600060208201905061420260008301846141de565b92915050565b600082825260208201905092915050565b6000614224826135f1565b61422e8185614208565b935061423e81856020860161360d565b61424781613640565b840191505092915050565b61425b8161368a565b82525050565b600061016082019050614277600083018e613952565b8181036020830152614289818d614219565b9050818103604083015261429d818c614219565b90506142ac606083018b614252565b81810360808301526142be818a614219565b905081810360a08301526142d28189614219565b905081810360c08301526142e68188614219565b905081810360e08301526142fa8187614219565b905081810361010083015261430f8186614219565b905061431f610120830185613961565b8181036101408301526143328184614219565b90509c9b505050505050505050505050565b6000806000806000806000806000806101408b8d03121561436857614367613575565b5b60008b013567ffffffffffffffff8111156143865761438561357a565b5b6143928d828e01613b15565b9a505060208b013567ffffffffffffffff8111156143b3576143b261357a565b5b6143bf8d828e01613b15565b99505060406143d08d828e01613b5a565b98505060608b013567ffffffffffffffff8111156143f1576143f061357a565b5b6143fd8d828e01613b15565b97505060808b013567ffffffffffffffff81111561441e5761441d61357a565b5b61442a8d828e01613b15565b96505060a08b013567ffffffffffffffff81111561444b5761444a61357a565b5b6144578d828e01613b15565b95505060c08b013567ffffffffffffffff8111156144785761447761357a565b5b6144848d828e01613b15565b94505060e08b013567ffffffffffffffff8111156144a5576144a461357a565b5b6144b18d828e01613b15565b9350506101006144c38d828e016139cc565b9250506101208b013567ffffffffffffffff8111156144e5576144e461357a565b5b6144f18d828e01613b15565b9150509295989b9194979a5092959850565b6000806040838503121561451a57614519613575565b5b6000614528858286016135a0565b9250506020614539858286016139cc565b9150509250929050565b600061014082019050614559600083018d613952565b614566602083018c613952565b614573604083018b613961565b8181036060830152614585818a614219565b905081810360808301526145998189614219565b90506145a860a0830188614252565b6145b560c0830187614252565b6145c260e0830186613952565b6145d06101008301856141de565b6145de610120830184613952565b9b9a5050505050505050505050565b7f4e487b7100000000000000000000000000000000000000000000000000000000600052602260045260246000fd5b6000600282049050600182168061463457607f821691505b602082108103614647576146466145ed565b5b50919050565b7f4e487b7100000000000000000000000000000000000000000000000000000000600052603260045260246000fd5b7f4e487b7100000000000000000000000000000000000000000000000000000000600052601160045260246000fd5b60006146b68261368a565b91506146c18361368a565b92508163ffffffff04831182151516156146de576146dd61467c565b5b828202905092915050565b60006146f48261368a565b91506146ff8361368a565b92508263ffffffff038211156147185761471761467c565b5b828201905092915050565b7f4e487b7100000000000000000000000000000000000000000000000000000000600052601260045260246000fd5b600061475d8261357f565b91506147688361357f565b92508261477857614777614723565b5b82820490509291505056fea2646970667358221220b740e83131a659b8dee633dfbb48d961488682d1bfade01b1f702e1de11e12a564736f6c634300080e0033",
  "immutableReferences": {},
  "source": "// SPDX-License-Identifier: MIT\r\npragma solidity >=0.4.22 <0.9.0;\r\n\r\ncontract SsfariFactory {\r\n  struct Item {\r\n    uint item_No;\r\n    string item_name;\r\n    string oneline_description;\r\n    uint32 item_price;\r\n    string category;\r\n    string thumbnail_picture;\r\n    string detail_picture;\r\n    string delivery_period;\r\n    string detail_description;\r\n    address seller_address;\r\n    string seller_name;\r\n  }\r\n\r\n  //  event\r\n  event NewItem(uint item_No, string item_name, string oneline_description, \r\n                        uint32 item_price, string category,\r\n                        string thumbnail_picture, string detail_picture, \r\n                        string delivery_period, string detail_description, address seller_address, string seller_name);\r\n\r\n  //  variable\r\n  uint public itemPk;\r\n  Item[] public items;\r\n\r\n  //  map\r\n  mapping(uint => Item) itemNoToItem;\r\n  mapping(address => Item) sellerToItem;\r\n  // mapping(address => Item) paidaddrToItem;\r\n  //  variable\r\n  uint public PurchasePk;\r\n  PurchaseContract[] public purchasecontracts;\r\n  //  map\r\n  mapping(uint => PurchaseContract) purchaseNoToPurchaseContract;\r\n  mapping(address => PurchaseContract) paidToPurchaseContract;\r\n  //  variable\r\n  uint public paid_Pk;\r\n  PaidContract[] public paidcontracts;\r\n  //  map\r\n\r\n  \r\n  //  :   \r\n  function registerItem(string memory item_name, string memory oneline_description, \r\n                        uint32 item_price, string memory category,\r\n                        string memory thumbnail_picture, string memory detail_picture, \r\n                        string memory delivery_period, string memory detail_description, \r\n                        address seller_address, string memory seller_name) public returns (uint){\r\n    itemPk = items.length;\r\n    Item memory item = Item(itemPk, item_name, oneline_description, \r\n                        item_price, category, thumbnail_picture,detail_picture, \r\n                        delivery_period ,detail_description, \r\n                        seller_address, seller_name);\r\n    items.push(item);\r\n    emit NewItem(itemPk, item_name, oneline_description, \r\n                  item_price, category,\r\n                  thumbnail_picture, detail_picture, \r\n                  delivery_period, detail_description, seller_address, seller_name);\r\n    itemNoToItem[itemPk]= item;\r\n    sellerToItem[seller_address] = item;\r\n    return itemPk;\r\n  }\r\n  //  :     \r\n  function viewItemNo() public view returns (uint) {\r\n    return itemPk;\r\n  }\r\n  //  :   \r\n  function viewItems() public view returns (Item[] memory) {\r\n    return items;\r\n  }\r\n    //  :  \r\n  function viewItemByItemNo(uint _item_No) public view returns (Item memory) {\r\n    return itemNoToItem[_item_No];\r\n  }\r\n  //   \r\n  function viewSellerToItem(address _seller_address) public view returns (Item memory) {\r\n    return sellerToItem[_seller_address];\r\n  }\r\n  //  :  ( )\r\n  // function editItem(uint item_No, string memory item_name, string memory oneline_description, \r\n  //                   uint32 item_price, string memory category,\r\n  //                   string memory thumbnail_picture, string memory detail_picture, \r\n  //                   string memory delivery_period, uint32 sales_unit, \r\n  //                   string memory item_origin, string memory detail_description, address seller_address) public view returns (Item memory) {\r\n  //   Item memory selectItem = items[item_No];\r\n  //   selectItem.item_name = item_name;\r\n  //   selectItem.oneline_description = oneline_description;\r\n  //   selectItem.item_price = item_price;\r\n  //   selectItem.category = category;\r\n  //   selectItem.thumbnail_picture = thumbnail_picture;\r\n  //   selectItem.detail_picture = detail_picture;\r\n  //   selectItem.delivery_period = delivery_period;\r\n  //   selectItem.sales_unit = sales_unit;\r\n  //   selectItem.item_origin = item_origin;\r\n  //   selectItem.detail_description = detail_description;\r\n\r\n  //   items[item_No] = selectItem;\r\n  //   sellerToItem[seller_address] = selectItem;\r\n  //   return selectItem;\r\n  // }\r\n\r\n  //  :   ( items length  .)\r\n  function deleteItem(uint _item_No) public {\r\n    delete items[_item_No];\r\n  }\r\n\r\n  //  :    >  ( )\r\n  function purchaseItem(uint _item_No, address _purchase_address, string memory _purchase_name, string memory _shipping_address, uint32 _total_people, uint32 _paid_people, bool _completed, uint _password) payable public returns (uint){\r\n    PurchasePk = purchasecontracts.length;\r\n    uint32 puchaseContractPrice = items[_item_No].item_price;\r\n    uint _total_price = puchaseContractPrice * _total_people;\r\n    PurchaseContract memory purchaseContract = PurchaseContract(PurchasePk, _item_No, _purchase_address, _purchase_name, _shipping_address, _total_people,  _paid_people, _total_price, _completed, _password);\r\n    purchasecontracts.push(purchaseContract);\r\n    \r\n    // Item memory item = items[_item_No];\r\n    purchaseNoToPurchaseContract[PurchasePk] = purchaseContract;\r\n    return PurchasePk;\r\n  }\r\n\r\n  //  :    \r\n  function viewPurchaseNo() public view returns (uint) {\r\n    return PurchasePk;\r\n  }\r\n  //  :  /  \r\n  struct PurchaseContract {\r\n    uint purchase_No;\r\n    uint item_No;\r\n    address purchase_address;\r\n    string purchase_name;\r\n    string shipping_address;\r\n    uint32 total_people;\r\n    uint32 paid_people;\r\n    uint total_price;\r\n    bool completed;\r\n    uint password;\r\n  }\r\n\r\n  struct PaidContract {\r\n    uint paid_No;\r\n    uint item_No;\r\n    uint purchase_No;\r\n    address paid_address;\r\n  }\r\n\r\n  //  :  \r\n  function viewPurchaseContract() public view returns (PurchaseContract[] memory) {\r\n    return purchasecontracts;\r\n  }\r\n  //  :  \r\n  function viewPurchaseContractByPurchaseNod(uint purchase_No) public view returns (PurchaseContract memory) {\r\n    return purchaseNoToPurchaseContract[purchase_No];\r\n  }\r\n  //  :   (  ) from    .\r\n  function paidContract(uint _item_No, uint _purchase_No, address _paid_address) payable external returns (uint) {\r\n    paid_Pk = paidcontracts.length;\r\n    PaidContract memory paidcontract = PaidContract(paid_Pk, _item_No, _purchase_No, _paid_address);\r\n    paidcontracts.push(paidcontract);\r\n    \r\n    PurchaseContract memory purchasContract = purchaseNoToPurchaseContract[_purchase_No];\r\n    require(purchasContract.completed == false);\r\n    purchasContract.paid_people = purchasContract.paid_people + 1;\r\n    return paid_Pk;\r\n  }\r\n  //  :    No\r\n  function viewPaidNo() public view returns (uint) {\r\n    return paid_Pk;\r\n  }\r\n  //  :   (  )\r\n  function paidcancel(uint _paid_No, address _my_address) payable public returns (bool) {\r\n    uint32 amount = items[paidcontracts[_paid_No].item_No].item_price;\r\n    payable(_my_address).transfer(amount);\r\n    delete paidcontracts[_paid_No];\r\n    return true;\r\n  }\r\n  //  :   ( ) => ( ) \r\n  function confirmContract(uint _purchase_No) payable external returns (bool) {\r\n    PurchaseContract memory purchasContract = purchaseNoToPurchaseContract[_purchase_No];\r\n    require(purchasContract.paid_people == purchasContract.total_people);\r\n    require(purchasContract.completed != false);\r\n    purchasContract.completed = true;\r\n    address selleradd = items[purchasContract.item_No].seller_address;\r\n    uint sellerprice = purchasContract.total_price;    \r\n    payable(selleradd).transfer(sellerprice/20000000);\r\n\r\n    return true;\r\n  }\r\n  //  :    \r\n  function viewPaidContract() public view returns (PaidContract[] memory) {\r\n    return paidcontracts;\r\n   }\r\n\r\n  //  :    \r\n  // function transactionHistory() public view returns (PaidContract[] memory){\r\n  //   return paidcontracts;\r\n  //  }\r\n}\r\n",
  "sourcePath": "C:\\Users\\multicampus\\Desktop\\test444\\truffle\\contracts\\SsfariFactory.sol",
  "compiler": {
    "name": "solc",
    "version": "0.8.14+commit.80d49f37.Emscripten.clang"
  },
  "schemaVersion": "3.4.10",
  "updatedAt": "2022-10-03T08:35:15.408Z",
  "networkType": "ethereum",
  "devdoc": {
    "kind": "dev",
    "methods": {},
    "version": 1
  },
  "userdoc": {
    "kind": "user",
    "methods": {},
    "version": 1
  }
}