{
  "contractName": "SsfariFactory",
  "abi": [
    {
      "anonymous": false,
      "inputs": [
        {
          "indexed": false,
          "internalType": "uint256",
          "name": "item_No",
          "type": "uint256"
        },
        {
          "indexed": false,
          "internalType": "string",
          "name": "item_name",
          "type": "string"
        },
        {
          "indexed": false,
          "internalType": "string",
          "name": "oneline_description",
          "type": "string"
        },
        {
          "indexed": false,
          "internalType": "uint32",
          "name": "item_price",
          "type": "uint32"
        },
        {
          "indexed": false,
          "internalType": "string",
          "name": "category",
          "type": "string"
        },
        {
          "indexed": false,
          "internalType": "string",
          "name": "thumbnail_picture",
          "type": "string"
        },
        {
          "indexed": false,
          "internalType": "string",
          "name": "detail_picture",
          "type": "string"
        },
        {
          "indexed": false,
          "internalType": "string",
          "name": "delivery_period",
          "type": "string"
        },
        {
          "indexed": false,
          "internalType": "uint32",
          "name": "sales_unit",
          "type": "uint32"
        },
        {
          "indexed": false,
          "internalType": "string",
          "name": "item_origin",
          "type": "string"
        },
        {
          "indexed": false,
          "internalType": "string",
          "name": "detail_description",
          "type": "string"
        },
        {
          "indexed": false,
          "internalType": "address",
          "name": "seller_address",
          "type": "address"
        }
      ],
      "name": "NewItem",
      "type": "event"
    },
    {
      "inputs": [],
      "name": "PurchasePk",
      "outputs": [
        {
          "internalType": "uint256",
          "name": "",
          "type": "uint256"
        }
      ],
      "stateMutability": "view",
      "type": "function",
      "constant": true
    },
    {
      "inputs": [],
      "name": "itemPk",
      "outputs": [
        {
          "internalType": "uint256",
          "name": "",
          "type": "uint256"
        }
      ],
      "stateMutability": "view",
      "type": "function",
      "constant": true
    },
    {
      "inputs": [
        {
          "internalType": "uint256",
          "name": "",
          "type": "uint256"
        }
      ],
      "name": "items",
      "outputs": [
        {
          "internalType": "uint256",
          "name": "item_No",
          "type": "uint256"
        },
        {
          "internalType": "string",
          "name": "item_name",
          "type": "string"
        },
        {
          "internalType": "string",
          "name": "oneline_description",
          "type": "string"
        },
        {
          "internalType": "uint32",
          "name": "item_price",
          "type": "uint32"
        },
        {
          "internalType": "string",
          "name": "category",
          "type": "string"
        },
        {
          "internalType": "string",
          "name": "thumbnail_picture",
          "type": "string"
        },
        {
          "internalType": "string",
          "name": "detail_picture",
          "type": "string"
        },
        {
          "internalType": "string",
          "name": "delivery_period",
          "type": "string"
        },
        {
          "internalType": "uint32",
          "name": "sales_unit",
          "type": "uint32"
        },
        {
          "internalType": "string",
          "name": "item_origin",
          "type": "string"
        },
        {
          "internalType": "string",
          "name": "detail_description",
          "type": "string"
        },
        {
          "internalType": "address",
          "name": "seller_address",
          "type": "address"
        }
      ],
      "stateMutability": "view",
      "type": "function",
      "constant": true
    },
    {
      "inputs": [
        {
          "internalType": "uint256",
          "name": "",
          "type": "uint256"
        }
      ],
      "name": "purchasecontracts",
      "outputs": [
        {
          "internalType": "uint256",
          "name": "purchase_No",
          "type": "uint256"
        },
        {
          "internalType": "uint256",
          "name": "item_No",
          "type": "uint256"
        },
        {
          "internalType": "address",
          "name": "purchase_address",
          "type": "address"
        },
        {
          "internalType": "string",
          "name": "shipping_address",
          "type": "string"
        },
        {
          "internalType": "uint32",
          "name": "total_people",
          "type": "uint32"
        },
        {
          "internalType": "uint32",
          "name": "paid_people",
          "type": "uint32"
        },
        {
          "internalType": "uint256",
          "name": "total_price",
          "type": "uint256"
        },
        {
          "internalType": "bool",
          "name": "completed",
          "type": "bool"
        }
      ],
      "stateMutability": "view",
      "type": "function",
      "constant": true
    },
    {
      "inputs": [
        {
          "internalType": "string",
          "name": "item_name",
          "type": "string"
        },
        {
          "internalType": "string",
          "name": "oneline_description",
          "type": "string"
        },
        {
          "internalType": "uint32",
          "name": "item_price",
          "type": "uint32"
        },
        {
          "internalType": "string",
          "name": "category",
          "type": "string"
        },
        {
          "internalType": "string",
          "name": "thumbnail_picture",
          "type": "string"
        },
        {
          "internalType": "string",
          "name": "detail_picture",
          "type": "string"
        },
        {
          "internalType": "string",
          "name": "delivery_period",
          "type": "string"
        },
        {
          "internalType": "uint32",
          "name": "sales_unit",
          "type": "uint32"
        },
        {
          "internalType": "string",
          "name": "item_origin",
          "type": "string"
        },
        {
          "internalType": "string",
          "name": "detail_description",
          "type": "string"
        },
        {
          "internalType": "address",
          "name": "seller_address",
          "type": "address"
        }
      ],
      "name": "registerItem",
      "outputs": [
        {
          "internalType": "uint256",
          "name": "",
          "type": "uint256"
        }
      ],
      "stateMutability": "nonpayable",
      "type": "function"
    },
    {
      "inputs": [],
      "name": "viewItems",
      "outputs": [
        {
          "components": [
            {
              "internalType": "uint256",
              "name": "item_No",
              "type": "uint256"
            },
            {
              "internalType": "string",
              "name": "item_name",
              "type": "string"
            },
            {
              "internalType": "string",
              "name": "oneline_description",
              "type": "string"
            },
            {
              "internalType": "uint32",
              "name": "item_price",
              "type": "uint32"
            },
            {
              "internalType": "string",
              "name": "category",
              "type": "string"
            },
            {
              "internalType": "string",
              "name": "thumbnail_picture",
              "type": "string"
            },
            {
              "internalType": "string",
              "name": "detail_picture",
              "type": "string"
            },
            {
              "internalType": "string",
              "name": "delivery_period",
              "type": "string"
            },
            {
              "internalType": "uint32",
              "name": "sales_unit",
              "type": "uint32"
            },
            {
              "internalType": "string",
              "name": "item_origin",
              "type": "string"
            },
            {
              "internalType": "string",
              "name": "detail_description",
              "type": "string"
            },
            {
              "internalType": "address",
              "name": "seller_address",
              "type": "address"
            }
          ],
          "internalType": "struct SsfariFactory.Item[]",
          "name": "",
          "type": "tuple[]"
        }
      ],
      "stateMutability": "view",
      "type": "function",
      "constant": true
    },
    {
      "inputs": [
        {
          "internalType": "uint256",
          "name": "_item_No",
          "type": "uint256"
        }
      ],
      "name": "viewItemByItemNo",
      "outputs": [
        {
          "components": [
            {
              "internalType": "uint256",
              "name": "item_No",
              "type": "uint256"
            },
            {
              "internalType": "string",
              "name": "item_name",
              "type": "string"
            },
            {
              "internalType": "string",
              "name": "oneline_description",
              "type": "string"
            },
            {
              "internalType": "uint32",
              "name": "item_price",
              "type": "uint32"
            },
            {
              "internalType": "string",
              "name": "category",
              "type": "string"
            },
            {
              "internalType": "string",
              "name": "thumbnail_picture",
              "type": "string"
            },
            {
              "internalType": "string",
              "name": "detail_picture",
              "type": "string"
            },
            {
              "internalType": "string",
              "name": "delivery_period",
              "type": "string"
            },
            {
              "internalType": "uint32",
              "name": "sales_unit",
              "type": "uint32"
            },
            {
              "internalType": "string",
              "name": "item_origin",
              "type": "string"
            },
            {
              "internalType": "string",
              "name": "detail_description",
              "type": "string"
            },
            {
              "internalType": "address",
              "name": "seller_address",
              "type": "address"
            }
          ],
          "internalType": "struct SsfariFactory.Item",
          "name": "",
          "type": "tuple"
        }
      ],
      "stateMutability": "view",
      "type": "function",
      "constant": true
    },
    {
      "inputs": [
        {
          "internalType": "address",
          "name": "_seller_address",
          "type": "address"
        }
      ],
      "name": "viewSellerToItem",
      "outputs": [
        {
          "components": [
            {
              "internalType": "uint256",
              "name": "item_No",
              "type": "uint256"
            },
            {
              "internalType": "string",
              "name": "item_name",
              "type": "string"
            },
            {
              "internalType": "string",
              "name": "oneline_description",
              "type": "string"
            },
            {
              "internalType": "uint32",
              "name": "item_price",
              "type": "uint32"
            },
            {
              "internalType": "string",
              "name": "category",
              "type": "string"
            },
            {
              "internalType": "string",
              "name": "thumbnail_picture",
              "type": "string"
            },
            {
              "internalType": "string",
              "name": "detail_picture",
              "type": "string"
            },
            {
              "internalType": "string",
              "name": "delivery_period",
              "type": "string"
            },
            {
              "internalType": "uint32",
              "name": "sales_unit",
              "type": "uint32"
            },
            {
              "internalType": "string",
              "name": "item_origin",
              "type": "string"
            },
            {
              "internalType": "string",
              "name": "detail_description",
              "type": "string"
            },
            {
              "internalType": "address",
              "name": "seller_address",
              "type": "address"
            }
          ],
          "internalType": "struct SsfariFactory.Item",
          "name": "",
          "type": "tuple"
        }
      ],
      "stateMutability": "view",
      "type": "function",
      "constant": true
    },
    {
      "inputs": [
        {
          "internalType": "uint256",
          "name": "_item_No",
          "type": "uint256"
        }
      ],
      "name": "deleteItem",
      "outputs": [],
      "stateMutability": "nonpayable",
      "type": "function"
    },
    {
      "inputs": [
        {
          "internalType": "uint256",
          "name": "_item_No",
          "type": "uint256"
        },
        {
          "internalType": "address",
          "name": "_purchase_address",
          "type": "address"
        },
        {
          "internalType": "string",
          "name": "_shipping_address",
          "type": "string"
        },
        {
          "internalType": "uint32",
          "name": "_total_people",
          "type": "uint32"
        },
        {
          "internalType": "uint32",
          "name": "_paid_people",
          "type": "uint32"
        },
        {
          "internalType": "bool",
          "name": "_completed",
          "type": "bool"
        }
      ],
      "name": "purchaseItem",
      "outputs": [
        {
          "internalType": "uint256",
          "name": "",
          "type": "uint256"
        }
      ],
      "stateMutability": "payable",
      "type": "function",
      "payable": true
    },
    {
      "inputs": [],
      "name": "viewPurchaseContract",
      "outputs": [
        {
          "components": [
            {
              "internalType": "uint256",
              "name": "purchase_No",
              "type": "uint256"
            },
            {
              "internalType": "uint256",
              "name": "item_No",
              "type": "uint256"
            },
            {
              "internalType": "address",
              "name": "purchase_address",
              "type": "address"
            },
            {
              "internalType": "string",
              "name": "shipping_address",
              "type": "string"
            },
            {
              "internalType": "uint32",
              "name": "total_people",
              "type": "uint32"
            },
            {
              "internalType": "uint32",
              "name": "paid_people",
              "type": "uint32"
            },
            {
              "internalType": "uint256",
              "name": "total_price",
              "type": "uint256"
            },
            {
              "internalType": "bool",
              "name": "completed",
              "type": "bool"
            }
          ],
          "internalType": "struct SsfariFactory.PurchaseContract[]",
          "name": "",
          "type": "tuple[]"
        }
      ],
      "stateMutability": "view",
      "type": "function",
      "constant": true
    },
    {
      "inputs": [
        {
          "internalType": "uint256",
          "name": "purchase_No",
          "type": "uint256"
        }
      ],
      "name": "viewPurchaseContractByPurchaseNod",
      "outputs": [
        {
          "components": [
            {
              "internalType": "uint256",
              "name": "purchase_No",
              "type": "uint256"
            },
            {
              "internalType": "uint256",
              "name": "item_No",
              "type": "uint256"
            },
            {
              "internalType": "address",
              "name": "purchase_address",
              "type": "address"
            },
            {
              "internalType": "string",
              "name": "shipping_address",
              "type": "string"
            },
            {
              "internalType": "uint32",
              "name": "total_people",
              "type": "uint32"
            },
            {
              "internalType": "uint32",
              "name": "paid_people",
              "type": "uint32"
            },
            {
              "internalType": "uint256",
              "name": "total_price",
              "type": "uint256"
            },
            {
              "internalType": "bool",
              "name": "completed",
              "type": "bool"
            }
          ],
          "internalType": "struct SsfariFactory.PurchaseContract",
          "name": "",
          "type": "tuple"
        }
      ],
      "stateMutability": "view",
      "type": "function",
      "constant": true
    },
    {
      "inputs": [
        {
          "internalType": "uint256",
          "name": "_purchase_No",
          "type": "uint256"
        }
      ],
      "name": "paidContract",
      "outputs": [
        {
          "internalType": "uint32",
          "name": "",
          "type": "uint32"
        }
      ],
      "stateMutability": "payable",
      "type": "function",
      "payable": true
    },
    {
      "inputs": [
        {
          "internalType": "uint256",
          "name": "_purchase_No",
          "type": "uint256"
        }
      ],
      "name": "confirmContract",
      "outputs": [
        {
          "internalType": "bool",
          "name": "",
          "type": "bool"
        }
      ],
      "stateMutability": "payable",
      "type": "function",
      "payable": true
    },
    {
      "inputs": [],
      "name": "viewOrderList",
      "outputs": [],
      "stateMutability": "view",
      "type": "function",
      "constant": true
    },
    {
      "inputs": [],
      "name": "transactionHistory",
      "outputs": [],
      "stateMutability": "view",
      "type": "function",
      "constant": true
    }
  ],
  "bytecode": "0x608060405234801561001057600080fd5b50613e0a806100206000396000f3fe6080604052600436106100f35760003560e01c806355dadc781161008a5780637cff4795116100595780637cff479514610338578063bfb231d214610368578063e4f2ee78146103b0578063fa434582146103c7576100f3565b806355dadc781461028e578063643d75d1146102b9578063654fc833146102e457806376093aef1461030d576100f3565b8063254d40e9116100c6578063254d40e9146101df57806327b9ef35146101f657806331e3c6bb1461023357806346214c211461025e576100f3565b80630212c773146100f857806313691aa31461013557806316bfe200146101655780632143e523146101a2575b600080fd5b34801561010457600080fd5b5061011f600480360381019061011a9190612ec7565b61040b565b60405161012c9190613131565b60405180910390f35b61014f600480360381019061014a9190612ec7565b610975565b60405161015c9190613162565b60405180910390f35b34801561017157600080fd5b5061018c6004803603810190610187919061330a565b610b50565b60405161019991906134ed565b60405180910390f35b3480156101ae57600080fd5b506101c960048036038101906101c49190613508565b611166565b6040516101d69190613131565b60405180910390f35b3480156101eb57600080fd5b506101f46116fc565b005b34801561020257600080fd5b5061021d60048036038101906102189190612ec7565b6116fe565b60405161022a9190613600565b60405180910390f35b34801561023f57600080fd5b50610248611899565b6040516102559190613819565b60405180910390f35b61027860048036038101906102739190613867565b611e35565b60405161028591906134ed565b60405180910390f35b34801561029a57600080fd5b506102a3612130565b6040516102b09190613a82565b60405180910390f35b3480156102c557600080fd5b506102ce6122fd565b6040516102db91906134ed565b60405180910390f35b3480156102f057600080fd5b5061030b60048036038101906103069190612ec7565b612303565b005b34801561031957600080fd5b50610322612408565b60405161032f91906134ed565b60405180910390f35b610352600480360381019061034d9190612ec7565b61240e565b60405161035f9190613ab3565b60405180910390f35b34801561037457600080fd5b5061038f600480360381019061038a9190612ec7565b61268f565b6040516103a79c9b9a99989796959493929190613b27565b60405180910390f35b3480156103bc57600080fd5b506103c5612b7f565b005b3480156103d357600080fd5b506103ee60048036038101906103e99190612ec7565b612b81565b604051610402989796959493929190613c19565b60405180910390f35b610413612cae565b60026000838152602001908152602001600020604051806101800160405290816000820154815260200160018201805461044c90613ccd565b80601f016020809104026020016040519081016040528092919081815260200182805461047890613ccd565b80156104c55780601f1061049a576101008083540402835291602001916104c5565b820191906000526020600020905b8154815290600101906020018083116104a857829003601f168201915b505050505081526020016002820180546104de90613ccd565b80601f016020809104026020016040519081016040528092919081815260200182805461050a90613ccd565b80156105575780601f1061052c57610100808354040283529160200191610557565b820191906000526020600020905b81548152906001019060200180831161053a57829003601f168201915b505050505081526020016003820160009054906101000a900463ffffffff1663ffffffff1663ffffffff16815260200160048201805461059690613ccd565b80601f01602080910402602001604051908101604052809291908181526020018280546105c290613ccd565b801561060f5780601f106105e45761010080835404028352916020019161060f565b820191906000526020600020905b8154815290600101906020018083116105f257829003601f168201915b5050505050815260200160058201805461062890613ccd565b80601f016020809104026020016040519081016040528092919081815260200182805461065490613ccd565b80156106a15780601f10610676576101008083540402835291602001916106a1565b820191906000526020600020905b81548152906001019060200180831161068457829003601f168201915b505050505081526020016006820180546106ba90613ccd565b80601f01602080910402602001604051908101604052809291908181526020018280546106e690613ccd565b80156107335780601f1061070857610100808354040283529160200191610733565b820191906000526020600020905b81548152906001019060200180831161071657829003601f168201915b5050505050815260200160078201805461074c90613ccd565b80601f016020809104026020016040519081016040528092919081815260200182805461077890613ccd565b80156107c55780601f1061079a576101008083540402835291602001916107c5565b820191906000526020600020905b8154815290600101906020018083116107a857829003601f168201915b505050505081526020016008820160009054906101000a900463ffffffff1663ffffffff1663ffffffff16815260200160098201805461080490613ccd565b80601f016020809104026020016040519081016040528092919081815260200182805461083090613ccd565b801561087d5780601f106108525761010080835404028352916020019161087d565b820191906000526020600020905b81548152906001019060200180831161086057829003601f168201915b50505050508152602001600a8201805461089690613ccd565b80601f01602080910402602001604051908101604052809291908181526020018280546108c290613ccd565b801561090f5780601f106108e45761010080835404028352916020019161090f565b820191906000526020600020905b8154815290600101906020018083116108f257829003601f168201915b50505050508152602001600b820160009054906101000a900473ffffffffffffffffffffffffffffffffffffffff1673ffffffffffffffffffffffffffffffffffffffff1673ffffffffffffffffffffffffffffffffffffffff16815250509050919050565b600080600660008481526020019081526020016000206040518061010001604052908160008201548152602001600182015481526020016002820160009054906101000a900473ffffffffffffffffffffffffffffffffffffffff1673ffffffffffffffffffffffffffffffffffffffff1673ffffffffffffffffffffffffffffffffffffffff168152602001600382018054610a1190613ccd565b80601f0160208091040260200160405190810160405280929190818152602001828054610a3d90613ccd565b8015610a8a5780601f10610a5f57610100808354040283529160200191610a8a565b820191906000526020600020905b815481529060010190602001808311610a6d57829003601f168201915b505050505081526020016004820160009054906101000a900463ffffffff1663ffffffff1663ffffffff1681526020016004820160049054906101000a900463ffffffff1663ffffffff1663ffffffff168152602001600582015481526020016006820160009054906101000a900460ff1615151515815250509050600015158160e00151151514610b1b57600080fd5b60018160a00151610b2c9190613d2d565b8160a0019063ffffffff16908163ffffffff16815250508060a00151915050919050565b6000600180549050600081905550600060405180610180016040528060005481526020018e81526020018d81526020018c63ffffffff1681526020018b81526020018a81526020018981526020018881526020018763ffffffff1681526020018681526020018581526020018473ffffffffffffffffffffffffffffffffffffffff16815250905060018190806001815401808255809150506001900390600052602060002090600c0201600090919091909150600082015181600001556020820151816001019080519060200190610c2a929190612d31565b506040820151816002019080519060200190610c47929190612d31565b5060608201518160030160006101000a81548163ffffffff021916908363ffffffff1602179055506080820151816004019080519060200190610c8b929190612d31565b5060a0820151816005019080519060200190610ca8929190612d31565b5060c0820151816006019080519060200190610cc5929190612d31565b5060e0820151816007019080519060200190610ce2929190612d31565b506101008201518160080160006101000a81548163ffffffff021916908363ffffffff160217905550610120820151816009019080519060200190610d28929190612d31565b5061014082015181600a019080519060200190610d46929190612d31565b5061016082015181600b0160006101000a81548173ffffffffffffffffffffffffffffffffffffffff021916908373ffffffffffffffffffffffffffffffffffffffff16021790555050507fb2271e3ab7b8655fc693098b0d644f27e1c0c336b4e8dba41393e6b9e8851c8e6000548e8e8e8e8e8e8e8e8e8e8e604051610dd89c9b9a99989796959493929190613b27565b60405180910390a1806002600080548152602001908152602001600020600082015181600001556020820151816001019080519060200190610e1b929190612d31565b506040820151816002019080519060200190610e38929190612d31565b5060608201518160030160006101000a81548163ffffffff021916908363ffffffff1602179055506080820151816004019080519060200190610e7c929190612d31565b5060a0820151816005019080519060200190610e99929190612d31565b5060c0820151816006019080519060200190610eb6929190612d31565b5060e0820151816007019080519060200190610ed3929190612d31565b506101008201518160080160006101000a81548163ffffffff021916908363ffffffff160217905550610120820151816009019080519060200190610f19929190612d31565b5061014082015181600a019080519060200190610f37929190612d31565b5061016082015181600b0160006101000a81548173ffffffffffffffffffffffffffffffffffffffff021916908373ffffffffffffffffffffffffffffffffffffffff16021790555090505080600360008573ffffffffffffffffffffffffffffffffffffffff1673ffffffffffffffffffffffffffffffffffffffff168152602001908152602001600020600082015181600001556020820151816001019080519060200190610fe9929190612d31565b506040820151816002019080519060200190611006929190612d31565b5060608201518160030160006101000a81548163ffffffff021916908363ffffffff160217905550608082015181600401908051906020019061104a929190612d31565b5060a0820151816005019080519060200190611067929190612d31565b5060c0820151816006019080519060200190611084929190612d31565b5060e08201518160070190805190602001906110a1929190612d31565b506101008201518160080160006101000a81548163ffffffff021916908363ffffffff1602179055506101208201518160090190805190602001906110e7929190612d31565b5061014082015181600a019080519060200190611105929190612d31565b5061016082015181600b0160006101000a81548173ffffffffffffffffffffffffffffffffffffffff021916908373ffffffffffffffffffffffffffffffffffffffff1602179055509050506000549150509b9a5050505050505050505050565b61116e612cae565b600360008373ffffffffffffffffffffffffffffffffffffffff1673ffffffffffffffffffffffffffffffffffffffff16815260200190815260200160002060405180610180016040529081600082015481526020016001820180546111d390613ccd565b80601f01602080910402602001604051908101604052809291908181526020018280546111ff90613ccd565b801561124c5780601f106112215761010080835404028352916020019161124c565b820191906000526020600020905b81548152906001019060200180831161122f57829003601f168201915b5050505050815260200160028201805461126590613ccd565b80601f016020809104026020016040519081016040528092919081815260200182805461129190613ccd565b80156112de5780601f106112b3576101008083540402835291602001916112de565b820191906000526020600020905b8154815290600101906020018083116112c157829003601f168201915b505050505081526020016003820160009054906101000a900463ffffffff1663ffffffff1663ffffffff16815260200160048201805461131d90613ccd565b80601f016020809104026020016040519081016040528092919081815260200182805461134990613ccd565b80156113965780601f1061136b57610100808354040283529160200191611396565b820191906000526020600020905b81548152906001019060200180831161137957829003601f168201915b505050505081526020016005820180546113af90613ccd565b80601f01602080910402602001604051908101604052809291908181526020018280546113db90613ccd565b80156114285780601f106113fd57610100808354040283529160200191611428565b820191906000526020600020905b81548152906001019060200180831161140b57829003601f168201915b5050505050815260200160068201805461144190613ccd565b80601f016020809104026020016040519081016040528092919081815260200182805461146d90613ccd565b80156114ba5780601f1061148f576101008083540402835291602001916114ba565b820191906000526020600020905b81548152906001019060200180831161149d57829003601f168201915b505050505081526020016007820180546114d390613ccd565b80601f01602080910402602001604051908101604052809291908181526020018280546114ff90613ccd565b801561154c5780601f106115215761010080835404028352916020019161154c565b820191906000526020600020905b81548152906001019060200180831161152f57829003601f168201915b505050505081526020016008820160009054906101000a900463ffffffff1663ffffffff1663ffffffff16815260200160098201805461158b90613ccd565b80601f01602080910402602001604051908101604052809291908181526020018280546115b790613ccd565b80156116045780601f106115d957610100808354040283529160200191611604565b820191906000526020600020905b8154815290600101906020018083116115e757829003601f168201915b50505050508152602001600a8201805461161d90613ccd565b80601f016020809104026020016040519081016040528092919081815260200182805461164990613ccd565b80156116965780601f1061166b57610100808354040283529160200191611696565b820191906000526020600020905b81548152906001019060200180831161167957829003601f168201915b50505050508152602001600b820160009054906101000a900473ffffffffffffffffffffffffffffffffffffffff1673ffffffffffffffffffffffffffffffffffffffff1673ffffffffffffffffffffffffffffffffffffffff16815250509050919050565b565b611706612db7565b600660008381526020019081526020016000206040518061010001604052908160008201548152602001600182015481526020016002820160009054906101000a900473ffffffffffffffffffffffffffffffffffffffff1673ffffffffffffffffffffffffffffffffffffffff1673ffffffffffffffffffffffffffffffffffffffff16815260200160038201805461179f90613ccd565b80601f01602080910402602001604051908101604052809291908181526020018280546117cb90613ccd565b80156118185780601f106117ed57610100808354040283529160200191611818565b820191906000526020600020905b8154815290600101906020018083116117fb57829003601f168201915b505050505081526020016004820160009054906101000a900463ffffffff1663ffffffff1663ffffffff1681526020016004820160049054906101000a900463ffffffff1663ffffffff1663ffffffff168152602001600582015481526020016006820160009054906101000a900460ff1615151515815250509050919050565b60606001805480602002602001604051908101604052809291908181526020016000905b82821015611e2c57838290600052602060002090600c020160405180610180016040529081600082015481526020016001820180546118fb90613ccd565b80601f016020809104026020016040519081016040528092919081815260200182805461192790613ccd565b80156119745780601f1061194957610100808354040283529160200191611974565b820191906000526020600020905b81548152906001019060200180831161195757829003601f168201915b5050505050815260200160028201805461198d90613ccd565b80601f01602080910402602001604051908101604052809291908181526020018280546119b990613ccd565b8015611a065780601f106119db57610100808354040283529160200191611a06565b820191906000526020600020905b8154815290600101906020018083116119e957829003601f168201915b505050505081526020016003820160009054906101000a900463ffffffff1663ffffffff1663ffffffff168152602001600482018054611a4590613ccd565b80601f0160208091040260200160405190810160405280929190818152602001828054611a7190613ccd565b8015611abe5780601f10611a9357610100808354040283529160200191611abe565b820191906000526020600020905b815481529060010190602001808311611aa157829003601f168201915b50505050508152602001600582018054611ad790613ccd565b80601f0160208091040260200160405190810160405280929190818152602001828054611b0390613ccd565b8015611b505780601f10611b2557610100808354040283529160200191611b50565b820191906000526020600020905b815481529060010190602001808311611b3357829003601f168201915b50505050508152602001600682018054611b6990613ccd565b80601f0160208091040260200160405190810160405280929190818152602001828054611b9590613ccd565b8015611be25780601f10611bb757610100808354040283529160200191611be2565b820191906000526020600020905b815481529060010190602001808311611bc557829003601f168201915b50505050508152602001600782018054611bfb90613ccd565b80601f0160208091040260200160405190810160405280929190818152602001828054611c2790613ccd565b8015611c745780601f10611c4957610100808354040283529160200191611c74565b820191906000526020600020905b815481529060010190602001808311611c5757829003601f168201915b505050505081526020016008820160009054906101000a900463ffffffff1663ffffffff1663ffffffff168152602001600982018054611cb390613ccd565b80601f0160208091040260200160405190810160405280929190818152602001828054611cdf90613ccd565b8015611d2c5780601f10611d0157610100808354040283529160200191611d2c565b820191906000526020600020905b815481529060010190602001808311611d0f57829003601f168201915b50505050508152602001600a82018054611d4590613ccd565b80601f0160208091040260200160405190810160405280929190818152602001828054611d7190613ccd565b8015611dbe5780601f10611d9357610100808354040283529160200191611dbe565b820191906000526020600020905b815481529060010190602001808311611da157829003601f168201915b50505050508152602001600b820160009054906101000a900473ffffffffffffffffffffffffffffffffffffffff1673ffffffffffffffffffffffffffffffffffffffff1673ffffffffffffffffffffffffffffffffffffffff1681525050815260200190600101906118bd565b50505050905090565b6000600580549050600481905550600060018881548110611e5957611e58613d67565b5b90600052602060002090600c020160030160009054906101000a900463ffffffff16905060008582611e8b9190613d96565b63ffffffff169050600060405180610100016040528060045481526020018b81526020018a73ffffffffffffffffffffffffffffffffffffffff1681526020018981526020018863ffffffff1681526020018763ffffffff16815260200183815260200186151581525090506005819080600181540180825580915050600190039060005260206000209060070201600090919091909150600082015181600001556020820151816001015560408201518160020160006101000a81548173ffffffffffffffffffffffffffffffffffffffff021916908373ffffffffffffffffffffffffffffffffffffffff1602179055506060820151816003019080519060200190611f9a929190612d31565b5060808201518160040160006101000a81548163ffffffff021916908363ffffffff16021790555060a08201518160040160046101000a81548163ffffffff021916908363ffffffff16021790555060c0820151816005015560e08201518160060160006101000a81548160ff021916908315150217905550505080600660006004548152602001908152602001600020600082015181600001556020820151816001015560408201518160020160006101000a81548173ffffffffffffffffffffffffffffffffffffffff021916908373ffffffffffffffffffffffffffffffffffffffff16021790555060608201518160030190805190602001906120a2929190612d31565b5060808201518160040160006101000a81548163ffffffff021916908363ffffffff16021790555060a08201518160040160046101000a81548163ffffffff021916908363ffffffff16021790555060c0820151816005015560e08201518160060160006101000a81548160ff02191690831515021790555090505060045493505050509695505050505050565b60606005805480602002602001604051908101604052809291908181526020016000905b828210156122f457838290600052602060002090600702016040518061010001604052908160008201548152602001600182015481526020016002820160009054906101000a900473ffffffffffffffffffffffffffffffffffffffff1673ffffffffffffffffffffffffffffffffffffffff1673ffffffffffffffffffffffffffffffffffffffff1681526020016003820180546121f290613ccd565b80601f016020809104026020016040519081016040528092919081815260200182805461221e90613ccd565b801561226b5780601f106122405761010080835404028352916020019161226b565b820191906000526020600020905b81548152906001019060200180831161224e57829003601f168201915b505050505081526020016004820160009054906101000a900463ffffffff1663ffffffff1663ffffffff1681526020016004820160049054906101000a900463ffffffff1663ffffffff1663ffffffff168152602001600582015481526020016006820160009054906101000a900460ff16151515158152505081526020019060010190612154565b50505050905090565b60005481565b6001818154811061231757612316613d67565b5b90600052602060002090600c020160008082016000905560018201600061233e9190612e20565b60028201600061234e9190612e20565b6003820160006101000a81549063ffffffff02191690556004820160006123759190612e20565b6005820160006123859190612e20565b6006820160006123959190612e20565b6007820160006123a59190612e20565b6008820160006101000a81549063ffffffff02191690556009820160006123cc9190612e20565b600a820160006123dc9190612e20565b600b820160006101000a81549073ffffffffffffffffffffffffffffffffffffffff0219169055505050565b60045481565b600080600660008481526020019081526020016000206040518061010001604052908160008201548152602001600182015481526020016002820160009054906101000a900473ffffffffffffffffffffffffffffffffffffffff1673ffffffffffffffffffffffffffffffffffffffff1673ffffffffffffffffffffffffffffffffffffffff1681526020016003820180546124aa90613ccd565b80601f01602080910402602001604051908101604052809291908181526020018280546124d690613ccd565b80156125235780601f106124f857610100808354040283529160200191612523565b820191906000526020600020905b81548152906001019060200180831161250657829003601f168201915b505050505081526020016004820160009054906101000a900463ffffffff1663ffffffff1663ffffffff1681526020016004820160049054906101000a900463ffffffff1663ffffffff1663ffffffff168152602001600582015481526020016006820160009054906101000a900460ff1615151515815250509050806080015163ffffffff168160a0015163ffffffff16146125bf57600080fd5b600015158160e001511515036125d457600080fd5b60018160e0019015159081151581525050600060018260200151815481106125ff576125fe613d67565b5b90600052602060002090600c0201600b0160009054906101000a900473ffffffffffffffffffffffffffffffffffffffff16905060008260c0015190508173ffffffffffffffffffffffffffffffffffffffff166108fc829081150290604051600060405180830381858888f19350505050158015612682573d6000803e3d6000fd5b5060019350505050919050565b6001818154811061269f57600080fd5b90600052602060002090600c02016000915090508060000154908060010180546126c890613ccd565b80601f01602080910402602001604051908101604052809291908181526020018280546126f490613ccd565b80156127415780601f1061271657610100808354040283529160200191612741565b820191906000526020600020905b81548152906001019060200180831161272457829003601f168201915b50505050509080600201805461275690613ccd565b80601f016020809104026020016040519081016040528092919081815260200182805461278290613ccd565b80156127cf5780601f106127a4576101008083540402835291602001916127cf565b820191906000526020600020905b8154815290600101906020018083116127b257829003601f168201915b5050505050908060030160009054906101000a900463ffffffff16908060040180546127fa90613ccd565b80601f016020809104026020016040519081016040528092919081815260200182805461282690613ccd565b80156128735780601f1061284857610100808354040283529160200191612873565b820191906000526020600020905b81548152906001019060200180831161285657829003601f168201915b50505050509080600501805461288890613ccd565b80601f01602080910402602001604051908101604052809291908181526020018280546128b490613ccd565b80156129015780601f106128d657610100808354040283529160200191612901565b820191906000526020600020905b8154815290600101906020018083116128e457829003601f168201915b50505050509080600601805461291690613ccd565b80601f016020809104026020016040519081016040528092919081815260200182805461294290613ccd565b801561298f5780601f106129645761010080835404028352916020019161298f565b820191906000526020600020905b81548152906001019060200180831161297257829003601f168201915b5050505050908060070180546129a490613ccd565b80601f01602080910402602001604051908101604052809291908181526020018280546129d090613ccd565b8015612a1d5780601f106129f257610100808354040283529160200191612a1d565b820191906000526020600020905b815481529060010190602001808311612a0057829003601f168201915b5050505050908060080160009054906101000a900463ffffffff1690806009018054612a4890613ccd565b80601f0160208091040260200160405190810160405280929190818152602001828054612a7490613ccd565b8015612ac15780601f10612a9657610100808354040283529160200191612ac1565b820191906000526020600020905b815481529060010190602001808311612aa457829003601f168201915b50505050509080600a018054612ad690613ccd565b80601f0160208091040260200160405190810160405280929190818152602001828054612b0290613ccd565b8015612b4f5780601f10612b2457610100808354040283529160200191612b4f565b820191906000526020600020905b815481529060010190602001808311612b3257829003601f168201915b50505050509080600b0160009054906101000a900473ffffffffffffffffffffffffffffffffffffffff1690508c565b565b60058181548110612b9157600080fd5b90600052602060002090600702016000915090508060000154908060010154908060020160009054906101000a900473ffffffffffffffffffffffffffffffffffffffff1690806003018054612be690613ccd565b80601f0160208091040260200160405190810160405280929190818152602001828054612c1290613ccd565b8015612c5f5780601f10612c3457610100808354040283529160200191612c5f565b820191906000526020600020905b815481529060010190602001808311612c4257829003601f168201915b5050505050908060040160009054906101000a900463ffffffff16908060040160049054906101000a900463ffffffff16908060050154908060060160009054906101000a900460ff16905088565b604051806101800160405280600081526020016060815260200160608152602001600063ffffffff16815260200160608152602001606081526020016060815260200160608152602001600063ffffffff1681526020016060815260200160608152602001600073ffffffffffffffffffffffffffffffffffffffff1681525090565b828054612d3d90613ccd565b90600052602060002090601f016020900481019282612d5f5760008555612da6565b82601f10612d7857805160ff1916838001178555612da6565b82800160010185558215612da6579182015b82811115612da5578251825591602001919060010190612d8a565b5b509050612db39190612e60565b5090565b6040518061010001604052806000815260200160008152602001600073ffffffffffffffffffffffffffffffffffffffff16815260200160608152602001600063ffffffff168152602001600063ffffffff168152602001600081526020016000151581525090565b508054612e2c90613ccd565b6000825580601f10612e3e5750612e5d565b601f016020900490600052602060002090810190612e5c9190612e60565b5b50565b5b80821115612e79576000816000905550600101612e61565b5090565b6000604051905090565b600080fd5b600080fd5b6000819050919050565b612ea481612e91565b8114612eaf57600080fd5b50565b600081359050612ec181612e9b565b92915050565b600060208284031215612edd57612edc612e87565b5b6000612eeb84828501612eb2565b91505092915050565b612efd81612e91565b82525050565b600081519050919050565b600082825260208201905092915050565b60005b83811015612f3d578082015181840152602081019050612f22565b83811115612f4c576000848401525b50505050565b6000601f19601f8301169050919050565b6000612f6e82612f03565b612f788185612f0e565b9350612f88818560208601612f1f565b612f9181612f52565b840191505092915050565b600063ffffffff82169050919050565b612fb581612f9c565b82525050565b600073ffffffffffffffffffffffffffffffffffffffff82169050919050565b6000612fe682612fbb565b9050919050565b612ff681612fdb565b82525050565b6000610180830160008301516130156000860182612ef4565b506020830151848203602086015261302d8282612f63565b915050604083015184820360408601526130478282612f63565b915050606083015161305c6060860182612fac565b50608083015184820360808601526130748282612f63565b91505060a083015184820360a086015261308e8282612f63565b91505060c083015184820360c08601526130a88282612f63565b91505060e083015184820360e08601526130c28282612f63565b9150506101008301516130d9610100860182612fac565b506101208301518482036101208601526130f38282612f63565b91505061014083015184820361014086015261310f8282612f63565b915050610160830151613126610160860182612fed565b508091505092915050565b6000602082019050818103600083015261314b8184612ffc565b905092915050565b61315c81612f9c565b82525050565b60006020820190506131776000830184613153565b92915050565b600080fd5b600080fd5b7f4e487b7100000000000000000000000000000000000000000000000000000000600052604160045260246000fd5b6131bf82612f52565b810181811067ffffffffffffffff821117156131de576131dd613187565b5b80604052505050565b60006131f1612e7d565b90506131fd82826131b6565b919050565b600067ffffffffffffffff82111561321d5761321c613187565b5b61322682612f52565b9050602081019050919050565b82818337600083830152505050565b600061325561325084613202565b6131e7565b90508281526020810184848401111561327157613270613182565b5b61327c848285613233565b509392505050565b600082601f8301126132995761329861317d565b5b81356132a9848260208601613242565b91505092915050565b6132bb81612f9c565b81146132c657600080fd5b50565b6000813590506132d8816132b2565b92915050565b6132e781612fdb565b81146132f257600080fd5b50565b600081359050613304816132de565b92915050565b60008060008060008060008060008060006101608c8e0312156133305761332f612e87565b5b60008c013567ffffffffffffffff81111561334e5761334d612e8c565b5b61335a8e828f01613284565b9b505060208c013567ffffffffffffffff81111561337b5761337a612e8c565b5b6133878e828f01613284565b9a505060406133988e828f016132c9565b99505060608c013567ffffffffffffffff8111156133b9576133b8612e8c565b5b6133c58e828f01613284565b98505060808c013567ffffffffffffffff8111156133e6576133e5612e8c565b5b6133f28e828f01613284565b97505060a08c013567ffffffffffffffff81111561341357613412612e8c565b5b61341f8e828f01613284565b96505060c08c013567ffffffffffffffff8111156134405761343f612e8c565b5b61344c8e828f01613284565b95505060e061345d8e828f016132c9565b9450506101008c013567ffffffffffffffff81111561347f5761347e612e8c565b5b61348b8e828f01613284565b9350506101208c013567ffffffffffffffff8111156134ad576134ac612e8c565b5b6134b98e828f01613284565b9250506101406134cb8e828f016132f5565b9150509295989b509295989b9093969950565b6134e781612e91565b82525050565b600060208201905061350260008301846134de565b92915050565b60006020828403121561351e5761351d612e87565b5b600061352c848285016132f5565b91505092915050565b60008115159050919050565b61354a81613535565b82525050565b6000610100830160008301516135696000860182612ef4565b50602083015161357c6020860182612ef4565b50604083015161358f6040860182612fed565b50606083015184820360608601526135a78282612f63565b91505060808301516135bc6080860182612fac565b5060a08301516135cf60a0860182612fac565b5060c08301516135e260c0860182612ef4565b5060e08301516135f560e0860182613541565b508091505092915050565b6000602082019050818103600083015261361a8184613550565b905092915050565b600081519050919050565b600082825260208201905092915050565b6000819050602082019050919050565b6000610180830160008301516136676000860182612ef4565b506020830151848203602086015261367f8282612f63565b915050604083015184820360408601526136998282612f63565b91505060608301516136ae6060860182612fac565b50608083015184820360808601526136c68282612f63565b91505060a083015184820360a08601526136e08282612f63565b91505060c083015184820360c08601526136fa8282612f63565b91505060e083015184820360e08601526137148282612f63565b91505061010083015161372b610100860182612fac565b506101208301518482036101208601526137458282612f63565b9150506101408301518482036101408601526137618282612f63565b915050610160830151613778610160860182612fed565b508091505092915050565b600061378f838361364e565b905092915050565b6000602082019050919050565b60006137af82613622565b6137b9818561362d565b9350836020820285016137cb8561363e565b8060005b8581101561380757848403895281516137e88582613783565b94506137f383613797565b925060208a019950506001810190506137cf565b50829750879550505050505092915050565b6000602082019050818103600083015261383381846137a4565b905092915050565b61384481613535565b811461384f57600080fd5b50565b6000813590506138618161383b565b92915050565b60008060008060008060c0878903121561388457613883612e87565b5b600061389289828a01612eb2565b96505060206138a389828a016132f5565b955050604087013567ffffffffffffffff8111156138c4576138c3612e8c565b5b6138d089828a01613284565b94505060606138e189828a016132c9565b93505060806138f289828a016132c9565b92505060a061390389828a01613852565b9150509295509295509295565b600081519050919050565b600082825260208201905092915050565b6000819050602082019050919050565b6000610100830160008301516139556000860182612ef4565b5060208301516139686020860182612ef4565b50604083015161397b6040860182612fed565b50606083015184820360608601526139938282612f63565b91505060808301516139a86080860182612fac565b5060a08301516139bb60a0860182612fac565b5060c08301516139ce60c0860182612ef4565b5060e08301516139e160e0860182613541565b508091505092915050565b60006139f8838361393c565b905092915050565b6000602082019050919050565b6000613a1882613910565b613a22818561391b565b935083602082028501613a348561392c565b8060005b85811015613a705784840389528151613a5185826139ec565b9450613a5c83613a00565b925060208a01995050600181019050613a38565b50829750879550505050505092915050565b60006020820190508181036000830152613a9c8184613a0d565b905092915050565b613aad81613535565b82525050565b6000602082019050613ac86000830184613aa4565b92915050565b600082825260208201905092915050565b6000613aea82612f03565b613af48185613ace565b9350613b04818560208601612f1f565b613b0d81612f52565b840191505092915050565b613b2181612fdb565b82525050565b600061018082019050613b3d600083018f6134de565b8181036020830152613b4f818e613adf565b90508181036040830152613b63818d613adf565b9050613b72606083018c613153565b8181036080830152613b84818b613adf565b905081810360a0830152613b98818a613adf565b905081810360c0830152613bac8189613adf565b905081810360e0830152613bc08188613adf565b9050613bd0610100830187613153565b818103610120830152613be38186613adf565b9050818103610140830152613bf88185613adf565b9050613c08610160830184613b18565b9d9c50505050505050505050505050565b600061010082019050613c2f600083018b6134de565b613c3c602083018a6134de565b613c496040830189613b18565b8181036060830152613c5b8188613adf565b9050613c6a6080830187613153565b613c7760a0830186613153565b613c8460c08301856134de565b613c9160e0830184613aa4565b9998505050505050505050565b7f4e487b7100000000000000000000000000000000000000000000000000000000600052602260045260246000fd5b60006002820490506001821680613ce557607f821691505b602082108103613cf857613cf7613c9e565b5b50919050565b7f4e487b7100000000000000000000000000000000000000000000000000000000600052601160045260246000fd5b6000613d3882612f9c565b9150613d4383612f9c565b92508263ffffffff03821115613d5c57613d5b613cfe565b5b828201905092915050565b7f4e487b7100000000000000000000000000000000000000000000000000000000600052603260045260246000fd5b6000613da182612f9c565b9150613dac83612f9c565b92508163ffffffff0483118215151615613dc957613dc8613cfe565b5b82820290509291505056fea2646970667358221220706f7a07e4c50fad1739b6aa41b8a3201d0220eb3aeebc1b0f6e1776cda29c5064736f6c634300080e0033",
  "immutableReferences": {},
  "source": "// SPDX-License-Identifier: MIT\r\npragma solidity >=0.4.22 <0.9.0;\r\n\r\ncontract SsfariFactory {\r\n  struct Item {\r\n    uint item_No;\r\n    string item_name;\r\n    string oneline_description;\r\n    uint32 item_price;\r\n    string category;\r\n    string thumbnail_picture;\r\n    string detail_picture;\r\n    string delivery_period;\r\n    uint32 sales_unit;\r\n    string item_origin;\r\n    string detail_description;\r\n    address seller_address;\r\n  }\r\n\r\n  //  event\r\n  event NewItem(uint item_No, string item_name, string oneline_description, \r\n                        uint32 item_price, string category,\r\n                        string thumbnail_picture, string detail_picture, \r\n                        string delivery_period, uint32 sales_unit, \r\n                        string item_origin, string detail_description, address seller_address);\r\n\r\n  //  variable\r\n  uint public itemPk;\r\n  Item[] public items;\r\n\r\n  //  map\r\n  mapping(uint => Item) itemNoToItem;\r\n  mapping(address => Item) sellerToItem;\r\n  // mapping(address => Item) paidaddrToItem;\r\n  //  variable\r\n  uint public PurchasePk;\r\n  PurchaseContract[] public purchasecontracts;\r\n  //  map\r\n  mapping(uint => PurchaseContract) purchaseNoToPurchaseContract;\r\n  mapping(address => PurchaseContract) paidToPurchaseContract;\r\n  \r\n\r\n\r\n\r\n  //  :   \r\n  function registerItem(string memory item_name, string memory oneline_description, \r\n                        uint32 item_price, string memory category,\r\n                        string memory thumbnail_picture, string memory detail_picture, \r\n                        string memory delivery_period, uint32 sales_unit, \r\n                        string memory item_origin, string memory detail_description, address seller_address) public returns (uint){\r\n    itemPk = items.length;\r\n    Item memory item = Item(itemPk, item_name, oneline_description, \r\n                        item_price, category, thumbnail_picture,detail_picture, \r\n                        delivery_period ,sales_unit , item_origin,detail_description, seller_address);\r\n    items.push(item);\r\n    emit NewItem(itemPk, item_name, oneline_description, \r\n                  item_price, category,\r\n                  thumbnail_picture, detail_picture, \r\n                  delivery_period, sales_unit, \r\n                  item_origin, detail_description, seller_address);\r\n    itemNoToItem[itemPk]= item;\r\n    sellerToItem[seller_address] = item;\r\n    return itemPk;\r\n  }\r\n  //  :   \r\n  function viewItems() public view returns (Item[] memory) {\r\n    return items;\r\n  }\r\n    //  :  \r\n  function viewItemByItemNo(uint _item_No) public view returns (Item memory) {\r\n    return itemNoToItem[_item_No];\r\n  }\r\n  //   \r\n  function viewSellerToItem(address _seller_address) public view returns (Item memory) {\r\n    return sellerToItem[_seller_address];\r\n  }\r\n  //  :  ( )\r\n  // function editItem(uint item_No, string memory item_name, string memory oneline_description, \r\n  //                   uint32 item_price, string memory category,\r\n  //                   string memory thumbnail_picture, string memory detail_picture, \r\n  //                   string memory delivery_period, uint32 sales_unit, \r\n  //                   string memory item_origin, string memory detail_description, address seller_address) public view returns (Item memory) {\r\n  //   Item memory selectItem = items[item_No];\r\n  //   selectItem.item_name = item_name;\r\n  //   selectItem.oneline_description = oneline_description;\r\n  //   selectItem.item_price = item_price;\r\n  //   selectItem.category = category;\r\n  //   selectItem.thumbnail_picture = thumbnail_picture;\r\n  //   selectItem.detail_picture = detail_picture;\r\n  //   selectItem.delivery_period = delivery_period;\r\n  //   selectItem.sales_unit = sales_unit;\r\n  //   selectItem.item_origin = item_origin;\r\n  //   selectItem.detail_description = detail_description;\r\n\r\n  //   items[item_No] = selectItem;\r\n  //   sellerToItem[seller_address] = selectItem;\r\n  //   return selectItem;\r\n  // }\r\n\r\n  //  :   ( items length  .)\r\n  function deleteItem(uint _item_No) public {\r\n    delete items[_item_No];\r\n  }\r\n\r\n  //  :    >  ( )\r\n  function purchaseItem(uint _item_No, address _purchase_address, string memory _shipping_address, uint32 _total_people, uint32 _paid_people, bool _completed) payable public returns (uint){\r\n    PurchasePk = purchasecontracts.length;\r\n    uint32 puchaseContractPrice = items[_item_No].item_price;\r\n    uint _total_price = puchaseContractPrice * _total_people;\r\n    PurchaseContract memory purchaseContract = PurchaseContract(PurchasePk, _item_No, _purchase_address, _shipping_address, _total_people,  _paid_people, _total_price, _completed);\r\n    purchasecontracts.push(purchaseContract);\r\n    \r\n    // Item memory item = items[_item_No];\r\n    purchaseNoToPurchaseContract[PurchasePk] = purchaseContract;\r\n    return PurchasePk;\r\n  }\r\n  //  :  /  \r\n  struct PurchaseContract {\r\n    uint purchase_No;\r\n    uint item_No;\r\n    address purchase_address;\r\n    string shipping_address;\r\n    uint32 total_people;\r\n    uint32 paid_people;\r\n    uint total_price;\r\n    bool completed;\r\n  }\r\n\r\n  //  :  \r\n  function viewPurchaseContract() public view returns (PurchaseContract[] memory) {\r\n    return purchasecontracts;\r\n  }\r\n  //  :  \r\n  function viewPurchaseContractByPurchaseNod(uint purchase_No) public view returns (PurchaseContract memory) {\r\n    return purchaseNoToPurchaseContract[purchase_No];\r\n  }\r\n  //  :   (  ) from    .\r\n  function paidContract(uint _purchase_No) payable public returns (uint32) {\r\n    \r\n    PurchaseContract memory purchasContract = purchaseNoToPurchaseContract[_purchase_No];\r\n    require(purchasContract.completed == false);\r\n    purchasContract.paid_people = purchasContract.paid_people + 1;\r\n    return purchasContract.paid_people;\r\n  }\r\n  //  :   ( ) => ( ) \r\n  function confirmContract(uint _purchase_No) payable external returns (bool) {\r\n    PurchaseContract memory purchasContract = purchaseNoToPurchaseContract[_purchase_No];\r\n    require(purchasContract.paid_people == purchasContract.total_people);\r\n    require(purchasContract.completed != false);\r\n    purchasContract.completed = true;\r\n    address selleradd = items[purchasContract.item_No].seller_address;\r\n    uint sellerprice = purchasContract.total_price;    \r\n    payable(selleradd).transfer(sellerprice);\r\n    return true;\r\n  }\r\n  //  :   \r\n  function viewOrderList() public view { }\r\n\r\n  //  :  \r\n  function transactionHistory() public view { }\r\n}\r\n",
  "sourcePath": "C:\\Users\\multicampus\\Desktop\\ssfari_campus\\truffle\\contracts\\SsfariFactory.sol",
  "compiler": {
    "name": "solc",
    "version": "0.8.14+commit.80d49f37.Emscripten.clang"
  },
  "schemaVersion": "3.4.10",
  "updatedAt": "2022-10-02T06:48:38.696Z",
  "networkType": "ethereum",
  "devdoc": {
    "kind": "dev",
    "methods": {},
    "version": 1
  },
  "userdoc": {
    "kind": "user",
    "methods": {},
    "version": 1
  }
}